{
	"contracts/5_ContratVente.sol": {
		"ContratVente": {
			"abi": [
				{
					"inputs": [
						{
							"internalType": "uint256",
							"name": "_prixInitial",
							"type": "uint256"
						}
					],
					"stateMutability": "nonpayable",
					"type": "constructor"
				},
				{
					"inputs": [],
					"name": "_acheteur",
					"outputs": [
						{
							"internalType": "address",
							"name": "",
							"type": "address"
						}
					],
					"stateMutability": "view",
					"type": "function"
				},
				{
					"inputs": [],
					"name": "_prix",
					"outputs": [
						{
							"internalType": "uint256",
							"name": "",
							"type": "uint256"
						}
					],
					"stateMutability": "view",
					"type": "function"
				},
				{
					"inputs": [],
					"name": "_vendeur",
					"outputs": [
						{
							"internalType": "address payable",
							"name": "",
							"type": "address"
						}
					],
					"stateMutability": "view",
					"type": "function"
				},
				{
					"inputs": [],
					"name": "acheter",
					"outputs": [],
					"stateMutability": "payable",
					"type": "function"
				},
				{
					"inputs": [],
					"name": "confirmerLivraison",
					"outputs": [],
					"stateMutability": "nonpayable",
					"type": "function"
				},
				{
					"inputs": [],
					"name": "etat",
					"outputs": [
						{
							"internalType": "enum ContratVente.EtatVente",
							"name": "",
							"type": "uint8"
						}
					],
					"stateMutability": "view",
					"type": "function"
				},
				{
					"inputs": [],
					"name": "getEtat",
					"outputs": [
						{
							"internalType": "enum ContratVente.EtatVente",
							"name": "",
							"type": "uint8"
						}
					],
					"stateMutability": "view",
					"type": "function"
				},
				{
					"inputs": [],
					"name": "rembourserAcheteur",
					"outputs": [],
					"stateMutability": "nonpayable",
					"type": "function"
				}
			],
			"devdoc": {
				"kind": "dev",
				"methods": {},
				"version": 1
			},
			"evm": {
				"assembly": "    /* \"contracts/5_ContratVente.sol\":69:1440  contract ContratVente {... */\n  mstore(0x40, 0x80)\n    /* \"contracts/5_ContratVente.sol\":277:425  constructor(uint256 _prixInitial) {... */\n  callvalue\n  dup1\n  iszero\n  tag_1\n  jumpi\n  0x00\n  dup1\n  revert\ntag_1:\n  pop\n  mload(0x40)\n  sub(codesize, bytecodeSize)\n  dup1\n  bytecodeSize\n  dup4\n  codecopy\n  dup2\n  dup2\n  add\n  0x40\n  mstore\n  dup2\n  add\n  swap1\n  tag_2\n  swap2\n  swap1\n  tag_3\n  jump\t// in\ntag_2:\n    /* \"contracts/5_ContratVente.sol\":340:350  msg.sender */\n  caller\n    /* \"contracts/5_ContratVente.sol\":321:329  _vendeur */\n  0x00\n  dup1\n    /* \"contracts/5_ContratVente.sol\":321:351  _vendeur = payable(msg.sender) */\n  0x0100\n  exp\n  dup2\n  sload\n  dup2\n  0xffffffffffffffffffffffffffffffffffffffff\n  mul\n  not\n  and\n  swap1\n  dup4\n  0xffffffffffffffffffffffffffffffffffffffff\n  and\n  mul\n  or\n  swap1\n  sstore\n  pop\n    /* \"contracts/5_ContratVente.sol\":369:381  _prixInitial */\n  dup1\n    /* \"contracts/5_ContratVente.sol\":361:366  _prix */\n  0x02\n    /* \"contracts/5_ContratVente.sol\":361:381  _prix = _prixInitial */\n  dup2\n  swap1\n  sstore\n  pop\n    /* \"contracts/5_ContratVente.sol\":398:418  EtatVente.Disponible */\n  0x00\n    /* \"contracts/5_ContratVente.sol\":391:395  etat */\n  0x03\n  0x00\n    /* \"contracts/5_ContratVente.sol\":391:418  etat = EtatVente.Disponible */\n  0x0100\n  exp\n  dup2\n  sload\n  dup2\n  0xff\n  mul\n  not\n  and\n  swap1\n  dup4\n  0x02\n  dup2\n  gt\n  iszero\n  tag_6\n  jumpi\n  tag_7\n  tag_8\n  jump\t// in\ntag_7:\ntag_6:\n  mul\n  or\n  swap1\n  sstore\n  pop\n    /* \"contracts/5_ContratVente.sol\":277:425  constructor(uint256 _prixInitial) {... */\n  pop\n    /* \"contracts/5_ContratVente.sol\":69:1440  contract ContratVente {... */\n  jump(tag_9)\n    /* \"#utility.yul\":88:205   */\ntag_11:\n    /* \"#utility.yul\":197:198   */\n  0x00\n    /* \"#utility.yul\":194:195   */\n  dup1\n    /* \"#utility.yul\":187:199   */\n  revert\n    /* \"#utility.yul\":334:411   */\ntag_13:\n    /* \"#utility.yul\":371:378   */\n  0x00\n    /* \"#utility.yul\":400:405   */\n  dup2\n    /* \"#utility.yul\":389:405   */\n  swap1\n  pop\n    /* \"#utility.yul\":334:411   */\n  swap2\n  swap1\n  pop\n  jump\t// out\n    /* \"#utility.yul\":417:539   */\ntag_14:\n    /* \"#utility.yul\":490:514   */\n  tag_22\n    /* \"#utility.yul\":508:513   */\n  dup2\n    /* \"#utility.yul\":490:514   */\n  tag_13\n  jump\t// in\ntag_22:\n    /* \"#utility.yul\":483:488   */\n  dup2\n    /* \"#utility.yul\":480:515   */\n  eq\n    /* \"#utility.yul\":470:533   */\n  tag_23\n  jumpi\n    /* \"#utility.yul\":529:530   */\n  0x00\n    /* \"#utility.yul\":526:527   */\n  dup1\n    /* \"#utility.yul\":519:531   */\n  revert\n    /* \"#utility.yul\":470:533   */\ntag_23:\n    /* \"#utility.yul\":417:539   */\n  pop\n  jump\t// out\n    /* \"#utility.yul\":545:688   */\ntag_15:\n    /* \"#utility.yul\":602:607   */\n  0x00\n    /* \"#utility.yul\":633:639   */\n  dup2\n    /* \"#utility.yul\":627:640   */\n  mload\n    /* \"#utility.yul\":618:640   */\n  swap1\n  pop\n    /* \"#utility.yul\":649:682   */\n  tag_25\n    /* \"#utility.yul\":676:681   */\n  dup2\n    /* \"#utility.yul\":649:682   */\n  tag_14\n  jump\t// in\ntag_25:\n    /* \"#utility.yul\":545:688   */\n  swap3\n  swap2\n  pop\n  pop\n  jump\t// out\n    /* \"#utility.yul\":694:1045   */\ntag_3:\n    /* \"#utility.yul\":764:770   */\n  0x00\n    /* \"#utility.yul\":813:815   */\n  0x20\n    /* \"#utility.yul\":801:810   */\n  dup3\n    /* \"#utility.yul\":792:799   */\n  dup5\n    /* \"#utility.yul\":788:811   */\n  sub\n    /* \"#utility.yul\":784:816   */\n  slt\n    /* \"#utility.yul\":781:900   */\n  iszero\n  tag_27\n  jumpi\n    /* \"#utility.yul\":819:898   */\n  tag_28\n  tag_11\n  jump\t// in\ntag_28:\n    /* \"#utility.yul\":781:900   */\ntag_27:\n    /* \"#utility.yul\":939:940   */\n  0x00\n    /* \"#utility.yul\":964:1028   */\n  tag_29\n    /* \"#utility.yul\":1020:1027   */\n  dup5\n    /* \"#utility.yul\":1011:1017   */\n  dup3\n    /* \"#utility.yul\":1000:1009   */\n  dup6\n    /* \"#utility.yul\":996:1018   */\n  add\n    /* \"#utility.yul\":964:1028   */\n  tag_15\n  jump\t// in\ntag_29:\n    /* \"#utility.yul\":954:1028   */\n  swap2\n  pop\n    /* \"#utility.yul\":910:1038   */\n  pop\n    /* \"#utility.yul\":694:1045   */\n  swap3\n  swap2\n  pop\n  pop\n  jump\t// out\n    /* \"#utility.yul\":1051:1231   */\ntag_8:\n    /* \"#utility.yul\":1099:1176   */\n  0x4e487b7100000000000000000000000000000000000000000000000000000000\n    /* \"#utility.yul\":1096:1097   */\n  0x00\n    /* \"#utility.yul\":1089:1177   */\n  mstore\n    /* \"#utility.yul\":1196:1200   */\n  0x21\n    /* \"#utility.yul\":1193:1194   */\n  0x04\n    /* \"#utility.yul\":1186:1201   */\n  mstore\n    /* \"#utility.yul\":1220:1224   */\n  0x24\n    /* \"#utility.yul\":1217:1218   */\n  0x00\n    /* \"#utility.yul\":1210:1225   */\n  revert\n    /* \"contracts/5_ContratVente.sol\":69:1440  contract ContratVente {... */\ntag_9:\n  dataSize(sub_0)\n  dup1\n  dataOffset(sub_0)\n  0x00\n  codecopy\n  0x00\n  return\nstop\n\nsub_0: assembly {\n        /* \"contracts/5_ContratVente.sol\":69:1440  contract ContratVente {... */\n      mstore(0x40, 0x80)\n      jumpi(tag_1, lt(calldatasize, 0x04))\n      shr(0xe0, calldataload(0x00))\n      dup1\n      0x6dc0e91c\n      gt\n      tag_10\n      jumpi\n      dup1\n      0x6dc0e91c\n      eq\n      tag_6\n      jumpi\n      dup1\n      0x733d5bf2\n      eq\n      tag_7\n      jumpi\n      dup1\n      0xa2287c86\n      eq\n      tag_8\n      jumpi\n      dup1\n      0xc6aa7d5e\n      eq\n      tag_9\n      jumpi\n      jump(tag_1)\n    tag_10:\n      dup1\n      0x0d4faa05\n      eq\n      tag_2\n      jumpi\n      dup1\n      0x373c885b\n      eq\n      tag_3\n      jumpi\n      dup1\n      0x4c97df53\n      eq\n      tag_4\n      jumpi\n      dup1\n      0x6d717513\n      eq\n      tag_5\n      jumpi\n    tag_1:\n      0x00\n      dup1\n      revert\n        /* \"contracts/5_ContratVente.sol\":435:690  function acheter() public payable {... */\n    tag_2:\n      tag_11\n      tag_12\n      jump\t// in\n    tag_11:\n      stop\n        /* \"contracts/5_ContratVente.sol\":164:184  uint256 public _prix */\n    tag_3:\n      callvalue\n      dup1\n      iszero\n      tag_13\n      jumpi\n      0x00\n      dup1\n      revert\n    tag_13:\n      pop\n      tag_14\n      tag_15\n      jump\t// in\n    tag_14:\n      mload(0x40)\n      tag_16\n      swap2\n      swap1\n      tag_17\n      jump\t// in\n    tag_16:\n      mload(0x40)\n      dup1\n      swap2\n      sub\n      swap1\n      return\n        /* \"contracts/5_ContratVente.sol\":134:158  address public _acheteur */\n    tag_4:\n      callvalue\n      dup1\n      iszero\n      tag_18\n      jumpi\n      0x00\n      dup1\n      revert\n    tag_18:\n      pop\n      tag_19\n      tag_20\n      jump\t// in\n    tag_19:\n      mload(0x40)\n      tag_21\n      swap2\n      swap1\n      tag_22\n      jump\t// in\n    tag_21:\n      mload(0x40)\n      dup1\n      swap2\n      sub\n      swap1\n      return\n        /* \"contracts/5_ContratVente.sol\":1359:1438  function getEtat() public view returns (EtatVente) {... */\n    tag_5:\n      callvalue\n      dup1\n      iszero\n      tag_23\n      jumpi\n      0x00\n      dup1\n      revert\n    tag_23:\n      pop\n      tag_24\n      tag_25\n      jump\t// in\n    tag_24:\n      mload(0x40)\n      tag_26\n      swap2\n      swap1\n      tag_27\n      jump\t// in\n    tag_26:\n      mload(0x40)\n      dup1\n      swap2\n      sub\n      swap1\n      return\n        /* \"contracts/5_ContratVente.sol\":699:986  function confirmerLivraison() public {... */\n    tag_6:\n      callvalue\n      dup1\n      iszero\n      tag_28\n      jumpi\n      0x00\n      dup1\n      revert\n    tag_28:\n      pop\n      tag_29\n      tag_30\n      jump\t// in\n    tag_29:\n      stop\n        /* \"contracts/5_ContratVente.sol\":97:128  address payable public _vendeur */\n    tag_7:\n      callvalue\n      dup1\n      iszero\n      tag_31\n      jumpi\n      0x00\n      dup1\n      revert\n    tag_31:\n      pop\n      tag_32\n      tag_33\n      jump\t// in\n    tag_32:\n      mload(0x40)\n      tag_34\n      swap2\n      swap1\n      tag_35\n      jump\t// in\n    tag_34:\n      mload(0x40)\n      dup1\n      swap2\n      sub\n      swap1\n      return\n        /* \"contracts/5_ContratVente.sol\":249:270  EtatVente public etat */\n    tag_8:\n      callvalue\n      dup1\n      iszero\n      tag_36\n      jumpi\n      0x00\n      dup1\n      revert\n    tag_36:\n      pop\n      tag_37\n      tag_38\n      jump\t// in\n    tag_37:\n      mload(0x40)\n      tag_39\n      swap2\n      swap1\n      tag_27\n      jump\t// in\n    tag_39:\n      mload(0x40)\n      dup1\n      swap2\n      sub\n      swap1\n      return\n        /* \"contracts/5_ContratVente.sol\":996:1344  function rembourserAcheteur() public {... */\n    tag_9:\n      callvalue\n      dup1\n      iszero\n      tag_40\n      jumpi\n      0x00\n      dup1\n      revert\n    tag_40:\n      pop\n      tag_41\n      tag_42\n      jump\t// in\n    tag_41:\n      stop\n        /* \"contracts/5_ContratVente.sol\":435:690  function acheter() public payable {... */\n    tag_12:\n        /* \"contracts/5_ContratVente.sol\":495:515  EtatVente.Disponible */\n      0x00\n        /* \"contracts/5_ContratVente.sol\":487:515  etat == EtatVente.Disponible */\n      0x02\n      dup2\n      gt\n      iszero\n      tag_44\n      jumpi\n      tag_45\n      tag_46\n      jump\t// in\n    tag_45:\n    tag_44:\n        /* \"contracts/5_ContratVente.sol\":487:491  etat */\n      0x03\n      0x00\n      swap1\n      sload\n      swap1\n      0x0100\n      exp\n      swap1\n      div\n      0xff\n      and\n        /* \"contracts/5_ContratVente.sol\":487:515  etat == EtatVente.Disponible */\n      0x02\n      dup2\n      gt\n      iszero\n      tag_47\n      jumpi\n      tag_48\n      tag_46\n      jump\t// in\n    tag_48:\n    tag_47:\n      eq\n        /* \"contracts/5_ContratVente.sol\":479:550  require(etat == EtatVente.Disponible, \"L'article n'est pas disponible\") */\n      tag_49\n      jumpi\n      mload(0x40)\n      0x08c379a000000000000000000000000000000000000000000000000000000000\n      dup2\n      mstore\n      0x04\n      add\n      tag_50\n      swap1\n      tag_51\n      jump\t// in\n    tag_50:\n      mload(0x40)\n      dup1\n      swap2\n      sub\n      swap1\n      revert\n    tag_49:\n        /* \"contracts/5_ContratVente.sol\":581:586  _prix */\n      sload(0x02)\n        /* \"contracts/5_ContratVente.sol\":568:577  msg.value */\n      callvalue\n        /* \"contracts/5_ContratVente.sol\":568:586  msg.value == _prix */\n      eq\n        /* \"contracts/5_ContratVente.sol\":560:611  require(msg.value == _prix, \"Montant exact requis\") */\n      tag_52\n      jumpi\n      mload(0x40)\n      0x08c379a000000000000000000000000000000000000000000000000000000000\n      dup2\n      mstore\n      0x04\n      add\n      tag_53\n      swap1\n      tag_54\n      jump\t// in\n    tag_53:\n      mload(0x40)\n      dup1\n      swap2\n      sub\n      swap1\n      revert\n    tag_52:\n        /* \"contracts/5_ContratVente.sol\":642:652  msg.sender */\n      caller\n        /* \"contracts/5_ContratVente.sol\":630:639  _acheteur */\n      0x01\n      0x00\n        /* \"contracts/5_ContratVente.sol\":630:652  _acheteur = msg.sender */\n      0x0100\n      exp\n      dup2\n      sload\n      dup2\n      0xffffffffffffffffffffffffffffffffffffffff\n      mul\n      not\n      and\n      swap1\n      dup4\n      0xffffffffffffffffffffffffffffffffffffffff\n      and\n      mul\n      or\n      swap1\n      sstore\n      pop\n        /* \"contracts/5_ContratVente.sol\":669:683  EtatVente.Paye */\n      0x01\n        /* \"contracts/5_ContratVente.sol\":662:666  etat */\n      0x03\n      0x00\n        /* \"contracts/5_ContratVente.sol\":662:683  etat = EtatVente.Paye */\n      0x0100\n      exp\n      dup2\n      sload\n      dup2\n      0xff\n      mul\n      not\n      and\n      swap1\n      dup4\n      0x02\n      dup2\n      gt\n      iszero\n      tag_55\n      jumpi\n      tag_56\n      tag_46\n      jump\t// in\n    tag_56:\n    tag_55:\n      mul\n      or\n      swap1\n      sstore\n      pop\n        /* \"contracts/5_ContratVente.sol\":435:690  function acheter() public payable {... */\n      jump\t// out\n        /* \"contracts/5_ContratVente.sol\":164:184  uint256 public _prix */\n    tag_15:\n      sload(0x02)\n      dup2\n      jump\t// out\n        /* \"contracts/5_ContratVente.sol\":134:158  address public _acheteur */\n    tag_20:\n      0x01\n      0x00\n      swap1\n      sload\n      swap1\n      0x0100\n      exp\n      swap1\n      div\n      0xffffffffffffffffffffffffffffffffffffffff\n      and\n      dup2\n      jump\t// out\n        /* \"contracts/5_ContratVente.sol\":1359:1438  function getEtat() public view returns (EtatVente) {... */\n    tag_25:\n        /* \"contracts/5_ContratVente.sol\":1399:1408  EtatVente */\n      0x00\n        /* \"contracts/5_ContratVente.sol\":1427:1431  etat */\n      0x03\n      0x00\n      swap1\n      sload\n      swap1\n      0x0100\n      exp\n      swap1\n      div\n      0xff\n      and\n        /* \"contracts/5_ContratVente.sol\":1420:1431  return etat */\n      swap1\n      pop\n        /* \"contracts/5_ContratVente.sol\":1359:1438  function getEtat() public view returns (EtatVente) {... */\n      swap1\n      jump\t// out\n        /* \"contracts/5_ContratVente.sol\":699:986  function confirmerLivraison() public {... */\n    tag_30:\n        /* \"contracts/5_ContratVente.sol\":768:776  _vendeur */\n      0x00\n      dup1\n      sload\n      swap1\n      0x0100\n      exp\n      swap1\n      div\n      0xffffffffffffffffffffffffffffffffffffffff\n      and\n        /* \"contracts/5_ContratVente.sol\":754:776  msg.sender == _vendeur */\n      0xffffffffffffffffffffffffffffffffffffffff\n      and\n        /* \"contracts/5_ContratVente.sol\":754:764  msg.sender */\n      caller\n        /* \"contracts/5_ContratVente.sol\":754:776  msg.sender == _vendeur */\n      0xffffffffffffffffffffffffffffffffffffffff\n      and\n      eq\n        /* \"contracts/5_ContratVente.sol\":746:811  require(msg.sender == _vendeur, \"Seul le vendeur peut confirmer\") */\n      tag_59\n      jumpi\n      mload(0x40)\n      0x08c379a000000000000000000000000000000000000000000000000000000000\n      dup2\n      mstore\n      0x04\n      add\n      tag_60\n      swap1\n      tag_61\n      jump\t// in\n    tag_60:\n      mload(0x40)\n      dup1\n      swap2\n      sub\n      swap1\n      revert\n    tag_59:\n        /* \"contracts/5_ContratVente.sol\":837:851  EtatVente.Paye */\n      0x01\n        /* \"contracts/5_ContratVente.sol\":829:851  etat == EtatVente.Paye */\n      0x02\n      dup2\n      gt\n      iszero\n      tag_62\n      jumpi\n      tag_63\n      tag_46\n      jump\t// in\n    tag_63:\n    tag_62:\n        /* \"contracts/5_ContratVente.sol\":829:833  etat */\n      0x03\n      0x00\n      swap1\n      sload\n      swap1\n      0x0100\n      exp\n      swap1\n      div\n      0xff\n      and\n        /* \"contracts/5_ContratVente.sol\":829:851  etat == EtatVente.Paye */\n      0x02\n      dup2\n      gt\n      iszero\n      tag_64\n      jumpi\n      tag_65\n      tag_46\n      jump\t// in\n    tag_65:\n    tag_64:\n      eq\n        /* \"contracts/5_ContratVente.sol\":821:888  require(etat == EtatVente.Paye, \"L'article doit etre paye d'abord\") */\n      tag_66\n      jumpi\n      mload(0x40)\n      0x08c379a000000000000000000000000000000000000000000000000000000000\n      dup2\n      mstore\n      0x04\n      add\n      tag_67\n      swap1\n      tag_68\n      jump\t// in\n    tag_67:\n      mload(0x40)\n      dup1\n      swap2\n      sub\n      swap1\n      revert\n    tag_66:\n        /* \"contracts/5_ContratVente.sol\":914:929  EtatVente.Livre */\n      0x02\n        /* \"contracts/5_ContratVente.sol\":907:911  etat */\n      0x03\n      0x00\n        /* \"contracts/5_ContratVente.sol\":907:929  etat = EtatVente.Livre */\n      0x0100\n      exp\n      dup2\n      sload\n      dup2\n      0xff\n      mul\n      not\n      and\n      swap1\n      dup4\n      0x02\n      dup2\n      gt\n      iszero\n      tag_69\n      jumpi\n      tag_70\n      tag_46\n      jump\t// in\n    tag_70:\n    tag_69:\n      mul\n      or\n      swap1\n      sstore\n      pop\n        /* \"contracts/5_ContratVente.sol\":939:947  _vendeur */\n      0x00\n      dup1\n      sload\n      swap1\n      0x0100\n      exp\n      swap1\n      div\n      0xffffffffffffffffffffffffffffffffffffffff\n      and\n        /* \"contracts/5_ContratVente.sol\":939:956  _vendeur.transfer */\n      0xffffffffffffffffffffffffffffffffffffffff\n      and\n        /* \"contracts/5_ContratVente.sol\":939:979  _vendeur.transfer(address(this).balance) */\n      0x08fc\n        /* \"contracts/5_ContratVente.sol\":957:978  address(this).balance */\n      selfbalance\n        /* \"contracts/5_ContratVente.sol\":939:979  _vendeur.transfer(address(this).balance) */\n      swap1\n      dup2\n      iszero\n      mul\n      swap1\n      mload(0x40)\n      0x00\n      mload(0x40)\n      dup1\n      dup4\n      sub\n      dup2\n      dup6\n      dup9\n      dup9\n      call\n      swap4\n      pop\n      pop\n      pop\n      pop\n      iszero\n      dup1\n      iszero\n      tag_72\n      jumpi\n      returndatasize\n      0x00\n      dup1\n      returndatacopy\n      revert(0x00, returndatasize)\n    tag_72:\n      pop\n        /* \"contracts/5_ContratVente.sol\":699:986  function confirmerLivraison() public {... */\n      jump\t// out\n        /* \"contracts/5_ContratVente.sol\":97:128  address payable public _vendeur */\n    tag_33:\n      0x00\n      dup1\n      sload\n      swap1\n      0x0100\n      exp\n      swap1\n      div\n      0xffffffffffffffffffffffffffffffffffffffff\n      and\n      dup2\n      jump\t// out\n        /* \"contracts/5_ContratVente.sol\":249:270  EtatVente public etat */\n    tag_38:\n      0x03\n      0x00\n      swap1\n      sload\n      swap1\n      0x0100\n      exp\n      swap1\n      div\n      0xff\n      and\n      dup2\n      jump\t// out\n        /* \"contracts/5_ContratVente.sol\":996:1344  function rembourserAcheteur() public {... */\n    tag_42:\n        /* \"contracts/5_ContratVente.sol\":1065:1073  _vendeur */\n      0x00\n      dup1\n      sload\n      swap1\n      0x0100\n      exp\n      swap1\n      div\n      0xffffffffffffffffffffffffffffffffffffffff\n      and\n        /* \"contracts/5_ContratVente.sol\":1051:1073  msg.sender == _vendeur */\n      0xffffffffffffffffffffffffffffffffffffffff\n      and\n        /* \"contracts/5_ContratVente.sol\":1051:1061  msg.sender */\n      caller\n        /* \"contracts/5_ContratVente.sol\":1051:1073  msg.sender == _vendeur */\n      0xffffffffffffffffffffffffffffffffffffffff\n      and\n      eq\n        /* \"contracts/5_ContratVente.sol\":1043:1109  require(msg.sender == _vendeur, \"Seul le vendeur peut rembourser\") */\n      tag_74\n      jumpi\n      mload(0x40)\n      0x08c379a000000000000000000000000000000000000000000000000000000000\n      dup2\n      mstore\n      0x04\n      add\n      tag_75\n      swap1\n      tag_76\n      jump\t// in\n    tag_75:\n      mload(0x40)\n      dup1\n      swap2\n      sub\n      swap1\n      revert\n    tag_74:\n        /* \"contracts/5_ContratVente.sol\":1135:1149  EtatVente.Paye */\n      0x01\n        /* \"contracts/5_ContratVente.sol\":1127:1149  etat == EtatVente.Paye */\n      0x02\n      dup2\n      gt\n      iszero\n      tag_77\n      jumpi\n      tag_78\n      tag_46\n      jump\t// in\n    tag_78:\n    tag_77:\n        /* \"contracts/5_ContratVente.sol\":1127:1131  etat */\n      0x03\n      0x00\n      swap1\n      sload\n      swap1\n      0x0100\n      exp\n      swap1\n      div\n      0xff\n      and\n        /* \"contracts/5_ContratVente.sol\":1127:1149  etat == EtatVente.Paye */\n      0x02\n      dup2\n      gt\n      iszero\n      tag_79\n      jumpi\n      tag_80\n      tag_46\n      jump\t// in\n    tag_80:\n    tag_79:\n      eq\n        /* \"contracts/5_ContratVente.sol\":1119:1197  require(etat == EtatVente.Paye, \"L'article doit etre paye pour remboursement\") */\n      tag_81\n      jumpi\n      mload(0x40)\n      0x08c379a000000000000000000000000000000000000000000000000000000000\n      dup2\n      mstore\n      0x04\n      add\n      tag_82\n      swap1\n      tag_83\n      jump\t// in\n    tag_82:\n      mload(0x40)\n      dup1\n      swap2\n      sub\n      swap1\n      revert\n    tag_81:\n        /* \"contracts/5_ContratVente.sol\":1224:1233  _acheteur */\n      0x01\n      0x00\n      swap1\n      sload\n      swap1\n      0x0100\n      exp\n      swap1\n      div\n      0xffffffffffffffffffffffffffffffffffffffff\n      and\n        /* \"contracts/5_ContratVente.sol\":1216:1243  payable(_acheteur).transfer */\n      0xffffffffffffffffffffffffffffffffffffffff\n      and\n        /* \"contracts/5_ContratVente.sol\":1216:1266  payable(_acheteur).transfer(address(this).balance) */\n      0x08fc\n        /* \"contracts/5_ContratVente.sol\":1244:1265  address(this).balance */\n      selfbalance\n        /* \"contracts/5_ContratVente.sol\":1216:1266  payable(_acheteur).transfer(address(this).balance) */\n      swap1\n      dup2\n      iszero\n      mul\n      swap1\n      mload(0x40)\n      0x00\n      mload(0x40)\n      dup1\n      dup4\n      sub\n      dup2\n      dup6\n      dup9\n      dup9\n      call\n      swap4\n      pop\n      pop\n      pop\n      pop\n      iszero\n      dup1\n      iszero\n      tag_85\n      jumpi\n      returndatasize\n      0x00\n      dup1\n      returndatacopy\n      revert(0x00, returndatasize)\n    tag_85:\n      pop\n        /* \"contracts/5_ContratVente.sol\":1283:1303  EtatVente.Disponible */\n      0x00\n        /* \"contracts/5_ContratVente.sol\":1276:1280  etat */\n      0x03\n      0x00\n        /* \"contracts/5_ContratVente.sol\":1276:1303  etat = EtatVente.Disponible */\n      0x0100\n      exp\n      dup2\n      sload\n      dup2\n      0xff\n      mul\n      not\n      and\n      swap1\n      dup4\n      0x02\n      dup2\n      gt\n      iszero\n      tag_86\n      jumpi\n      tag_87\n      tag_46\n      jump\t// in\n    tag_87:\n    tag_86:\n      mul\n      or\n      swap1\n      sstore\n      pop\n        /* \"contracts/5_ContratVente.sol\":1333:1334  0 */\n      0x00\n        /* \"contracts/5_ContratVente.sol\":1313:1322  _acheteur */\n      0x01\n      0x00\n        /* \"contracts/5_ContratVente.sol\":1313:1335  _acheteur = address(0) */\n      0x0100\n      exp\n      dup2\n      sload\n      dup2\n      0xffffffffffffffffffffffffffffffffffffffff\n      mul\n      not\n      and\n      swap1\n      dup4\n      0xffffffffffffffffffffffffffffffffffffffff\n      and\n      mul\n      or\n      swap1\n      sstore\n      pop\n        /* \"contracts/5_ContratVente.sol\":996:1344  function rembourserAcheteur() public {... */\n      jump\t// out\n        /* \"#utility.yul\":7:84   */\n    tag_88:\n        /* \"#utility.yul\":44:51   */\n      0x00\n        /* \"#utility.yul\":73:78   */\n      dup2\n        /* \"#utility.yul\":62:78   */\n      swap1\n      pop\n        /* \"#utility.yul\":7:84   */\n      swap2\n      swap1\n      pop\n      jump\t// out\n        /* \"#utility.yul\":90:208   */\n    tag_89:\n        /* \"#utility.yul\":177:201   */\n      tag_115\n        /* \"#utility.yul\":195:200   */\n      dup2\n        /* \"#utility.yul\":177:201   */\n      tag_88\n      jump\t// in\n    tag_115:\n        /* \"#utility.yul\":172:175   */\n      dup3\n        /* \"#utility.yul\":165:202   */\n      mstore\n        /* \"#utility.yul\":90:208   */\n      pop\n      pop\n      jump\t// out\n        /* \"#utility.yul\":214:436   */\n    tag_17:\n        /* \"#utility.yul\":307:311   */\n      0x00\n        /* \"#utility.yul\":345:347   */\n      0x20\n        /* \"#utility.yul\":334:343   */\n      dup3\n        /* \"#utility.yul\":330:348   */\n      add\n        /* \"#utility.yul\":322:348   */\n      swap1\n      pop\n        /* \"#utility.yul\":358:429   */\n      tag_117\n        /* \"#utility.yul\":426:427   */\n      0x00\n        /* \"#utility.yul\":415:424   */\n      dup4\n        /* \"#utility.yul\":411:428   */\n      add\n        /* \"#utility.yul\":402:408   */\n      dup5\n        /* \"#utility.yul\":358:429   */\n      tag_89\n      jump\t// in\n    tag_117:\n        /* \"#utility.yul\":214:436   */\n      swap3\n      swap2\n      pop\n      pop\n      jump\t// out\n        /* \"#utility.yul\":442:568   */\n    tag_90:\n        /* \"#utility.yul\":479:486   */\n      0x00\n        /* \"#utility.yul\":519:561   */\n      0xffffffffffffffffffffffffffffffffffffffff\n        /* \"#utility.yul\":512:517   */\n      dup3\n        /* \"#utility.yul\":508:562   */\n      and\n        /* \"#utility.yul\":497:562   */\n      swap1\n      pop\n        /* \"#utility.yul\":442:568   */\n      swap2\n      swap1\n      pop\n      jump\t// out\n        /* \"#utility.yul\":574:670   */\n    tag_91:\n        /* \"#utility.yul\":611:618   */\n      0x00\n        /* \"#utility.yul\":640:664   */\n      tag_120\n        /* \"#utility.yul\":658:663   */\n      dup3\n        /* \"#utility.yul\":640:664   */\n      tag_90\n      jump\t// in\n    tag_120:\n        /* \"#utility.yul\":629:664   */\n      swap1\n      pop\n        /* \"#utility.yul\":574:670   */\n      swap2\n      swap1\n      pop\n      jump\t// out\n        /* \"#utility.yul\":676:794   */\n    tag_92:\n        /* \"#utility.yul\":763:787   */\n      tag_122\n        /* \"#utility.yul\":781:786   */\n      dup2\n        /* \"#utility.yul\":763:787   */\n      tag_91\n      jump\t// in\n    tag_122:\n        /* \"#utility.yul\":758:761   */\n      dup3\n        /* \"#utility.yul\":751:788   */\n      mstore\n        /* \"#utility.yul\":676:794   */\n      pop\n      pop\n      jump\t// out\n        /* \"#utility.yul\":800:1022   */\n    tag_22:\n        /* \"#utility.yul\":893:897   */\n      0x00\n        /* \"#utility.yul\":931:933   */\n      0x20\n        /* \"#utility.yul\":920:929   */\n      dup3\n        /* \"#utility.yul\":916:934   */\n      add\n        /* \"#utility.yul\":908:934   */\n      swap1\n      pop\n        /* \"#utility.yul\":944:1015   */\n      tag_124\n        /* \"#utility.yul\":1012:1013   */\n      0x00\n        /* \"#utility.yul\":1001:1010   */\n      dup4\n        /* \"#utility.yul\":997:1014   */\n      add\n        /* \"#utility.yul\":988:994   */\n      dup5\n        /* \"#utility.yul\":944:1015   */\n      tag_92\n      jump\t// in\n    tag_124:\n        /* \"#utility.yul\":800:1022   */\n      swap3\n      swap2\n      pop\n      pop\n      jump\t// out\n        /* \"#utility.yul\":1028:1208   */\n    tag_46:\n        /* \"#utility.yul\":1076:1153   */\n      0x4e487b7100000000000000000000000000000000000000000000000000000000\n        /* \"#utility.yul\":1073:1074   */\n      0x00\n        /* \"#utility.yul\":1066:1154   */\n      mstore\n        /* \"#utility.yul\":1173:1177   */\n      0x21\n        /* \"#utility.yul\":1170:1171   */\n      0x04\n        /* \"#utility.yul\":1163:1178   */\n      mstore\n        /* \"#utility.yul\":1197:1201   */\n      0x24\n        /* \"#utility.yul\":1194:1195   */\n      0x00\n        /* \"#utility.yul\":1187:1202   */\n      revert\n        /* \"#utility.yul\":1214:1331   */\n    tag_93:\n        /* \"#utility.yul\":1299:1300   */\n      0x03\n        /* \"#utility.yul\":1292:1297   */\n      dup2\n        /* \"#utility.yul\":1289:1301   */\n      lt\n        /* \"#utility.yul\":1279:1325   */\n      tag_127\n      jumpi\n        /* \"#utility.yul\":1305:1323   */\n      tag_128\n      tag_46\n      jump\t// in\n    tag_128:\n        /* \"#utility.yul\":1279:1325   */\n    tag_127:\n        /* \"#utility.yul\":1214:1331   */\n      pop\n      jump\t// out\n        /* \"#utility.yul\":1337:1472   */\n    tag_94:\n        /* \"#utility.yul\":1386:1393   */\n      0x00\n        /* \"#utility.yul\":1415:1420   */\n      dup2\n        /* \"#utility.yul\":1404:1420   */\n      swap1\n      pop\n        /* \"#utility.yul\":1421:1466   */\n      tag_130\n        /* \"#utility.yul\":1460:1465   */\n      dup3\n        /* \"#utility.yul\":1421:1466   */\n      tag_93\n      jump\t// in\n    tag_130:\n        /* \"#utility.yul\":1337:1472   */\n      swap2\n      swap1\n      pop\n      jump\t// out\n        /* \"#utility.yul\":1478:1613   */\n    tag_95:\n        /* \"#utility.yul\":1538:1547   */\n      0x00\n        /* \"#utility.yul\":1571:1607   */\n      tag_132\n        /* \"#utility.yul\":1601:1606   */\n      dup3\n        /* \"#utility.yul\":1571:1607   */\n      tag_94\n      jump\t// in\n    tag_132:\n        /* \"#utility.yul\":1558:1607   */\n      swap1\n      pop\n        /* \"#utility.yul\":1478:1613   */\n      swap2\n      swap1\n      pop\n      jump\t// out\n        /* \"#utility.yul\":1619:1770   */\n    tag_96:\n        /* \"#utility.yul\":1716:1763   */\n      tag_134\n        /* \"#utility.yul\":1757:1762   */\n      dup2\n        /* \"#utility.yul\":1716:1763   */\n      tag_95\n      jump\t// in\n    tag_134:\n        /* \"#utility.yul\":1711:1714   */\n      dup3\n        /* \"#utility.yul\":1704:1764   */\n      mstore\n        /* \"#utility.yul\":1619:1770   */\n      pop\n      pop\n      jump\t// out\n        /* \"#utility.yul\":1776:2018   */\n    tag_27:\n        /* \"#utility.yul\":1879:1883   */\n      0x00\n        /* \"#utility.yul\":1917:1919   */\n      0x20\n        /* \"#utility.yul\":1906:1915   */\n      dup3\n        /* \"#utility.yul\":1902:1920   */\n      add\n        /* \"#utility.yul\":1894:1920   */\n      swap1\n      pop\n        /* \"#utility.yul\":1930:2011   */\n      tag_136\n        /* \"#utility.yul\":2008:2009   */\n      0x00\n        /* \"#utility.yul\":1997:2006   */\n      dup4\n        /* \"#utility.yul\":1993:2010   */\n      add\n        /* \"#utility.yul\":1984:1990   */\n      dup5\n        /* \"#utility.yul\":1930:2011   */\n      tag_96\n      jump\t// in\n    tag_136:\n        /* \"#utility.yul\":1776:2018   */\n      swap3\n      swap2\n      pop\n      pop\n      jump\t// out\n        /* \"#utility.yul\":2024:2128   */\n    tag_97:\n        /* \"#utility.yul\":2069:2076   */\n      0x00\n        /* \"#utility.yul\":2098:2122   */\n      tag_138\n        /* \"#utility.yul\":2116:2121   */\n      dup3\n        /* \"#utility.yul\":2098:2122   */\n      tag_90\n      jump\t// in\n    tag_138:\n        /* \"#utility.yul\":2087:2122   */\n      swap1\n      pop\n        /* \"#utility.yul\":2024:2128   */\n      swap2\n      swap1\n      pop\n      jump\t// out\n        /* \"#utility.yul\":2134:2276   */\n    tag_98:\n        /* \"#utility.yul\":2237:2269   */\n      tag_140\n        /* \"#utility.yul\":2263:2268   */\n      dup2\n        /* \"#utility.yul\":2237:2269   */\n      tag_97\n      jump\t// in\n    tag_140:\n        /* \"#utility.yul\":2232:2235   */\n      dup3\n        /* \"#utility.yul\":2225:2270   */\n      mstore\n        /* \"#utility.yul\":2134:2276   */\n      pop\n      pop\n      jump\t// out\n        /* \"#utility.yul\":2282:2536   */\n    tag_35:\n        /* \"#utility.yul\":2391:2395   */\n      0x00\n        /* \"#utility.yul\":2429:2431   */\n      0x20\n        /* \"#utility.yul\":2418:2427   */\n      dup3\n        /* \"#utility.yul\":2414:2432   */\n      add\n        /* \"#utility.yul\":2406:2432   */\n      swap1\n      pop\n        /* \"#utility.yul\":2442:2529   */\n      tag_142\n        /* \"#utility.yul\":2526:2527   */\n      0x00\n        /* \"#utility.yul\":2515:2524   */\n      dup4\n        /* \"#utility.yul\":2511:2528   */\n      add\n        /* \"#utility.yul\":2502:2508   */\n      dup5\n        /* \"#utility.yul\":2442:2529   */\n      tag_98\n      jump\t// in\n    tag_142:\n        /* \"#utility.yul\":2282:2536   */\n      swap3\n      swap2\n      pop\n      pop\n      jump\t// out\n        /* \"#utility.yul\":2542:2711   */\n    tag_99:\n        /* \"#utility.yul\":2626:2637   */\n      0x00\n        /* \"#utility.yul\":2660:2666   */\n      dup3\n        /* \"#utility.yul\":2655:2658   */\n      dup3\n        /* \"#utility.yul\":2648:2667   */\n      mstore\n        /* \"#utility.yul\":2700:2704   */\n      0x20\n        /* \"#utility.yul\":2695:2698   */\n      dup3\n        /* \"#utility.yul\":2691:2705   */\n      add\n        /* \"#utility.yul\":2676:2705   */\n      swap1\n      pop\n        /* \"#utility.yul\":2542:2711   */\n      swap3\n      swap2\n      pop\n      pop\n      jump\t// out\n        /* \"#utility.yul\":2717:2897   */\n    tag_100:\n        /* \"#utility.yul\":2857:2889   */\n      0x4c2761727469636c65206e276573742070617320646973706f6e69626c650000\n        /* \"#utility.yul\":2853:2854   */\n      0x00\n        /* \"#utility.yul\":2845:2851   */\n      dup3\n        /* \"#utility.yul\":2841:2855   */\n      add\n        /* \"#utility.yul\":2834:2890   */\n      mstore\n        /* \"#utility.yul\":2717:2897   */\n      pop\n      jump\t// out\n        /* \"#utility.yul\":2903:3269   */\n    tag_101:\n        /* \"#utility.yul\":3045:3048   */\n      0x00\n        /* \"#utility.yul\":3066:3133   */\n      tag_146\n        /* \"#utility.yul\":3130:3132   */\n      0x1e\n        /* \"#utility.yul\":3125:3128   */\n      dup4\n        /* \"#utility.yul\":3066:3133   */\n      tag_99\n      jump\t// in\n    tag_146:\n        /* \"#utility.yul\":3059:3133   */\n      swap2\n      pop\n        /* \"#utility.yul\":3142:3235   */\n      tag_147\n        /* \"#utility.yul\":3231:3234   */\n      dup3\n        /* \"#utility.yul\":3142:3235   */\n      tag_100\n      jump\t// in\n    tag_147:\n        /* \"#utility.yul\":3260:3262   */\n      0x20\n        /* \"#utility.yul\":3255:3258   */\n      dup3\n        /* \"#utility.yul\":3251:3263   */\n      add\n        /* \"#utility.yul\":3244:3263   */\n      swap1\n      pop\n        /* \"#utility.yul\":2903:3269   */\n      swap2\n      swap1\n      pop\n      jump\t// out\n        /* \"#utility.yul\":3275:3694   */\n    tag_51:\n        /* \"#utility.yul\":3441:3445   */\n      0x00\n        /* \"#utility.yul\":3479:3481   */\n      0x20\n        /* \"#utility.yul\":3468:3477   */\n      dup3\n        /* \"#utility.yul\":3464:3482   */\n      add\n        /* \"#utility.yul\":3456:3482   */\n      swap1\n      pop\n        /* \"#utility.yul\":3528:3537   */\n      dup2\n        /* \"#utility.yul\":3522:3526   */\n      dup2\n        /* \"#utility.yul\":3518:3538   */\n      sub\n        /* \"#utility.yul\":3514:3515   */\n      0x00\n        /* \"#utility.yul\":3503:3512   */\n      dup4\n        /* \"#utility.yul\":3499:3516   */\n      add\n        /* \"#utility.yul\":3492:3539   */\n      mstore\n        /* \"#utility.yul\":3556:3687   */\n      tag_149\n        /* \"#utility.yul\":3682:3686   */\n      dup2\n        /* \"#utility.yul\":3556:3687   */\n      tag_101\n      jump\t// in\n    tag_149:\n        /* \"#utility.yul\":3548:3687   */\n      swap1\n      pop\n        /* \"#utility.yul\":3275:3694   */\n      swap2\n      swap1\n      pop\n      jump\t// out\n        /* \"#utility.yul\":3700:3870   */\n    tag_102:\n        /* \"#utility.yul\":3840:3862   */\n      0x4d6f6e74616e7420657861637420726571756973000000000000000000000000\n        /* \"#utility.yul\":3836:3837   */\n      0x00\n        /* \"#utility.yul\":3828:3834   */\n      dup3\n        /* \"#utility.yul\":3824:3838   */\n      add\n        /* \"#utility.yul\":3817:3863   */\n      mstore\n        /* \"#utility.yul\":3700:3870   */\n      pop\n      jump\t// out\n        /* \"#utility.yul\":3876:4242   */\n    tag_103:\n        /* \"#utility.yul\":4018:4021   */\n      0x00\n        /* \"#utility.yul\":4039:4106   */\n      tag_152\n        /* \"#utility.yul\":4103:4105   */\n      0x14\n        /* \"#utility.yul\":4098:4101   */\n      dup4\n        /* \"#utility.yul\":4039:4106   */\n      tag_99\n      jump\t// in\n    tag_152:\n        /* \"#utility.yul\":4032:4106   */\n      swap2\n      pop\n        /* \"#utility.yul\":4115:4208   */\n      tag_153\n        /* \"#utility.yul\":4204:4207   */\n      dup3\n        /* \"#utility.yul\":4115:4208   */\n      tag_102\n      jump\t// in\n    tag_153:\n        /* \"#utility.yul\":4233:4235   */\n      0x20\n        /* \"#utility.yul\":4228:4231   */\n      dup3\n        /* \"#utility.yul\":4224:4236   */\n      add\n        /* \"#utility.yul\":4217:4236   */\n      swap1\n      pop\n        /* \"#utility.yul\":3876:4242   */\n      swap2\n      swap1\n      pop\n      jump\t// out\n        /* \"#utility.yul\":4248:4667   */\n    tag_54:\n        /* \"#utility.yul\":4414:4418   */\n      0x00\n        /* \"#utility.yul\":4452:4454   */\n      0x20\n        /* \"#utility.yul\":4441:4450   */\n      dup3\n        /* \"#utility.yul\":4437:4455   */\n      add\n        /* \"#utility.yul\":4429:4455   */\n      swap1\n      pop\n        /* \"#utility.yul\":4501:4510   */\n      dup2\n        /* \"#utility.yul\":4495:4499   */\n      dup2\n        /* \"#utility.yul\":4491:4511   */\n      sub\n        /* \"#utility.yul\":4487:4488   */\n      0x00\n        /* \"#utility.yul\":4476:4485   */\n      dup4\n        /* \"#utility.yul\":4472:4489   */\n      add\n        /* \"#utility.yul\":4465:4512   */\n      mstore\n        /* \"#utility.yul\":4529:4660   */\n      tag_155\n        /* \"#utility.yul\":4655:4659   */\n      dup2\n        /* \"#utility.yul\":4529:4660   */\n      tag_103\n      jump\t// in\n    tag_155:\n        /* \"#utility.yul\":4521:4660   */\n      swap1\n      pop\n        /* \"#utility.yul\":4248:4667   */\n      swap2\n      swap1\n      pop\n      jump\t// out\n        /* \"#utility.yul\":4673:4853   */\n    tag_104:\n        /* \"#utility.yul\":4813:4845   */\n      0x5365756c206c652076656e64657572207065757420636f6e6669726d65720000\n        /* \"#utility.yul\":4809:4810   */\n      0x00\n        /* \"#utility.yul\":4801:4807   */\n      dup3\n        /* \"#utility.yul\":4797:4811   */\n      add\n        /* \"#utility.yul\":4790:4846   */\n      mstore\n        /* \"#utility.yul\":4673:4853   */\n      pop\n      jump\t// out\n        /* \"#utility.yul\":4859:5225   */\n    tag_105:\n        /* \"#utility.yul\":5001:5004   */\n      0x00\n        /* \"#utility.yul\":5022:5089   */\n      tag_158\n        /* \"#utility.yul\":5086:5088   */\n      0x1e\n        /* \"#utility.yul\":5081:5084   */\n      dup4\n        /* \"#utility.yul\":5022:5089   */\n      tag_99\n      jump\t// in\n    tag_158:\n        /* \"#utility.yul\":5015:5089   */\n      swap2\n      pop\n        /* \"#utility.yul\":5098:5191   */\n      tag_159\n        /* \"#utility.yul\":5187:5190   */\n      dup3\n        /* \"#utility.yul\":5098:5191   */\n      tag_104\n      jump\t// in\n    tag_159:\n        /* \"#utility.yul\":5216:5218   */\n      0x20\n        /* \"#utility.yul\":5211:5214   */\n      dup3\n        /* \"#utility.yul\":5207:5219   */\n      add\n        /* \"#utility.yul\":5200:5219   */\n      swap1\n      pop\n        /* \"#utility.yul\":4859:5225   */\n      swap2\n      swap1\n      pop\n      jump\t// out\n        /* \"#utility.yul\":5231:5650   */\n    tag_61:\n        /* \"#utility.yul\":5397:5401   */\n      0x00\n        /* \"#utility.yul\":5435:5437   */\n      0x20\n        /* \"#utility.yul\":5424:5433   */\n      dup3\n        /* \"#utility.yul\":5420:5438   */\n      add\n        /* \"#utility.yul\":5412:5438   */\n      swap1\n      pop\n        /* \"#utility.yul\":5484:5493   */\n      dup2\n        /* \"#utility.yul\":5478:5482   */\n      dup2\n        /* \"#utility.yul\":5474:5494   */\n      sub\n        /* \"#utility.yul\":5470:5471   */\n      0x00\n        /* \"#utility.yul\":5459:5468   */\n      dup4\n        /* \"#utility.yul\":5455:5472   */\n      add\n        /* \"#utility.yul\":5448:5495   */\n      mstore\n        /* \"#utility.yul\":5512:5643   */\n      tag_161\n        /* \"#utility.yul\":5638:5642   */\n      dup2\n        /* \"#utility.yul\":5512:5643   */\n      tag_105\n      jump\t// in\n    tag_161:\n        /* \"#utility.yul\":5504:5643   */\n      swap1\n      pop\n        /* \"#utility.yul\":5231:5650   */\n      swap2\n      swap1\n      pop\n      jump\t// out\n        /* \"#utility.yul\":5656:5838   */\n    tag_106:\n        /* \"#utility.yul\":5796:5830   */\n      0x4c2761727469636c6520646f69742065747265207061796520642761626f7264\n        /* \"#utility.yul\":5792:5793   */\n      0x00\n        /* \"#utility.yul\":5784:5790   */\n      dup3\n        /* \"#utility.yul\":5780:5794   */\n      add\n        /* \"#utility.yul\":5773:5831   */\n      mstore\n        /* \"#utility.yul\":5656:5838   */\n      pop\n      jump\t// out\n        /* \"#utility.yul\":5844:6210   */\n    tag_107:\n        /* \"#utility.yul\":5986:5989   */\n      0x00\n        /* \"#utility.yul\":6007:6074   */\n      tag_164\n        /* \"#utility.yul\":6071:6073   */\n      0x20\n        /* \"#utility.yul\":6066:6069   */\n      dup4\n        /* \"#utility.yul\":6007:6074   */\n      tag_99\n      jump\t// in\n    tag_164:\n        /* \"#utility.yul\":6000:6074   */\n      swap2\n      pop\n        /* \"#utility.yul\":6083:6176   */\n      tag_165\n        /* \"#utility.yul\":6172:6175   */\n      dup3\n        /* \"#utility.yul\":6083:6176   */\n      tag_106\n      jump\t// in\n    tag_165:\n        /* \"#utility.yul\":6201:6203   */\n      0x20\n        /* \"#utility.yul\":6196:6199   */\n      dup3\n        /* \"#utility.yul\":6192:6204   */\n      add\n        /* \"#utility.yul\":6185:6204   */\n      swap1\n      pop\n        /* \"#utility.yul\":5844:6210   */\n      swap2\n      swap1\n      pop\n      jump\t// out\n        /* \"#utility.yul\":6216:6635   */\n    tag_68:\n        /* \"#utility.yul\":6382:6386   */\n      0x00\n        /* \"#utility.yul\":6420:6422   */\n      0x20\n        /* \"#utility.yul\":6409:6418   */\n      dup3\n        /* \"#utility.yul\":6405:6423   */\n      add\n        /* \"#utility.yul\":6397:6423   */\n      swap1\n      pop\n        /* \"#utility.yul\":6469:6478   */\n      dup2\n        /* \"#utility.yul\":6463:6467   */\n      dup2\n        /* \"#utility.yul\":6459:6479   */\n      sub\n        /* \"#utility.yul\":6455:6456   */\n      0x00\n        /* \"#utility.yul\":6444:6453   */\n      dup4\n        /* \"#utility.yul\":6440:6457   */\n      add\n        /* \"#utility.yul\":6433:6480   */\n      mstore\n        /* \"#utility.yul\":6497:6628   */\n      tag_167\n        /* \"#utility.yul\":6623:6627   */\n      dup2\n        /* \"#utility.yul\":6497:6628   */\n      tag_107\n      jump\t// in\n    tag_167:\n        /* \"#utility.yul\":6489:6628   */\n      swap1\n      pop\n        /* \"#utility.yul\":6216:6635   */\n      swap2\n      swap1\n      pop\n      jump\t// out\n        /* \"#utility.yul\":6641:6822   */\n    tag_108:\n        /* \"#utility.yul\":6781:6814   */\n      0x5365756c206c652076656e6465757220706575742072656d626f757273657200\n        /* \"#utility.yul\":6777:6778   */\n      0x00\n        /* \"#utility.yul\":6769:6775   */\n      dup3\n        /* \"#utility.yul\":6765:6779   */\n      add\n        /* \"#utility.yul\":6758:6815   */\n      mstore\n        /* \"#utility.yul\":6641:6822   */\n      pop\n      jump\t// out\n        /* \"#utility.yul\":6828:7194   */\n    tag_109:\n        /* \"#utility.yul\":6970:6973   */\n      0x00\n        /* \"#utility.yul\":6991:7058   */\n      tag_170\n        /* \"#utility.yul\":7055:7057   */\n      0x1f\n        /* \"#utility.yul\":7050:7053   */\n      dup4\n        /* \"#utility.yul\":6991:7058   */\n      tag_99\n      jump\t// in\n    tag_170:\n        /* \"#utility.yul\":6984:7058   */\n      swap2\n      pop\n        /* \"#utility.yul\":7067:7160   */\n      tag_171\n        /* \"#utility.yul\":7156:7159   */\n      dup3\n        /* \"#utility.yul\":7067:7160   */\n      tag_108\n      jump\t// in\n    tag_171:\n        /* \"#utility.yul\":7185:7187   */\n      0x20\n        /* \"#utility.yul\":7180:7183   */\n      dup3\n        /* \"#utility.yul\":7176:7188   */\n      add\n        /* \"#utility.yul\":7169:7188   */\n      swap1\n      pop\n        /* \"#utility.yul\":6828:7194   */\n      swap2\n      swap1\n      pop\n      jump\t// out\n        /* \"#utility.yul\":7200:7619   */\n    tag_76:\n        /* \"#utility.yul\":7366:7370   */\n      0x00\n        /* \"#utility.yul\":7404:7406   */\n      0x20\n        /* \"#utility.yul\":7393:7402   */\n      dup3\n        /* \"#utility.yul\":7389:7407   */\n      add\n        /* \"#utility.yul\":7381:7407   */\n      swap1\n      pop\n        /* \"#utility.yul\":7453:7462   */\n      dup2\n        /* \"#utility.yul\":7447:7451   */\n      dup2\n        /* \"#utility.yul\":7443:7463   */\n      sub\n        /* \"#utility.yul\":7439:7440   */\n      0x00\n        /* \"#utility.yul\":7428:7437   */\n      dup4\n        /* \"#utility.yul\":7424:7441   */\n      add\n        /* \"#utility.yul\":7417:7464   */\n      mstore\n        /* \"#utility.yul\":7481:7612   */\n      tag_173\n        /* \"#utility.yul\":7607:7611   */\n      dup2\n        /* \"#utility.yul\":7481:7612   */\n      tag_109\n      jump\t// in\n    tag_173:\n        /* \"#utility.yul\":7473:7612   */\n      swap1\n      pop\n        /* \"#utility.yul\":7200:7619   */\n      swap2\n      swap1\n      pop\n      jump\t// out\n        /* \"#utility.yul\":7625:7855   */\n    tag_110:\n        /* \"#utility.yul\":7765:7799   */\n      0x4c2761727469636c6520646f69742065747265207061796520706f7572207265\n        /* \"#utility.yul\":7761:7762   */\n      0x00\n        /* \"#utility.yul\":7753:7759   */\n      dup3\n        /* \"#utility.yul\":7749:7763   */\n      add\n        /* \"#utility.yul\":7742:7800   */\n      mstore\n        /* \"#utility.yul\":7834:7847   */\n      0x6d626f757273656d656e74000000000000000000000000000000000000000000\n        /* \"#utility.yul\":7829:7831   */\n      0x20\n        /* \"#utility.yul\":7821:7827   */\n      dup3\n        /* \"#utility.yul\":7817:7832   */\n      add\n        /* \"#utility.yul\":7810:7848   */\n      mstore\n        /* \"#utility.yul\":7625:7855   */\n      pop\n      jump\t// out\n        /* \"#utility.yul\":7861:8227   */\n    tag_111:\n        /* \"#utility.yul\":8003:8006   */\n      0x00\n        /* \"#utility.yul\":8024:8091   */\n      tag_176\n        /* \"#utility.yul\":8088:8090   */\n      0x2b\n        /* \"#utility.yul\":8083:8086   */\n      dup4\n        /* \"#utility.yul\":8024:8091   */\n      tag_99\n      jump\t// in\n    tag_176:\n        /* \"#utility.yul\":8017:8091   */\n      swap2\n      pop\n        /* \"#utility.yul\":8100:8193   */\n      tag_177\n        /* \"#utility.yul\":8189:8192   */\n      dup3\n        /* \"#utility.yul\":8100:8193   */\n      tag_110\n      jump\t// in\n    tag_177:\n        /* \"#utility.yul\":8218:8220   */\n      0x40\n        /* \"#utility.yul\":8213:8216   */\n      dup3\n        /* \"#utility.yul\":8209:8221   */\n      add\n        /* \"#utility.yul\":8202:8221   */\n      swap1\n      pop\n        /* \"#utility.yul\":7861:8227   */\n      swap2\n      swap1\n      pop\n      jump\t// out\n        /* \"#utility.yul\":8233:8652   */\n    tag_83:\n        /* \"#utility.yul\":8399:8403   */\n      0x00\n        /* \"#utility.yul\":8437:8439   */\n      0x20\n        /* \"#utility.yul\":8426:8435   */\n      dup3\n        /* \"#utility.yul\":8422:8440   */\n      add\n        /* \"#utility.yul\":8414:8440   */\n      swap1\n      pop\n        /* \"#utility.yul\":8486:8495   */\n      dup2\n        /* \"#utility.yul\":8480:8484   */\n      dup2\n        /* \"#utility.yul\":8476:8496   */\n      sub\n        /* \"#utility.yul\":8472:8473   */\n      0x00\n        /* \"#utility.yul\":8461:8470   */\n      dup4\n        /* \"#utility.yul\":8457:8474   */\n      add\n        /* \"#utility.yul\":8450:8497   */\n      mstore\n        /* \"#utility.yul\":8514:8645   */\n      tag_179\n        /* \"#utility.yul\":8640:8644   */\n      dup2\n        /* \"#utility.yul\":8514:8645   */\n      tag_111\n      jump\t// in\n    tag_179:\n        /* \"#utility.yul\":8506:8645   */\n      swap1\n      pop\n        /* \"#utility.yul\":8233:8652   */\n      swap2\n      swap1\n      pop\n      jump\t// out\n\n    auxdata: 0xa2646970667358221220ffc804a3d74af382174a325e903934e106bd8a0579a125874b8f26c81715ac1f64736f6c634300081a0033\n}\n",
				"bytecode": {
					"linkReferences": {},
					"object": "608060405234801561000f575f80fd5b50604051610bee380380610bee833981810160405281019061003191906100dd565b335f806101000a81548173ffffffffffffffffffffffffffffffffffffffff021916908373ffffffffffffffffffffffffffffffffffffffff160217905550806002819055505f60035f6101000a81548160ff0219169083600281111561009b5761009a610108565b5b021790555050610135565b5f80fd5b5f819050919050565b6100bc816100aa565b81146100c6575f80fd5b50565b5f815190506100d7816100b3565b92915050565b5f602082840312156100f2576100f16100a6565b5b5f6100ff848285016100c9565b91505092915050565b7f4e487b71000000000000000000000000000000000000000000000000000000005f52602160045260245ffd5b610aac806101425f395ff3fe60806040526004361061007a575f3560e01c80636dc0e91c1161004d5780636dc0e91c14610106578063733d5bf21461011c578063a2287c8614610146578063c6aa7d5e146101705761007a565b80630d4faa051461007e578063373c885b146100885780634c97df53146100b25780636d717513146100dc575b5f80fd5b610086610186565b005b348015610093575f80fd5b5061009c6102aa565b6040516100a9919061069a565b60405180910390f35b3480156100bd575f80fd5b506100c66102b0565b6040516100d391906106f2565b60405180910390f35b3480156100e7575f80fd5b506100f06102d5565b6040516100fd919061077e565b60405180910390f35b348015610111575f80fd5b5061011a6102ea565b005b348015610127575f80fd5b5061013061047b565b60405161013d91906107b7565b60405180910390f35b348015610151575f80fd5b5061015a61049e565b604051610167919061077e565b60405180910390f35b34801561017b575f80fd5b506101846104b0565b005b5f60028111156101995761019861070b565b5b60035f9054906101000a900460ff1660028111156101ba576101b961070b565b5b146101fa576040517f08c379a00000000000000000000000000000000000000000000000000000000081526004016101f19061082a565b60405180910390fd5b600254341461023e576040517f08c379a000000000000000000000000000000000000000000000000000000000815260040161023590610892565b60405180910390fd5b3360015f6101000a81548173ffffffffffffffffffffffffffffffffffffffff021916908373ffffffffffffffffffffffffffffffffffffffff160217905550600160035f6101000a81548160ff021916908360028111156102a3576102a261070b565b5b0217905550565b60025481565b60015f9054906101000a900473ffffffffffffffffffffffffffffffffffffffff1681565b5f60035f9054906101000a900460ff16905090565b5f8054906101000a900473ffffffffffffffffffffffffffffffffffffffff1673ffffffffffffffffffffffffffffffffffffffff163373ffffffffffffffffffffffffffffffffffffffff1614610377576040517f08c379a000000000000000000000000000000000000000000000000000000000815260040161036e906108fa565b60405180910390fd5b6001600281111561038b5761038a61070b565b5b60035f9054906101000a900460ff1660028111156103ac576103ab61070b565b5b146103ec576040517f08c379a00000000000000000000000000000000000000000000000000000000081526004016103e390610962565b60405180910390fd5b600260035f6101000a81548160ff021916908360028111156104115761041061070b565b5b02179055505f8054906101000a900473ffffffffffffffffffffffffffffffffffffffff1673ffffffffffffffffffffffffffffffffffffffff166108fc4790811502906040515f60405180830381858888f19350505050158015610478573d5f803e3d5ffd5b50565b5f8054906101000a900473ffffffffffffffffffffffffffffffffffffffff1681565b60035f9054906101000a900460ff1681565b5f8054906101000a900473ffffffffffffffffffffffffffffffffffffffff1673ffffffffffffffffffffffffffffffffffffffff163373ffffffffffffffffffffffffffffffffffffffff161461053d576040517f08c379a0000000000000000000000000000000000000000000000000000000008152600401610534906109ca565b60405180910390fd5b600160028111156105515761055061070b565b5b60035f9054906101000a900460ff1660028111156105725761057161070b565b5b146105b2576040517f08c379a00000000000000000000000000000000000000000000000000000000081526004016105a990610a58565b60405180910390fd5b60015f9054906101000a900473ffffffffffffffffffffffffffffffffffffffff1673ffffffffffffffffffffffffffffffffffffffff166108fc4790811502906040515f60405180830381858888f19350505050158015610616573d5f803e3d5ffd5b505f60035f6101000a81548160ff0219169083600281111561063b5761063a61070b565b5b02179055505f60015f6101000a81548173ffffffffffffffffffffffffffffffffffffffff021916908373ffffffffffffffffffffffffffffffffffffffff160217905550565b5f819050919050565b61069481610682565b82525050565b5f6020820190506106ad5f83018461068b565b92915050565b5f73ffffffffffffffffffffffffffffffffffffffff82169050919050565b5f6106dc826106b3565b9050919050565b6106ec816106d2565b82525050565b5f6020820190506107055f8301846106e3565b92915050565b7f4e487b71000000000000000000000000000000000000000000000000000000005f52602160045260245ffd5b600381106107495761074861070b565b5b50565b5f81905061075982610738565b919050565b5f6107688261074c565b9050919050565b6107788161075e565b82525050565b5f6020820190506107915f83018461076f565b92915050565b5f6107a1826106b3565b9050919050565b6107b181610797565b82525050565b5f6020820190506107ca5f8301846107a8565b92915050565b5f82825260208201905092915050565b7f4c2761727469636c65206e276573742070617320646973706f6e69626c6500005f82015250565b5f610814601e836107d0565b915061081f826107e0565b602082019050919050565b5f6020820190508181035f83015261084181610808565b9050919050565b7f4d6f6e74616e74206578616374207265717569730000000000000000000000005f82015250565b5f61087c6014836107d0565b915061088782610848565b602082019050919050565b5f6020820190508181035f8301526108a981610870565b9050919050565b7f5365756c206c652076656e64657572207065757420636f6e6669726d657200005f82015250565b5f6108e4601e836107d0565b91506108ef826108b0565b602082019050919050565b5f6020820190508181035f830152610911816108d8565b9050919050565b7f4c2761727469636c6520646f69742065747265207061796520642761626f72645f82015250565b5f61094c6020836107d0565b915061095782610918565b602082019050919050565b5f6020820190508181035f83015261097981610940565b9050919050565b7f5365756c206c652076656e6465757220706575742072656d626f7572736572005f82015250565b5f6109b4601f836107d0565b91506109bf82610980565b602082019050919050565b5f6020820190508181035f8301526109e1816109a8565b9050919050565b7f4c2761727469636c6520646f69742065747265207061796520706f75722072655f8201527f6d626f757273656d656e74000000000000000000000000000000000000000000602082015250565b5f610a42602b836107d0565b9150610a4d826109e8565b604082019050919050565b5f6020820190508181035f830152610a6f81610a36565b905091905056fea2646970667358221220ffc804a3d74af382174a325e903934e106bd8a0579a125874b8f26c81715ac1f64736f6c634300081a0033",
					"opcodes": "PUSH1 0x80 PUSH1 0x40 MSTORE CALLVALUE DUP1 ISZERO PUSH2 0xF JUMPI PUSH0 DUP1 REVERT JUMPDEST POP PUSH1 0x40 MLOAD PUSH2 0xBEE CODESIZE SUB DUP1 PUSH2 0xBEE DUP4 CODECOPY DUP2 DUP2 ADD PUSH1 0x40 MSTORE DUP2 ADD SWAP1 PUSH2 0x31 SWAP2 SWAP1 PUSH2 0xDD JUMP JUMPDEST CALLER PUSH0 DUP1 PUSH2 0x100 EXP DUP2 SLOAD DUP2 PUSH20 0xFFFFFFFFFFFFFFFFFFFFFFFFFFFFFFFFFFFFFFFF MUL NOT AND SWAP1 DUP4 PUSH20 0xFFFFFFFFFFFFFFFFFFFFFFFFFFFFFFFFFFFFFFFF AND MUL OR SWAP1 SSTORE POP DUP1 PUSH1 0x2 DUP2 SWAP1 SSTORE POP PUSH0 PUSH1 0x3 PUSH0 PUSH2 0x100 EXP DUP2 SLOAD DUP2 PUSH1 0xFF MUL NOT AND SWAP1 DUP4 PUSH1 0x2 DUP2 GT ISZERO PUSH2 0x9B JUMPI PUSH2 0x9A PUSH2 0x108 JUMP JUMPDEST JUMPDEST MUL OR SWAP1 SSTORE POP POP PUSH2 0x135 JUMP JUMPDEST PUSH0 DUP1 REVERT JUMPDEST PUSH0 DUP2 SWAP1 POP SWAP2 SWAP1 POP JUMP JUMPDEST PUSH2 0xBC DUP2 PUSH2 0xAA JUMP JUMPDEST DUP2 EQ PUSH2 0xC6 JUMPI PUSH0 DUP1 REVERT JUMPDEST POP JUMP JUMPDEST PUSH0 DUP2 MLOAD SWAP1 POP PUSH2 0xD7 DUP2 PUSH2 0xB3 JUMP JUMPDEST SWAP3 SWAP2 POP POP JUMP JUMPDEST PUSH0 PUSH1 0x20 DUP3 DUP5 SUB SLT ISZERO PUSH2 0xF2 JUMPI PUSH2 0xF1 PUSH2 0xA6 JUMP JUMPDEST JUMPDEST PUSH0 PUSH2 0xFF DUP5 DUP3 DUP6 ADD PUSH2 0xC9 JUMP JUMPDEST SWAP2 POP POP SWAP3 SWAP2 POP POP JUMP JUMPDEST PUSH32 0x4E487B7100000000000000000000000000000000000000000000000000000000 PUSH0 MSTORE PUSH1 0x21 PUSH1 0x4 MSTORE PUSH1 0x24 PUSH0 REVERT JUMPDEST PUSH2 0xAAC DUP1 PUSH2 0x142 PUSH0 CODECOPY PUSH0 RETURN INVALID PUSH1 0x80 PUSH1 0x40 MSTORE PUSH1 0x4 CALLDATASIZE LT PUSH2 0x7A JUMPI PUSH0 CALLDATALOAD PUSH1 0xE0 SHR DUP1 PUSH4 0x6DC0E91C GT PUSH2 0x4D JUMPI DUP1 PUSH4 0x6DC0E91C EQ PUSH2 0x106 JUMPI DUP1 PUSH4 0x733D5BF2 EQ PUSH2 0x11C JUMPI DUP1 PUSH4 0xA2287C86 EQ PUSH2 0x146 JUMPI DUP1 PUSH4 0xC6AA7D5E EQ PUSH2 0x170 JUMPI PUSH2 0x7A JUMP JUMPDEST DUP1 PUSH4 0xD4FAA05 EQ PUSH2 0x7E JUMPI DUP1 PUSH4 0x373C885B EQ PUSH2 0x88 JUMPI DUP1 PUSH4 0x4C97DF53 EQ PUSH2 0xB2 JUMPI DUP1 PUSH4 0x6D717513 EQ PUSH2 0xDC JUMPI JUMPDEST PUSH0 DUP1 REVERT JUMPDEST PUSH2 0x86 PUSH2 0x186 JUMP JUMPDEST STOP JUMPDEST CALLVALUE DUP1 ISZERO PUSH2 0x93 JUMPI PUSH0 DUP1 REVERT JUMPDEST POP PUSH2 0x9C PUSH2 0x2AA JUMP JUMPDEST PUSH1 0x40 MLOAD PUSH2 0xA9 SWAP2 SWAP1 PUSH2 0x69A JUMP JUMPDEST PUSH1 0x40 MLOAD DUP1 SWAP2 SUB SWAP1 RETURN JUMPDEST CALLVALUE DUP1 ISZERO PUSH2 0xBD JUMPI PUSH0 DUP1 REVERT JUMPDEST POP PUSH2 0xC6 PUSH2 0x2B0 JUMP JUMPDEST PUSH1 0x40 MLOAD PUSH2 0xD3 SWAP2 SWAP1 PUSH2 0x6F2 JUMP JUMPDEST PUSH1 0x40 MLOAD DUP1 SWAP2 SUB SWAP1 RETURN JUMPDEST CALLVALUE DUP1 ISZERO PUSH2 0xE7 JUMPI PUSH0 DUP1 REVERT JUMPDEST POP PUSH2 0xF0 PUSH2 0x2D5 JUMP JUMPDEST PUSH1 0x40 MLOAD PUSH2 0xFD SWAP2 SWAP1 PUSH2 0x77E JUMP JUMPDEST PUSH1 0x40 MLOAD DUP1 SWAP2 SUB SWAP1 RETURN JUMPDEST CALLVALUE DUP1 ISZERO PUSH2 0x111 JUMPI PUSH0 DUP1 REVERT JUMPDEST POP PUSH2 0x11A PUSH2 0x2EA JUMP JUMPDEST STOP JUMPDEST CALLVALUE DUP1 ISZERO PUSH2 0x127 JUMPI PUSH0 DUP1 REVERT JUMPDEST POP PUSH2 0x130 PUSH2 0x47B JUMP JUMPDEST PUSH1 0x40 MLOAD PUSH2 0x13D SWAP2 SWAP1 PUSH2 0x7B7 JUMP JUMPDEST PUSH1 0x40 MLOAD DUP1 SWAP2 SUB SWAP1 RETURN JUMPDEST CALLVALUE DUP1 ISZERO PUSH2 0x151 JUMPI PUSH0 DUP1 REVERT JUMPDEST POP PUSH2 0x15A PUSH2 0x49E JUMP JUMPDEST PUSH1 0x40 MLOAD PUSH2 0x167 SWAP2 SWAP1 PUSH2 0x77E JUMP JUMPDEST PUSH1 0x40 MLOAD DUP1 SWAP2 SUB SWAP1 RETURN JUMPDEST CALLVALUE DUP1 ISZERO PUSH2 0x17B JUMPI PUSH0 DUP1 REVERT JUMPDEST POP PUSH2 0x184 PUSH2 0x4B0 JUMP JUMPDEST STOP JUMPDEST PUSH0 PUSH1 0x2 DUP2 GT ISZERO PUSH2 0x199 JUMPI PUSH2 0x198 PUSH2 0x70B JUMP JUMPDEST JUMPDEST PUSH1 0x3 PUSH0 SWAP1 SLOAD SWAP1 PUSH2 0x100 EXP SWAP1 DIV PUSH1 0xFF AND PUSH1 0x2 DUP2 GT ISZERO PUSH2 0x1BA JUMPI PUSH2 0x1B9 PUSH2 0x70B JUMP JUMPDEST JUMPDEST EQ PUSH2 0x1FA JUMPI PUSH1 0x40 MLOAD PUSH32 0x8C379A000000000000000000000000000000000000000000000000000000000 DUP2 MSTORE PUSH1 0x4 ADD PUSH2 0x1F1 SWAP1 PUSH2 0x82A JUMP JUMPDEST PUSH1 0x40 MLOAD DUP1 SWAP2 SUB SWAP1 REVERT JUMPDEST PUSH1 0x2 SLOAD CALLVALUE EQ PUSH2 0x23E JUMPI PUSH1 0x40 MLOAD PUSH32 0x8C379A000000000000000000000000000000000000000000000000000000000 DUP2 MSTORE PUSH1 0x4 ADD PUSH2 0x235 SWAP1 PUSH2 0x892 JUMP JUMPDEST PUSH1 0x40 MLOAD DUP1 SWAP2 SUB SWAP1 REVERT JUMPDEST CALLER PUSH1 0x1 PUSH0 PUSH2 0x100 EXP DUP2 SLOAD DUP2 PUSH20 0xFFFFFFFFFFFFFFFFFFFFFFFFFFFFFFFFFFFFFFFF MUL NOT AND SWAP1 DUP4 PUSH20 0xFFFFFFFFFFFFFFFFFFFFFFFFFFFFFFFFFFFFFFFF AND MUL OR SWAP1 SSTORE POP PUSH1 0x1 PUSH1 0x3 PUSH0 PUSH2 0x100 EXP DUP2 SLOAD DUP2 PUSH1 0xFF MUL NOT AND SWAP1 DUP4 PUSH1 0x2 DUP2 GT ISZERO PUSH2 0x2A3 JUMPI PUSH2 0x2A2 PUSH2 0x70B JUMP JUMPDEST JUMPDEST MUL OR SWAP1 SSTORE POP JUMP JUMPDEST PUSH1 0x2 SLOAD DUP2 JUMP JUMPDEST PUSH1 0x1 PUSH0 SWAP1 SLOAD SWAP1 PUSH2 0x100 EXP SWAP1 DIV PUSH20 0xFFFFFFFFFFFFFFFFFFFFFFFFFFFFFFFFFFFFFFFF AND DUP2 JUMP JUMPDEST PUSH0 PUSH1 0x3 PUSH0 SWAP1 SLOAD SWAP1 PUSH2 0x100 EXP SWAP1 DIV PUSH1 0xFF AND SWAP1 POP SWAP1 JUMP JUMPDEST PUSH0 DUP1 SLOAD SWAP1 PUSH2 0x100 EXP SWAP1 DIV PUSH20 0xFFFFFFFFFFFFFFFFFFFFFFFFFFFFFFFFFFFFFFFF AND PUSH20 0xFFFFFFFFFFFFFFFFFFFFFFFFFFFFFFFFFFFFFFFF AND CALLER PUSH20 0xFFFFFFFFFFFFFFFFFFFFFFFFFFFFFFFFFFFFFFFF AND EQ PUSH2 0x377 JUMPI PUSH1 0x40 MLOAD PUSH32 0x8C379A000000000000000000000000000000000000000000000000000000000 DUP2 MSTORE PUSH1 0x4 ADD PUSH2 0x36E SWAP1 PUSH2 0x8FA JUMP JUMPDEST PUSH1 0x40 MLOAD DUP1 SWAP2 SUB SWAP1 REVERT JUMPDEST PUSH1 0x1 PUSH1 0x2 DUP2 GT ISZERO PUSH2 0x38B JUMPI PUSH2 0x38A PUSH2 0x70B JUMP JUMPDEST JUMPDEST PUSH1 0x3 PUSH0 SWAP1 SLOAD SWAP1 PUSH2 0x100 EXP SWAP1 DIV PUSH1 0xFF AND PUSH1 0x2 DUP2 GT ISZERO PUSH2 0x3AC JUMPI PUSH2 0x3AB PUSH2 0x70B JUMP JUMPDEST JUMPDEST EQ PUSH2 0x3EC JUMPI PUSH1 0x40 MLOAD PUSH32 0x8C379A000000000000000000000000000000000000000000000000000000000 DUP2 MSTORE PUSH1 0x4 ADD PUSH2 0x3E3 SWAP1 PUSH2 0x962 JUMP JUMPDEST PUSH1 0x40 MLOAD DUP1 SWAP2 SUB SWAP1 REVERT JUMPDEST PUSH1 0x2 PUSH1 0x3 PUSH0 PUSH2 0x100 EXP DUP2 SLOAD DUP2 PUSH1 0xFF MUL NOT AND SWAP1 DUP4 PUSH1 0x2 DUP2 GT ISZERO PUSH2 0x411 JUMPI PUSH2 0x410 PUSH2 0x70B JUMP JUMPDEST JUMPDEST MUL OR SWAP1 SSTORE POP PUSH0 DUP1 SLOAD SWAP1 PUSH2 0x100 EXP SWAP1 DIV PUSH20 0xFFFFFFFFFFFFFFFFFFFFFFFFFFFFFFFFFFFFFFFF AND PUSH20 0xFFFFFFFFFFFFFFFFFFFFFFFFFFFFFFFFFFFFFFFF AND PUSH2 0x8FC SELFBALANCE SWAP1 DUP2 ISZERO MUL SWAP1 PUSH1 0x40 MLOAD PUSH0 PUSH1 0x40 MLOAD DUP1 DUP4 SUB DUP2 DUP6 DUP9 DUP9 CALL SWAP4 POP POP POP POP ISZERO DUP1 ISZERO PUSH2 0x478 JUMPI RETURNDATASIZE PUSH0 DUP1 RETURNDATACOPY RETURNDATASIZE PUSH0 REVERT JUMPDEST POP JUMP JUMPDEST PUSH0 DUP1 SLOAD SWAP1 PUSH2 0x100 EXP SWAP1 DIV PUSH20 0xFFFFFFFFFFFFFFFFFFFFFFFFFFFFFFFFFFFFFFFF AND DUP2 JUMP JUMPDEST PUSH1 0x3 PUSH0 SWAP1 SLOAD SWAP1 PUSH2 0x100 EXP SWAP1 DIV PUSH1 0xFF AND DUP2 JUMP JUMPDEST PUSH0 DUP1 SLOAD SWAP1 PUSH2 0x100 EXP SWAP1 DIV PUSH20 0xFFFFFFFFFFFFFFFFFFFFFFFFFFFFFFFFFFFFFFFF AND PUSH20 0xFFFFFFFFFFFFFFFFFFFFFFFFFFFFFFFFFFFFFFFF AND CALLER PUSH20 0xFFFFFFFFFFFFFFFFFFFFFFFFFFFFFFFFFFFFFFFF AND EQ PUSH2 0x53D JUMPI PUSH1 0x40 MLOAD PUSH32 0x8C379A000000000000000000000000000000000000000000000000000000000 DUP2 MSTORE PUSH1 0x4 ADD PUSH2 0x534 SWAP1 PUSH2 0x9CA JUMP JUMPDEST PUSH1 0x40 MLOAD DUP1 SWAP2 SUB SWAP1 REVERT JUMPDEST PUSH1 0x1 PUSH1 0x2 DUP2 GT ISZERO PUSH2 0x551 JUMPI PUSH2 0x550 PUSH2 0x70B JUMP JUMPDEST JUMPDEST PUSH1 0x3 PUSH0 SWAP1 SLOAD SWAP1 PUSH2 0x100 EXP SWAP1 DIV PUSH1 0xFF AND PUSH1 0x2 DUP2 GT ISZERO PUSH2 0x572 JUMPI PUSH2 0x571 PUSH2 0x70B JUMP JUMPDEST JUMPDEST EQ PUSH2 0x5B2 JUMPI PUSH1 0x40 MLOAD PUSH32 0x8C379A000000000000000000000000000000000000000000000000000000000 DUP2 MSTORE PUSH1 0x4 ADD PUSH2 0x5A9 SWAP1 PUSH2 0xA58 JUMP JUMPDEST PUSH1 0x40 MLOAD DUP1 SWAP2 SUB SWAP1 REVERT JUMPDEST PUSH1 0x1 PUSH0 SWAP1 SLOAD SWAP1 PUSH2 0x100 EXP SWAP1 DIV PUSH20 0xFFFFFFFFFFFFFFFFFFFFFFFFFFFFFFFFFFFFFFFF AND PUSH20 0xFFFFFFFFFFFFFFFFFFFFFFFFFFFFFFFFFFFFFFFF AND PUSH2 0x8FC SELFBALANCE SWAP1 DUP2 ISZERO MUL SWAP1 PUSH1 0x40 MLOAD PUSH0 PUSH1 0x40 MLOAD DUP1 DUP4 SUB DUP2 DUP6 DUP9 DUP9 CALL SWAP4 POP POP POP POP ISZERO DUP1 ISZERO PUSH2 0x616 JUMPI RETURNDATASIZE PUSH0 DUP1 RETURNDATACOPY RETURNDATASIZE PUSH0 REVERT JUMPDEST POP PUSH0 PUSH1 0x3 PUSH0 PUSH2 0x100 EXP DUP2 SLOAD DUP2 PUSH1 0xFF MUL NOT AND SWAP1 DUP4 PUSH1 0x2 DUP2 GT ISZERO PUSH2 0x63B JUMPI PUSH2 0x63A PUSH2 0x70B JUMP JUMPDEST JUMPDEST MUL OR SWAP1 SSTORE POP PUSH0 PUSH1 0x1 PUSH0 PUSH2 0x100 EXP DUP2 SLOAD DUP2 PUSH20 0xFFFFFFFFFFFFFFFFFFFFFFFFFFFFFFFFFFFFFFFF MUL NOT AND SWAP1 DUP4 PUSH20 0xFFFFFFFFFFFFFFFFFFFFFFFFFFFFFFFFFFFFFFFF AND MUL OR SWAP1 SSTORE POP JUMP JUMPDEST PUSH0 DUP2 SWAP1 POP SWAP2 SWAP1 POP JUMP JUMPDEST PUSH2 0x694 DUP2 PUSH2 0x682 JUMP JUMPDEST DUP3 MSTORE POP POP JUMP JUMPDEST PUSH0 PUSH1 0x20 DUP3 ADD SWAP1 POP PUSH2 0x6AD PUSH0 DUP4 ADD DUP5 PUSH2 0x68B JUMP JUMPDEST SWAP3 SWAP2 POP POP JUMP JUMPDEST PUSH0 PUSH20 0xFFFFFFFFFFFFFFFFFFFFFFFFFFFFFFFFFFFFFFFF DUP3 AND SWAP1 POP SWAP2 SWAP1 POP JUMP JUMPDEST PUSH0 PUSH2 0x6DC DUP3 PUSH2 0x6B3 JUMP JUMPDEST SWAP1 POP SWAP2 SWAP1 POP JUMP JUMPDEST PUSH2 0x6EC DUP2 PUSH2 0x6D2 JUMP JUMPDEST DUP3 MSTORE POP POP JUMP JUMPDEST PUSH0 PUSH1 0x20 DUP3 ADD SWAP1 POP PUSH2 0x705 PUSH0 DUP4 ADD DUP5 PUSH2 0x6E3 JUMP JUMPDEST SWAP3 SWAP2 POP POP JUMP JUMPDEST PUSH32 0x4E487B7100000000000000000000000000000000000000000000000000000000 PUSH0 MSTORE PUSH1 0x21 PUSH1 0x4 MSTORE PUSH1 0x24 PUSH0 REVERT JUMPDEST PUSH1 0x3 DUP2 LT PUSH2 0x749 JUMPI PUSH2 0x748 PUSH2 0x70B JUMP JUMPDEST JUMPDEST POP JUMP JUMPDEST PUSH0 DUP2 SWAP1 POP PUSH2 0x759 DUP3 PUSH2 0x738 JUMP JUMPDEST SWAP2 SWAP1 POP JUMP JUMPDEST PUSH0 PUSH2 0x768 DUP3 PUSH2 0x74C JUMP JUMPDEST SWAP1 POP SWAP2 SWAP1 POP JUMP JUMPDEST PUSH2 0x778 DUP2 PUSH2 0x75E JUMP JUMPDEST DUP3 MSTORE POP POP JUMP JUMPDEST PUSH0 PUSH1 0x20 DUP3 ADD SWAP1 POP PUSH2 0x791 PUSH0 DUP4 ADD DUP5 PUSH2 0x76F JUMP JUMPDEST SWAP3 SWAP2 POP POP JUMP JUMPDEST PUSH0 PUSH2 0x7A1 DUP3 PUSH2 0x6B3 JUMP JUMPDEST SWAP1 POP SWAP2 SWAP1 POP JUMP JUMPDEST PUSH2 0x7B1 DUP2 PUSH2 0x797 JUMP JUMPDEST DUP3 MSTORE POP POP JUMP JUMPDEST PUSH0 PUSH1 0x20 DUP3 ADD SWAP1 POP PUSH2 0x7CA PUSH0 DUP4 ADD DUP5 PUSH2 0x7A8 JUMP JUMPDEST SWAP3 SWAP2 POP POP JUMP JUMPDEST PUSH0 DUP3 DUP3 MSTORE PUSH1 0x20 DUP3 ADD SWAP1 POP SWAP3 SWAP2 POP POP JUMP JUMPDEST PUSH32 0x4C2761727469636C65206E276573742070617320646973706F6E69626C650000 PUSH0 DUP3 ADD MSTORE POP JUMP JUMPDEST PUSH0 PUSH2 0x814 PUSH1 0x1E DUP4 PUSH2 0x7D0 JUMP JUMPDEST SWAP2 POP PUSH2 0x81F DUP3 PUSH2 0x7E0 JUMP JUMPDEST PUSH1 0x20 DUP3 ADD SWAP1 POP SWAP2 SWAP1 POP JUMP JUMPDEST PUSH0 PUSH1 0x20 DUP3 ADD SWAP1 POP DUP2 DUP2 SUB PUSH0 DUP4 ADD MSTORE PUSH2 0x841 DUP2 PUSH2 0x808 JUMP JUMPDEST SWAP1 POP SWAP2 SWAP1 POP JUMP JUMPDEST PUSH32 0x4D6F6E74616E7420657861637420726571756973000000000000000000000000 PUSH0 DUP3 ADD MSTORE POP JUMP JUMPDEST PUSH0 PUSH2 0x87C PUSH1 0x14 DUP4 PUSH2 0x7D0 JUMP JUMPDEST SWAP2 POP PUSH2 0x887 DUP3 PUSH2 0x848 JUMP JUMPDEST PUSH1 0x20 DUP3 ADD SWAP1 POP SWAP2 SWAP1 POP JUMP JUMPDEST PUSH0 PUSH1 0x20 DUP3 ADD SWAP1 POP DUP2 DUP2 SUB PUSH0 DUP4 ADD MSTORE PUSH2 0x8A9 DUP2 PUSH2 0x870 JUMP JUMPDEST SWAP1 POP SWAP2 SWAP1 POP JUMP JUMPDEST PUSH32 0x5365756C206C652076656E64657572207065757420636F6E6669726D65720000 PUSH0 DUP3 ADD MSTORE POP JUMP JUMPDEST PUSH0 PUSH2 0x8E4 PUSH1 0x1E DUP4 PUSH2 0x7D0 JUMP JUMPDEST SWAP2 POP PUSH2 0x8EF DUP3 PUSH2 0x8B0 JUMP JUMPDEST PUSH1 0x20 DUP3 ADD SWAP1 POP SWAP2 SWAP1 POP JUMP JUMPDEST PUSH0 PUSH1 0x20 DUP3 ADD SWAP1 POP DUP2 DUP2 SUB PUSH0 DUP4 ADD MSTORE PUSH2 0x911 DUP2 PUSH2 0x8D8 JUMP JUMPDEST SWAP1 POP SWAP2 SWAP1 POP JUMP JUMPDEST PUSH32 0x4C2761727469636C6520646F69742065747265207061796520642761626F7264 PUSH0 DUP3 ADD MSTORE POP JUMP JUMPDEST PUSH0 PUSH2 0x94C PUSH1 0x20 DUP4 PUSH2 0x7D0 JUMP JUMPDEST SWAP2 POP PUSH2 0x957 DUP3 PUSH2 0x918 JUMP JUMPDEST PUSH1 0x20 DUP3 ADD SWAP1 POP SWAP2 SWAP1 POP JUMP JUMPDEST PUSH0 PUSH1 0x20 DUP3 ADD SWAP1 POP DUP2 DUP2 SUB PUSH0 DUP4 ADD MSTORE PUSH2 0x979 DUP2 PUSH2 0x940 JUMP JUMPDEST SWAP1 POP SWAP2 SWAP1 POP JUMP JUMPDEST PUSH32 0x5365756C206C652076656E6465757220706575742072656D626F757273657200 PUSH0 DUP3 ADD MSTORE POP JUMP JUMPDEST PUSH0 PUSH2 0x9B4 PUSH1 0x1F DUP4 PUSH2 0x7D0 JUMP JUMPDEST SWAP2 POP PUSH2 0x9BF DUP3 PUSH2 0x980 JUMP JUMPDEST PUSH1 0x20 DUP3 ADD SWAP1 POP SWAP2 SWAP1 POP JUMP JUMPDEST PUSH0 PUSH1 0x20 DUP3 ADD SWAP1 POP DUP2 DUP2 SUB PUSH0 DUP4 ADD MSTORE PUSH2 0x9E1 DUP2 PUSH2 0x9A8 JUMP JUMPDEST SWAP1 POP SWAP2 SWAP1 POP JUMP JUMPDEST PUSH32 0x4C2761727469636C6520646F69742065747265207061796520706F7572207265 PUSH0 DUP3 ADD MSTORE PUSH32 0x6D626F757273656D656E74000000000000000000000000000000000000000000 PUSH1 0x20 DUP3 ADD MSTORE POP JUMP JUMPDEST PUSH0 PUSH2 0xA42 PUSH1 0x2B DUP4 PUSH2 0x7D0 JUMP JUMPDEST SWAP2 POP PUSH2 0xA4D DUP3 PUSH2 0x9E8 JUMP JUMPDEST PUSH1 0x40 DUP3 ADD SWAP1 POP SWAP2 SWAP1 POP JUMP JUMPDEST PUSH0 PUSH1 0x20 DUP3 ADD SWAP1 POP DUP2 DUP2 SUB PUSH0 DUP4 ADD MSTORE PUSH2 0xA6F DUP2 PUSH2 0xA36 JUMP JUMPDEST SWAP1 POP SWAP2 SWAP1 POP JUMP INVALID LOG2 PUSH5 0x6970667358 0x22 SLT KECCAK256 SELFDESTRUCT 0xC8 DIV LOG3 0xD7 BLOBBASEFEE RETURN DUP3 OR BLOBBASEFEE ORIGIN MCOPY SWAP1 CODECOPY CALLVALUE 0xE1 MOD 0xBD DUP11 SDIV PUSH26 0xA125874B8F26C81715AC1F64736F6C634300081A003300000000 "
				},
				"gasEstimates": {
					"creation": {
						"codeDepositCost": "546400",
						"executionCost": "infinite",
						"totalCost": "infinite"
					},
					"external": {
						"_acheteur()": "2553",
						"_prix()": "2448",
						"_vendeur()": "2527",
						"acheter()": "53002",
						"confirmerLivraison()": "infinite",
						"etat()": "2598",
						"getEtat()": "2628",
						"rembourserAcheteur()": "infinite"
					}
				},
				"methodIdentifiers": {
					"_acheteur()": "4c97df53",
					"_prix()": "373c885b",
					"_vendeur()": "733d5bf2",
					"acheter()": "0d4faa05",
					"confirmerLivraison()": "6dc0e91c",
					"etat()": "a2287c86",
					"getEtat()": "6d717513",
					"rembourserAcheteur()": "c6aa7d5e"
				}
			},
			"storageLayout": {
				"storage": [
					{
						"astId": 3,
						"contract": "contracts/5_ContratVente.sol:ContratVente",
						"label": "_vendeur",
						"offset": 0,
						"slot": "0",
						"type": "t_address_payable"
					},
					{
						"astId": 5,
						"contract": "contracts/5_ContratVente.sol:ContratVente",
						"label": "_acheteur",
						"offset": 0,
						"slot": "1",
						"type": "t_address"
					},
					{
						"astId": 7,
						"contract": "contracts/5_ContratVente.sol:ContratVente",
						"label": "_prix",
						"offset": 0,
						"slot": "2",
						"type": "t_uint256"
					},
					{
						"astId": 14,
						"contract": "contracts/5_ContratVente.sol:ContratVente",
						"label": "etat",
						"offset": 0,
						"slot": "3",
						"type": "t_enum(EtatVente)11"
					}
				],
				"types": {
					"t_address": {
						"encoding": "inplace",
						"label": "address",
						"numberOfBytes": "20"
					},
					"t_address_payable": {
						"encoding": "inplace",
						"label": "address payable",
						"numberOfBytes": "20"
					},
					"t_enum(EtatVente)11": {
						"encoding": "inplace",
						"label": "enum ContratVente.EtatVente",
						"numberOfBytes": "1"
					},
					"t_uint256": {
						"encoding": "inplace",
						"label": "uint256",
						"numberOfBytes": "32"
					}
				}
			},
			"userdoc": {
				"kind": "user",
				"methods": {},
				"version": 1
			}
		}
	}
}