{
	"contracts/6_Product.sol": {
		"ProductMarket": {
			"abi": [
				{
					"inputs": [],
					"stateMutability": "nonpayable",
					"type": "constructor"
				},
				{
					"anonymous": false,
					"inputs": [
						{
							"indexed": false,
							"internalType": "uint256",
							"name": "id",
							"type": "uint256"
						},
						{
							"indexed": false,
							"internalType": "string",
							"name": "name",
							"type": "string"
						}
					],
					"name": "ProductAdded",
					"type": "event"
				},
				{
					"anonymous": false,
					"inputs": [
						{
							"indexed": false,
							"internalType": "uint256",
							"name": "id",
							"type": "uint256"
						}
					],
					"name": "ProductDeleted",
					"type": "event"
				},
				{
					"anonymous": false,
					"inputs": [
						{
							"indexed": false,
							"internalType": "uint256",
							"name": "id",
							"type": "uint256"
						},
						{
							"indexed": false,
							"internalType": "string",
							"name": "name",
							"type": "string"
						}
					],
					"name": "ProductUpdated",
					"type": "event"
				},
				{
					"inputs": [
						{
							"internalType": "string",
							"name": "_name",
							"type": "string"
						},
						{
							"internalType": "uint256",
							"name": "_price",
							"type": "uint256"
						},
						{
							"internalType": "uint256",
							"name": "_stock",
							"type": "uint256"
						}
					],
					"name": "addProduct",
					"outputs": [],
					"stateMutability": "nonpayable",
					"type": "function"
				},
				{
					"inputs": [
						{
							"internalType": "uint256",
							"name": "_id",
							"type": "uint256"
						}
					],
					"name": "copyProduct",
					"outputs": [
						{
							"components": [
								{
									"internalType": "string",
									"name": "name",
									"type": "string"
								},
								{
									"internalType": "uint256",
									"name": "price",
									"type": "uint256"
								},
								{
									"internalType": "uint256",
									"name": "stock",
									"type": "uint256"
								}
							],
							"internalType": "struct ProductMarket.Product",
							"name": "",
							"type": "tuple"
						}
					],
					"stateMutability": "view",
					"type": "function"
				},
				{
					"inputs": [
						{
							"internalType": "uint256",
							"name": "_id",
							"type": "uint256"
						}
					],
					"name": "deleteProduct",
					"outputs": [],
					"stateMutability": "nonpayable",
					"type": "function"
				},
				{
					"inputs": [
						{
							"internalType": "uint256",
							"name": "_id",
							"type": "uint256"
						}
					],
					"name": "getProduct",
					"outputs": [
						{
							"internalType": "string",
							"name": "",
							"type": "string"
						},
						{
							"internalType": "uint256",
							"name": "",
							"type": "uint256"
						},
						{
							"internalType": "uint256",
							"name": "",
							"type": "uint256"
						}
					],
					"stateMutability": "view",
					"type": "function"
				},
				{
					"inputs": [],
					"name": "owner",
					"outputs": [
						{
							"internalType": "address",
							"name": "",
							"type": "address"
						}
					],
					"stateMutability": "view",
					"type": "function"
				},
				{
					"inputs": [],
					"name": "productCount",
					"outputs": [
						{
							"internalType": "uint256",
							"name": "",
							"type": "uint256"
						}
					],
					"stateMutability": "view",
					"type": "function"
				},
				{
					"inputs": [
						{
							"internalType": "uint256",
							"name": "",
							"type": "uint256"
						}
					],
					"name": "products",
					"outputs": [
						{
							"internalType": "string",
							"name": "name",
							"type": "string"
						},
						{
							"internalType": "uint256",
							"name": "price",
							"type": "uint256"
						},
						{
							"internalType": "uint256",
							"name": "stock",
							"type": "uint256"
						}
					],
					"stateMutability": "view",
					"type": "function"
				},
				{
					"inputs": [
						{
							"internalType": "uint256",
							"name": "_id",
							"type": "uint256"
						},
						{
							"internalType": "string",
							"name": "_name",
							"type": "string"
						},
						{
							"internalType": "uint256",
							"name": "_price",
							"type": "uint256"
						},
						{
							"internalType": "uint256",
							"name": "_stock",
							"type": "uint256"
						}
					],
					"name": "updateProduct",
					"outputs": [],
					"stateMutability": "nonpayable",
					"type": "function"
				}
			],
			"devdoc": {
				"kind": "dev",
				"methods": {},
				"version": 1
			},
			"evm": {
				"assembly": "    /* \"contracts/6_Product.sol\":57:1913  contract ProductMarket {... */\n  mstore(0x40, 0x80)\n    /* \"contracts/6_Product.sol\":283:332  constructor() {... */\n  callvalue\n  dup1\n  iszero\n  tag_1\n  jumpi\n  0x00\n  dup1\n  revert\ntag_1:\n  pop\n    /* \"contracts/6_Product.sol\":315:325  msg.sender */\n  caller\n    /* \"contracts/6_Product.sol\":307:312  owner */\n  0x02\n  0x00\n    /* \"contracts/6_Product.sol\":307:325  owner = msg.sender */\n  0x0100\n  exp\n  dup2\n  sload\n  dup2\n  0xffffffffffffffffffffffffffffffffffffffff\n  mul\n  not\n  and\n  swap1\n  dup4\n  0xffffffffffffffffffffffffffffffffffffffff\n  and\n  mul\n  or\n  swap1\n  sstore\n  pop\n    /* \"contracts/6_Product.sol\":57:1913  contract ProductMarket {... */\n  dataSize(sub_0)\n  dup1\n  dataOffset(sub_0)\n  0x00\n  codecopy\n  0x00\n  return\nstop\n\nsub_0: assembly {\n        /* \"contracts/6_Product.sol\":57:1913  contract ProductMarket {... */\n      mstore(0x40, 0x80)\n      callvalue\n      dup1\n      iszero\n      tag_1\n      jumpi\n      0x00\n      dup1\n      revert\n    tag_1:\n      pop\n      jumpi(tag_2, lt(calldatasize, 0x04))\n      shr(0xe0, calldataload(0x00))\n      dup1\n      0x8da5cb5b\n      gt\n      tag_11\n      jumpi\n      dup1\n      0x8da5cb5b\n      eq\n      tag_7\n      jumpi\n      dup1\n      0xb9db15b4\n      eq\n      tag_8\n      jumpi\n      dup1\n      0xe0f6ef87\n      eq\n      tag_9\n      jumpi\n      dup1\n      0xed90c7b7\n      eq\n      tag_10\n      jumpi\n      jump(tag_2)\n    tag_11:\n      dup1\n      0x125b0b34\n      eq\n      tag_3\n      jumpi\n      dup1\n      0x2d561787\n      eq\n      tag_4\n      jumpi\n      dup1\n      0x7acc0b20\n      eq\n      tag_5\n      jumpi\n      dup1\n      0x8a7adee0\n      eq\n      tag_6\n      jumpi\n    tag_2:\n      0x00\n      dup1\n      revert\n        /* \"contracts/6_Product.sol\":614:844  function addProduct(string memory _name, uint _price, uint _stock) external onlyOwner {... */\n    tag_3:\n      tag_12\n      0x04\n      dup1\n      calldatasize\n      sub\n      dup2\n      add\n      swap1\n      tag_13\n      swap2\n      swap1\n      tag_14\n      jump\t// in\n    tag_13:\n      tag_15\n      jump\t// in\n    tag_12:\n      stop\n        /* \"contracts/6_Product.sol\":855:1204  function updateProduct(uint _id, string memory _name, uint _price, uint _stock) external onlyOwner {... */\n    tag_4:\n      tag_16\n      0x04\n      dup1\n      calldatasize\n      sub\n      dup2\n      add\n      swap1\n      tag_17\n      swap2\n      swap1\n      tag_18\n      jump\t// in\n    tag_17:\n      tag_19\n      jump\t// in\n    tag_16:\n      stop\n        /* \"contracts/6_Product.sol\":180:220  mapping(uint => Product) public products */\n    tag_5:\n      tag_20\n      0x04\n      dup1\n      calldatasize\n      sub\n      dup2\n      add\n      swap1\n      tag_21\n      swap2\n      swap1\n      tag_22\n      jump\t// in\n    tag_21:\n      tag_23\n      jump\t// in\n    tag_20:\n      mload(0x40)\n      tag_24\n      swap4\n      swap3\n      swap2\n      swap1\n      tag_25\n      jump\t// in\n    tag_24:\n      mload(0x40)\n      dup1\n      swap2\n      sub\n      swap1\n      return\n        /* \"contracts/6_Product.sol\":1682:1911  function copyProduct(uint _id) public view returns (Product memory) {... */\n    tag_6:\n      tag_26\n      0x04\n      dup1\n      calldatasize\n      sub\n      dup2\n      add\n      swap1\n      tag_27\n      swap2\n      swap1\n      tag_22\n      jump\t// in\n    tag_27:\n      tag_28\n      jump\t// in\n    tag_26:\n      mload(0x40)\n      tag_29\n      swap2\n      swap1\n      tag_30\n      jump\t// in\n    tag_29:\n      mload(0x40)\n      dup1\n      swap2\n      sub\n      swap1\n      return\n        /* \"contracts/6_Product.sol\":256:276  address public owner */\n    tag_7:\n      tag_31\n      tag_32\n      jump\t// in\n    tag_31:\n      mload(0x40)\n      tag_33\n      swap2\n      swap1\n      tag_34\n      jump\t// in\n    tag_33:\n      mload(0x40)\n      dup1\n      swap2\n      sub\n      swap1\n      return\n        /* \"contracts/6_Product.sol\":1419:1671  function getProduct(uint _id) public view returns (string memory, uint, uint) {... */\n    tag_8:\n      tag_35\n      0x04\n      dup1\n      calldatasize\n      sub\n      dup2\n      add\n      swap1\n      tag_36\n      swap2\n      swap1\n      tag_22\n      jump\t// in\n    tag_36:\n      tag_37\n      jump\t// in\n    tag_35:\n      mload(0x40)\n      tag_38\n      swap4\n      swap3\n      swap2\n      swap1\n      tag_25\n      jump\t// in\n    tag_38:\n      mload(0x40)\n      dup1\n      swap2\n      sub\n      swap1\n      return\n        /* \"contracts/6_Product.sol\":226:250  uint public productCount */\n    tag_9:\n      tag_39\n      tag_40\n      jump\t// in\n    tag_39:\n      mload(0x40)\n      tag_41\n      swap2\n      swap1\n      tag_42\n      jump\t// in\n    tag_41:\n      mload(0x40)\n      dup1\n      swap2\n      sub\n      swap1\n      return\n        /* \"contracts/6_Product.sol\":1215:1408  function deleteProduct(uint _id) external onlyOwner {... */\n    tag_10:\n      tag_43\n      0x04\n      dup1\n      calldatasize\n      sub\n      dup2\n      add\n      swap1\n      tag_44\n      swap2\n      swap1\n      tag_22\n      jump\t// in\n    tag_44:\n      tag_45\n      jump\t// in\n    tag_43:\n      stop\n        /* \"contracts/6_Product.sol\":614:844  function addProduct(string memory _name, uint _price, uint _stock) external onlyOwner {... */\n    tag_15:\n        /* \"contracts/6_Product.sol\":396:401  owner */\n      0x02\n      0x00\n      swap1\n      sload\n      swap1\n      0x0100\n      exp\n      swap1\n      div\n      0xffffffffffffffffffffffffffffffffffffffff\n      and\n        /* \"contracts/6_Product.sol\":382:401  msg.sender == owner */\n      0xffffffffffffffffffffffffffffffffffffffff\n      and\n        /* \"contracts/6_Product.sol\":382:392  msg.sender */\n      caller\n        /* \"contracts/6_Product.sol\":382:401  msg.sender == owner */\n      0xffffffffffffffffffffffffffffffffffffffff\n      and\n      eq\n        /* \"contracts/6_Product.sol\":374:445  require(msg.sender == owner, \"Acces refuse: seulement le proprietaire\") */\n      tag_47\n      jumpi\n      mload(0x40)\n      0x08c379a000000000000000000000000000000000000000000000000000000000\n      dup2\n      mstore\n      0x04\n      add\n      tag_48\n      swap1\n      tag_49\n      jump\t// in\n    tag_48:\n      mload(0x40)\n      dup1\n      swap2\n      sub\n      swap1\n      revert\n    tag_47:\n        /* \"contracts/6_Product.sol\":710:722  productCount */\n      0x01\n      0x00\n        /* \"contracts/6_Product.sol\":710:724  productCount++ */\n      dup2\n      sload\n      dup1\n      swap3\n      swap2\n      swap1\n      tag_51\n      swap1\n      tag_52\n      jump\t// in\n    tag_51:\n      swap2\n      swap1\n      pop\n      sstore\n      pop\n        /* \"contracts/6_Product.sol\":759:789  Product(_name, _price, _stock) */\n      mload(0x40)\n      dup1\n      0x60\n      add\n      0x40\n      mstore\n      dup1\n        /* \"contracts/6_Product.sol\":767:772  _name */\n      dup5\n        /* \"contracts/6_Product.sol\":759:789  Product(_name, _price, _stock) */\n      dup2\n      mstore\n      0x20\n      add\n        /* \"contracts/6_Product.sol\":774:780  _price */\n      dup4\n        /* \"contracts/6_Product.sol\":759:789  Product(_name, _price, _stock) */\n      dup2\n      mstore\n      0x20\n      add\n        /* \"contracts/6_Product.sol\":782:788  _stock */\n      dup3\n        /* \"contracts/6_Product.sol\":759:789  Product(_name, _price, _stock) */\n      dup2\n      mstore\n      pop\n        /* \"contracts/6_Product.sol\":734:742  products */\n      0x00\n        /* \"contracts/6_Product.sol\":734:756  products[productCount] */\n      dup1\n        /* \"contracts/6_Product.sol\":743:755  productCount */\n      sload(0x01)\n        /* \"contracts/6_Product.sol\":734:756  products[productCount] */\n      dup2\n      mstore\n      0x20\n      add\n      swap1\n      dup2\n      mstore\n      0x20\n      add\n      0x00\n      keccak256\n        /* \"contracts/6_Product.sol\":734:789  products[productCount] = Product(_name, _price, _stock) */\n      0x00\n      dup3\n      add\n      mload\n      dup2\n      0x00\n      add\n      swap1\n      dup2\n      tag_53\n      swap2\n      swap1\n      tag_54\n      jump\t// in\n    tag_53:\n      pop\n      0x20\n      dup3\n      add\n      mload\n      dup2\n      0x01\n      add\n      sstore\n      0x40\n      dup3\n      add\n      mload\n      dup2\n      0x02\n      add\n      sstore\n      swap1\n      pop\n      pop\n        /* \"contracts/6_Product.sol\":804:837  ProductAdded(productCount, _name) */\n      0x259101de1f87b04b9ee0332ce5e3cc508014004bf283424aead6cd8692f5cf98\n        /* \"contracts/6_Product.sol\":817:829  productCount */\n      sload(0x01)\n        /* \"contracts/6_Product.sol\":831:836  _name */\n      dup5\n        /* \"contracts/6_Product.sol\":804:837  ProductAdded(productCount, _name) */\n      mload(0x40)\n      tag_55\n      swap3\n      swap2\n      swap1\n      tag_56\n      jump\t// in\n    tag_55:\n      mload(0x40)\n      dup1\n      swap2\n      sub\n      swap1\n      log1\n        /* \"contracts/6_Product.sol\":614:844  function addProduct(string memory _name, uint _price, uint _stock) external onlyOwner {... */\n      pop\n      pop\n      pop\n      jump\t// out\n        /* \"contracts/6_Product.sol\":855:1204  function updateProduct(uint _id, string memory _name, uint _price, uint _stock) external onlyOwner {... */\n    tag_19:\n        /* \"contracts/6_Product.sol\":396:401  owner */\n      0x02\n      0x00\n      swap1\n      sload\n      swap1\n      0x0100\n      exp\n      swap1\n      div\n      0xffffffffffffffffffffffffffffffffffffffff\n      and\n        /* \"contracts/6_Product.sol\":382:401  msg.sender == owner */\n      0xffffffffffffffffffffffffffffffffffffffff\n      and\n        /* \"contracts/6_Product.sol\":382:392  msg.sender */\n      caller\n        /* \"contracts/6_Product.sol\":382:401  msg.sender == owner */\n      0xffffffffffffffffffffffffffffffffffffffff\n      and\n      eq\n        /* \"contracts/6_Product.sol\":374:445  require(msg.sender == owner, \"Acces refuse: seulement le proprietaire\") */\n      tag_58\n      jumpi\n      mload(0x40)\n      0x08c379a000000000000000000000000000000000000000000000000000000000\n      dup2\n      mstore\n      0x04\n      add\n      tag_59\n      swap1\n      tag_49\n      jump\t// in\n    tag_59:\n      mload(0x40)\n      dup1\n      swap2\n      sub\n      swap1\n      revert\n    tag_58:\n        /* \"contracts/6_Product.sol\":978:979  0 */\n      0x00\n        /* \"contracts/6_Product.sol\":972:975  _id */\n      dup5\n        /* \"contracts/6_Product.sol\":972:979  _id > 0 */\n      gt\n        /* \"contracts/6_Product.sol\":972:1002  _id > 0 && _id <= productCount */\n      dup1\n      iszero\n      tag_61\n      jumpi\n      pop\n        /* \"contracts/6_Product.sol\":990:1002  productCount */\n      sload(0x01)\n        /* \"contracts/6_Product.sol\":983:986  _id */\n      dup5\n        /* \"contracts/6_Product.sol\":983:1002  _id <= productCount */\n      gt\n      iszero\n        /* \"contracts/6_Product.sol\":972:1002  _id > 0 && _id <= productCount */\n    tag_61:\n        /* \"contracts/6_Product.sol\":964:1023  require(_id > 0 && _id <= productCount, \"Produit invalide\") */\n      tag_62\n      jumpi\n      mload(0x40)\n      0x08c379a000000000000000000000000000000000000000000000000000000000\n      dup2\n      mstore\n      0x04\n      add\n      tag_63\n      swap1\n      tag_64\n      jump\t// in\n    tag_63:\n      mload(0x40)\n      dup1\n      swap2\n      sub\n      swap1\n      revert\n    tag_62:\n        /* \"contracts/6_Product.sol\":1034:1054  Product storage prod */\n      0x00\n        /* \"contracts/6_Product.sol\":1057:1065  products */\n      dup1\n        /* \"contracts/6_Product.sol\":1057:1070  products[_id] */\n      0x00\n        /* \"contracts/6_Product.sol\":1066:1069  _id */\n      dup7\n        /* \"contracts/6_Product.sol\":1057:1070  products[_id] */\n      dup2\n      mstore\n      0x20\n      add\n      swap1\n      dup2\n      mstore\n      0x20\n      add\n      0x00\n      keccak256\n        /* \"contracts/6_Product.sol\":1034:1070  Product storage prod = products[_id] */\n      swap1\n      pop\n        /* \"contracts/6_Product.sol\":1092:1097  _name */\n      dup4\n        /* \"contracts/6_Product.sol\":1080:1084  prod */\n      dup2\n        /* \"contracts/6_Product.sol\":1080:1089  prod.name */\n      0x00\n      add\n        /* \"contracts/6_Product.sol\":1080:1097  prod.name = _name */\n      swap1\n      dup2\n      tag_65\n      swap2\n      swap1\n      tag_54\n      jump\t// in\n    tag_65:\n      pop\n        /* \"contracts/6_Product.sol\":1120:1126  _price */\n      dup3\n        /* \"contracts/6_Product.sol\":1107:1111  prod */\n      dup2\n        /* \"contracts/6_Product.sol\":1107:1117  prod.price */\n      0x01\n      add\n        /* \"contracts/6_Product.sol\":1107:1126  prod.price = _price */\n      dup2\n      swap1\n      sstore\n      pop\n        /* \"contracts/6_Product.sol\":1149:1155  _stock */\n      dup2\n        /* \"contracts/6_Product.sol\":1136:1140  prod */\n      dup2\n        /* \"contracts/6_Product.sol\":1136:1146  prod.stock */\n      0x02\n      add\n        /* \"contracts/6_Product.sol\":1136:1155  prod.stock = _stock */\n      dup2\n      swap1\n      sstore\n      pop\n        /* \"contracts/6_Product.sol\":1171:1197  ProductUpdated(_id, _name) */\n      0xdad7092ee1ca215307c34b5dd865bb1f9be7e1f0110d230eaefd78fa4742903e\n        /* \"contracts/6_Product.sol\":1186:1189  _id */\n      dup6\n        /* \"contracts/6_Product.sol\":1191:1196  _name */\n      dup6\n        /* \"contracts/6_Product.sol\":1171:1197  ProductUpdated(_id, _name) */\n      mload(0x40)\n      tag_66\n      swap3\n      swap2\n      swap1\n      tag_56\n      jump\t// in\n    tag_66:\n      mload(0x40)\n      dup1\n      swap2\n      sub\n      swap1\n      log1\n        /* \"contracts/6_Product.sol\":954:1204  {... */\n      pop\n        /* \"contracts/6_Product.sol\":855:1204  function updateProduct(uint _id, string memory _name, uint _price, uint _stock) external onlyOwner {... */\n      pop\n      pop\n      pop\n      pop\n      jump\t// out\n        /* \"contracts/6_Product.sol\":180:220  mapping(uint => Product) public products */\n    tag_23:\n      mstore(0x20, 0x00)\n      dup1\n      0x00\n      mstore\n      keccak256(0x00, 0x40)\n      0x00\n      swap2\n      pop\n      swap1\n      pop\n      dup1\n      0x00\n      add\n      dup1\n      sload\n      tag_67\n      swap1\n      tag_68\n      jump\t// in\n    tag_67:\n      dup1\n      0x1f\n      add\n      0x20\n      dup1\n      swap2\n      div\n      mul\n      0x20\n      add\n      mload(0x40)\n      swap1\n      dup2\n      add\n      0x40\n      mstore\n      dup1\n      swap3\n      swap2\n      swap1\n      dup2\n      dup2\n      mstore\n      0x20\n      add\n      dup3\n      dup1\n      sload\n      tag_69\n      swap1\n      tag_68\n      jump\t// in\n    tag_69:\n      dup1\n      iszero\n      tag_70\n      jumpi\n      dup1\n      0x1f\n      lt\n      tag_71\n      jumpi\n      0x0100\n      dup1\n      dup4\n      sload\n      div\n      mul\n      dup4\n      mstore\n      swap2\n      0x20\n      add\n      swap2\n      jump(tag_70)\n    tag_71:\n      dup3\n      add\n      swap2\n      swap1\n      0x00\n      mstore\n      keccak256(0x00, 0x20)\n      swap1\n    tag_72:\n      dup2\n      sload\n      dup2\n      mstore\n      swap1\n      0x01\n      add\n      swap1\n      0x20\n      add\n      dup1\n      dup4\n      gt\n      tag_72\n      jumpi\n      dup3\n      swap1\n      sub\n      0x1f\n      and\n      dup3\n      add\n      swap2\n    tag_70:\n      pop\n      pop\n      pop\n      pop\n      pop\n      swap1\n      dup1\n      0x01\n      add\n      sload\n      swap1\n      dup1\n      0x02\n      add\n      sload\n      swap1\n      pop\n      dup4\n      jump\t// out\n        /* \"contracts/6_Product.sol\":1682:1911  function copyProduct(uint _id) public view returns (Product memory) {... */\n    tag_28:\n        /* \"contracts/6_Product.sol\":1734:1748  Product memory */\n      tag_73\n      tag_74\n      jump\t// in\n    tag_73:\n        /* \"contracts/6_Product.sol\":1774:1775  0 */\n      0x00\n        /* \"contracts/6_Product.sol\":1768:1771  _id */\n      dup3\n        /* \"contracts/6_Product.sol\":1768:1775  _id > 0 */\n      gt\n        /* \"contracts/6_Product.sol\":1768:1798  _id > 0 && _id <= productCount */\n      dup1\n      iszero\n      tag_76\n      jumpi\n      pop\n        /* \"contracts/6_Product.sol\":1786:1798  productCount */\n      sload(0x01)\n        /* \"contracts/6_Product.sol\":1779:1782  _id */\n      dup3\n        /* \"contracts/6_Product.sol\":1779:1798  _id <= productCount */\n      gt\n      iszero\n        /* \"contracts/6_Product.sol\":1768:1798  _id > 0 && _id <= productCount */\n    tag_76:\n        /* \"contracts/6_Product.sol\":1760:1819  require(_id > 0 && _id <= productCount, \"Produit invalide\") */\n      tag_77\n      jumpi\n      mload(0x40)\n      0x08c379a000000000000000000000000000000000000000000000000000000000\n      dup2\n      mstore\n      0x04\n      add\n      tag_78\n      swap1\n      tag_64\n      jump\t// in\n    tag_78:\n      mload(0x40)\n      dup1\n      swap2\n      sub\n      swap1\n      revert\n    tag_77:\n        /* \"contracts/6_Product.sol\":1830:1858  Product memory copiedProduct */\n      0x00\n        /* \"contracts/6_Product.sol\":1861:1869  products */\n      dup1\n        /* \"contracts/6_Product.sol\":1861:1874  products[_id] */\n      0x00\n        /* \"contracts/6_Product.sol\":1870:1873  _id */\n      dup5\n        /* \"contracts/6_Product.sol\":1861:1874  products[_id] */\n      dup2\n      mstore\n      0x20\n      add\n      swap1\n      dup2\n      mstore\n      0x20\n      add\n      0x00\n      keccak256\n        /* \"contracts/6_Product.sol\":1830:1874  Product memory copiedProduct = products[_id] */\n      mload(0x40)\n      dup1\n      0x60\n      add\n      0x40\n      mstore\n      swap1\n      dup2\n      0x00\n      dup3\n      add\n      dup1\n      sload\n      tag_79\n      swap1\n      tag_68\n      jump\t// in\n    tag_79:\n      dup1\n      0x1f\n      add\n      0x20\n      dup1\n      swap2\n      div\n      mul\n      0x20\n      add\n      mload(0x40)\n      swap1\n      dup2\n      add\n      0x40\n      mstore\n      dup1\n      swap3\n      swap2\n      swap1\n      dup2\n      dup2\n      mstore\n      0x20\n      add\n      dup3\n      dup1\n      sload\n      tag_80\n      swap1\n      tag_68\n      jump\t// in\n    tag_80:\n      dup1\n      iszero\n      tag_81\n      jumpi\n      dup1\n      0x1f\n      lt\n      tag_82\n      jumpi\n      0x0100\n      dup1\n      dup4\n      sload\n      div\n      mul\n      dup4\n      mstore\n      swap2\n      0x20\n      add\n      swap2\n      jump(tag_81)\n    tag_82:\n      dup3\n      add\n      swap2\n      swap1\n      0x00\n      mstore\n      keccak256(0x00, 0x20)\n      swap1\n    tag_83:\n      dup2\n      sload\n      dup2\n      mstore\n      swap1\n      0x01\n      add\n      swap1\n      0x20\n      add\n      dup1\n      dup4\n      gt\n      tag_83\n      jumpi\n      dup3\n      swap1\n      sub\n      0x1f\n      and\n      dup3\n      add\n      swap2\n    tag_81:\n      pop\n      pop\n      pop\n      pop\n      pop\n      dup2\n      mstore\n      0x20\n      add\n      0x01\n      dup3\n      add\n      sload\n      dup2\n      mstore\n      0x20\n      add\n      0x02\n      dup3\n      add\n      sload\n      dup2\n      mstore\n      pop\n      pop\n      swap1\n      pop\n        /* \"contracts/6_Product.sol\":1891:1904  copiedProduct */\n      dup1\n        /* \"contracts/6_Product.sol\":1884:1904  return copiedProduct */\n      swap2\n      pop\n      pop\n        /* \"contracts/6_Product.sol\":1682:1911  function copyProduct(uint _id) public view returns (Product memory) {... */\n      swap2\n      swap1\n      pop\n      jump\t// out\n        /* \"contracts/6_Product.sol\":256:276  address public owner */\n    tag_32:\n      0x02\n      0x00\n      swap1\n      sload\n      swap1\n      0x0100\n      exp\n      swap1\n      div\n      0xffffffffffffffffffffffffffffffffffffffff\n      and\n      dup2\n      jump\t// out\n        /* \"contracts/6_Product.sol\":1419:1671  function getProduct(uint _id) public view returns (string memory, uint, uint) {... */\n    tag_37:\n        /* \"contracts/6_Product.sol\":1470:1483  string memory */\n      0x60\n        /* \"contracts/6_Product.sol\":1485:1489  uint */\n      0x00\n        /* \"contracts/6_Product.sol\":1491:1495  uint */\n      dup1\n        /* \"contracts/6_Product.sol\":1521:1522  0 */\n      0x00\n        /* \"contracts/6_Product.sol\":1515:1518  _id */\n      dup5\n        /* \"contracts/6_Product.sol\":1515:1522  _id > 0 */\n      gt\n        /* \"contracts/6_Product.sol\":1515:1545  _id > 0 && _id <= productCount */\n      dup1\n      iszero\n      tag_85\n      jumpi\n      pop\n        /* \"contracts/6_Product.sol\":1533:1545  productCount */\n      sload(0x01)\n        /* \"contracts/6_Product.sol\":1526:1529  _id */\n      dup5\n        /* \"contracts/6_Product.sol\":1526:1545  _id <= productCount */\n      gt\n      iszero\n        /* \"contracts/6_Product.sol\":1515:1545  _id > 0 && _id <= productCount */\n    tag_85:\n        /* \"contracts/6_Product.sol\":1507:1566  require(_id > 0 && _id <= productCount, \"Produit invalide\") */\n      tag_86\n      jumpi\n      mload(0x40)\n      0x08c379a000000000000000000000000000000000000000000000000000000000\n      dup2\n      mstore\n      0x04\n      add\n      tag_87\n      swap1\n      tag_64\n      jump\t// in\n    tag_87:\n      mload(0x40)\n      dup1\n      swap2\n      sub\n      swap1\n      revert\n    tag_86:\n        /* \"contracts/6_Product.sol\":1577:1596  Product memory prod */\n      0x00\n        /* \"contracts/6_Product.sol\":1599:1607  products */\n      dup1\n        /* \"contracts/6_Product.sol\":1599:1612  products[_id] */\n      0x00\n        /* \"contracts/6_Product.sol\":1608:1611  _id */\n      dup7\n        /* \"contracts/6_Product.sol\":1599:1612  products[_id] */\n      dup2\n      mstore\n      0x20\n      add\n      swap1\n      dup2\n      mstore\n      0x20\n      add\n      0x00\n      keccak256\n        /* \"contracts/6_Product.sol\":1577:1612  Product memory prod = products[_id] */\n      mload(0x40)\n      dup1\n      0x60\n      add\n      0x40\n      mstore\n      swap1\n      dup2\n      0x00\n      dup3\n      add\n      dup1\n      sload\n      tag_88\n      swap1\n      tag_68\n      jump\t// in\n    tag_88:\n      dup1\n      0x1f\n      add\n      0x20\n      dup1\n      swap2\n      div\n      mul\n      0x20\n      add\n      mload(0x40)\n      swap1\n      dup2\n      add\n      0x40\n      mstore\n      dup1\n      swap3\n      swap2\n      swap1\n      dup2\n      dup2\n      mstore\n      0x20\n      add\n      dup3\n      dup1\n      sload\n      tag_89\n      swap1\n      tag_68\n      jump\t// in\n    tag_89:\n      dup1\n      iszero\n      tag_90\n      jumpi\n      dup1\n      0x1f\n      lt\n      tag_91\n      jumpi\n      0x0100\n      dup1\n      dup4\n      sload\n      div\n      mul\n      dup4\n      mstore\n      swap2\n      0x20\n      add\n      swap2\n      jump(tag_90)\n    tag_91:\n      dup3\n      add\n      swap2\n      swap1\n      0x00\n      mstore\n      keccak256(0x00, 0x20)\n      swap1\n    tag_92:\n      dup2\n      sload\n      dup2\n      mstore\n      swap1\n      0x01\n      add\n      swap1\n      0x20\n      add\n      dup1\n      dup4\n      gt\n      tag_92\n      jumpi\n      dup3\n      swap1\n      sub\n      0x1f\n      and\n      dup3\n      add\n      swap2\n    tag_90:\n      pop\n      pop\n      pop\n      pop\n      pop\n      dup2\n      mstore\n      0x20\n      add\n      0x01\n      dup3\n      add\n      sload\n      dup2\n      mstore\n      0x20\n      add\n      0x02\n      dup3\n      add\n      sload\n      dup2\n      mstore\n      pop\n      pop\n      swap1\n      pop\n        /* \"contracts/6_Product.sol\":1630:1634  prod */\n      dup1\n        /* \"contracts/6_Product.sol\":1630:1639  prod.name */\n      0x00\n      add\n      mload\n        /* \"contracts/6_Product.sol\":1641:1645  prod */\n      dup2\n        /* \"contracts/6_Product.sol\":1641:1651  prod.price */\n      0x20\n      add\n      mload\n        /* \"contracts/6_Product.sol\":1653:1657  prod */\n      dup3\n        /* \"contracts/6_Product.sol\":1653:1663  prod.stock */\n      0x40\n      add\n      mload\n        /* \"contracts/6_Product.sol\":1622:1664  return (prod.name, prod.price, prod.stock) */\n      swap4\n      pop\n      swap4\n      pop\n      swap4\n      pop\n      pop\n        /* \"contracts/6_Product.sol\":1419:1671  function getProduct(uint _id) public view returns (string memory, uint, uint) {... */\n      swap2\n      swap4\n      swap1\n      swap3\n      pop\n      jump\t// out\n        /* \"contracts/6_Product.sol\":226:250  uint public productCount */\n    tag_40:\n      sload(0x01)\n      dup2\n      jump\t// out\n        /* \"contracts/6_Product.sol\":1215:1408  function deleteProduct(uint _id) external onlyOwner {... */\n    tag_45:\n        /* \"contracts/6_Product.sol\":396:401  owner */\n      0x02\n      0x00\n      swap1\n      sload\n      swap1\n      0x0100\n      exp\n      swap1\n      div\n      0xffffffffffffffffffffffffffffffffffffffff\n      and\n        /* \"contracts/6_Product.sol\":382:401  msg.sender == owner */\n      0xffffffffffffffffffffffffffffffffffffffff\n      and\n        /* \"contracts/6_Product.sol\":382:392  msg.sender */\n      caller\n        /* \"contracts/6_Product.sol\":382:401  msg.sender == owner */\n      0xffffffffffffffffffffffffffffffffffffffff\n      and\n      eq\n        /* \"contracts/6_Product.sol\":374:445  require(msg.sender == owner, \"Acces refuse: seulement le proprietaire\") */\n      tag_94\n      jumpi\n      mload(0x40)\n      0x08c379a000000000000000000000000000000000000000000000000000000000\n      dup2\n      mstore\n      0x04\n      add\n      tag_95\n      swap1\n      tag_49\n      jump\t// in\n    tag_95:\n      mload(0x40)\n      dup1\n      swap2\n      sub\n      swap1\n      revert\n    tag_94:\n        /* \"contracts/6_Product.sol\":1291:1292  0 */\n      0x00\n        /* \"contracts/6_Product.sol\":1285:1288  _id */\n      dup2\n        /* \"contracts/6_Product.sol\":1285:1292  _id > 0 */\n      gt\n        /* \"contracts/6_Product.sol\":1285:1315  _id > 0 && _id <= productCount */\n      dup1\n      iszero\n      tag_97\n      jumpi\n      pop\n        /* \"contracts/6_Product.sol\":1303:1315  productCount */\n      sload(0x01)\n        /* \"contracts/6_Product.sol\":1296:1299  _id */\n      dup2\n        /* \"contracts/6_Product.sol\":1296:1315  _id <= productCount */\n      gt\n      iszero\n        /* \"contracts/6_Product.sol\":1285:1315  _id > 0 && _id <= productCount */\n    tag_97:\n        /* \"contracts/6_Product.sol\":1277:1336  require(_id > 0 && _id <= productCount, \"Produit invalide\") */\n      tag_98\n      jumpi\n      mload(0x40)\n      0x08c379a000000000000000000000000000000000000000000000000000000000\n      dup2\n      mstore\n      0x04\n      add\n      tag_99\n      swap1\n      tag_64\n      jump\t// in\n    tag_99:\n      mload(0x40)\n      dup1\n      swap2\n      sub\n      swap1\n      revert\n    tag_98:\n        /* \"contracts/6_Product.sol\":1354:1362  products */\n      0x00\n        /* \"contracts/6_Product.sol\":1354:1367  products[_id] */\n      dup1\n        /* \"contracts/6_Product.sol\":1363:1366  _id */\n      dup3\n        /* \"contracts/6_Product.sol\":1354:1367  products[_id] */\n      dup2\n      mstore\n      0x20\n      add\n      swap1\n      dup2\n      mstore\n      0x20\n      add\n      0x00\n      keccak256\n      0x00\n        /* \"contracts/6_Product.sol\":1347:1367  delete products[_id] */\n      dup1\n      dup3\n      add\n      0x00\n      tag_100\n      swap2\n      swap1\n      tag_101\n      jump\t// in\n    tag_100:\n      0x01\n      dup3\n      add\n      0x00\n      swap1\n      sstore\n      0x02\n      dup3\n      add\n      0x00\n      swap1\n      sstore\n      pop\n      pop\n        /* \"contracts/6_Product.sol\":1382:1401  ProductDeleted(_id) */\n      0xc341cf326465fe622f86c468249e8c0cb03ed23ba376a6a34863a1374ac7d769\n        /* \"contracts/6_Product.sol\":1397:1400  _id */\n      dup2\n        /* \"contracts/6_Product.sol\":1382:1401  ProductDeleted(_id) */\n      mload(0x40)\n      tag_102\n      swap2\n      swap1\n      tag_42\n      jump\t// in\n    tag_102:\n      mload(0x40)\n      dup1\n      swap2\n      sub\n      swap1\n      log1\n        /* \"contracts/6_Product.sol\":1215:1408  function deleteProduct(uint _id) external onlyOwner {... */\n      pop\n      jump\t// out\n    tag_74:\n      mload(0x40)\n      dup1\n      0x60\n      add\n      0x40\n      mstore\n      dup1\n      0x60\n      dup2\n      mstore\n      0x20\n      add\n      0x00\n      dup2\n      mstore\n      0x20\n      add\n      0x00\n      dup2\n      mstore\n      pop\n      swap1\n      jump\t// out\n    tag_101:\n      pop\n      dup1\n      sload\n      tag_103\n      swap1\n      tag_68\n      jump\t// in\n    tag_103:\n      0x00\n      dup3\n      sstore\n      dup1\n      0x1f\n      lt\n      tag_105\n      jumpi\n      pop\n      jump(tag_104)\n    tag_105:\n      0x1f\n      add\n      0x20\n      swap1\n      div\n      swap1\n      0x00\n      mstore\n      keccak256(0x00, 0x20)\n      swap1\n      dup2\n      add\n      swap1\n      tag_106\n      swap2\n      swap1\n      tag_107\n      jump\t// in\n    tag_106:\n    tag_104:\n      pop\n      jump\t// out\n    tag_107:\n    tag_108:\n      dup1\n      dup3\n      gt\n      iszero\n      tag_109\n      jumpi\n      0x00\n      dup2\n      0x00\n      swap1\n      sstore\n      pop\n      0x01\n      add\n      jump(tag_108)\n    tag_109:\n      pop\n      swap1\n      jump\t// out\n        /* \"#utility.yul\":7:82   */\n    tag_110:\n        /* \"#utility.yul\":40:46   */\n      0x00\n        /* \"#utility.yul\":73:75   */\n      0x40\n        /* \"#utility.yul\":67:76   */\n      mload\n        /* \"#utility.yul\":57:76   */\n      swap1\n      pop\n        /* \"#utility.yul\":7:82   */\n      swap1\n      jump\t// out\n        /* \"#utility.yul\":88:205   */\n    tag_111:\n        /* \"#utility.yul\":197:198   */\n      0x00\n        /* \"#utility.yul\":194:195   */\n      dup1\n        /* \"#utility.yul\":187:199   */\n      revert\n        /* \"#utility.yul\":211:328   */\n    tag_112:\n        /* \"#utility.yul\":320:321   */\n      0x00\n        /* \"#utility.yul\":317:318   */\n      dup1\n        /* \"#utility.yul\":310:322   */\n      revert\n        /* \"#utility.yul\":334:451   */\n    tag_113:\n        /* \"#utility.yul\":443:444   */\n      0x00\n        /* \"#utility.yul\":440:441   */\n      dup1\n        /* \"#utility.yul\":433:445   */\n      revert\n        /* \"#utility.yul\":457:574   */\n    tag_114:\n        /* \"#utility.yul\":566:567   */\n      0x00\n        /* \"#utility.yul\":563:564   */\n      dup1\n        /* \"#utility.yul\":556:568   */\n      revert\n        /* \"#utility.yul\":580:682   */\n    tag_115:\n        /* \"#utility.yul\":621:627   */\n      0x00\n        /* \"#utility.yul\":672:674   */\n      0x1f\n        /* \"#utility.yul\":668:675   */\n      not\n        /* \"#utility.yul\":663:665   */\n      0x1f\n        /* \"#utility.yul\":656:661   */\n      dup4\n        /* \"#utility.yul\":652:666   */\n      add\n        /* \"#utility.yul\":648:676   */\n      and\n        /* \"#utility.yul\":638:676   */\n      swap1\n      pop\n        /* \"#utility.yul\":580:682   */\n      swap2\n      swap1\n      pop\n      jump\t// out\n        /* \"#utility.yul\":688:868   */\n    tag_116:\n        /* \"#utility.yul\":736:813   */\n      0x4e487b7100000000000000000000000000000000000000000000000000000000\n        /* \"#utility.yul\":733:734   */\n      0x00\n        /* \"#utility.yul\":726:814   */\n      mstore\n        /* \"#utility.yul\":833:837   */\n      0x41\n        /* \"#utility.yul\":830:831   */\n      0x04\n        /* \"#utility.yul\":823:838   */\n      mstore\n        /* \"#utility.yul\":857:861   */\n      0x24\n        /* \"#utility.yul\":854:855   */\n      0x00\n        /* \"#utility.yul\":847:862   */\n      revert\n        /* \"#utility.yul\":874:1155   */\n    tag_117:\n        /* \"#utility.yul\":957:984   */\n      tag_168\n        /* \"#utility.yul\":979:983   */\n      dup3\n        /* \"#utility.yul\":957:984   */\n      tag_115\n      jump\t// in\n    tag_168:\n        /* \"#utility.yul\":949:955   */\n      dup2\n        /* \"#utility.yul\":945:985   */\n      add\n        /* \"#utility.yul\":1087:1093   */\n      dup2\n        /* \"#utility.yul\":1075:1085   */\n      dup2\n        /* \"#utility.yul\":1072:1094   */\n      lt\n        /* \"#utility.yul\":1051:1069   */\n      0xffffffffffffffff\n        /* \"#utility.yul\":1039:1049   */\n      dup3\n        /* \"#utility.yul\":1036:1070   */\n      gt\n        /* \"#utility.yul\":1033:1095   */\n      or\n        /* \"#utility.yul\":1030:1118   */\n      iszero\n      tag_169\n      jumpi\n        /* \"#utility.yul\":1098:1116   */\n      tag_170\n      tag_116\n      jump\t// in\n    tag_170:\n        /* \"#utility.yul\":1030:1118   */\n    tag_169:\n        /* \"#utility.yul\":1138:1148   */\n      dup1\n        /* \"#utility.yul\":1134:1136   */\n      0x40\n        /* \"#utility.yul\":1127:1149   */\n      mstore\n        /* \"#utility.yul\":917:1155   */\n      pop\n        /* \"#utility.yul\":874:1155   */\n      pop\n      pop\n      jump\t// out\n        /* \"#utility.yul\":1161:1290   */\n    tag_118:\n        /* \"#utility.yul\":1195:1201   */\n      0x00\n        /* \"#utility.yul\":1222:1242   */\n      tag_172\n      tag_110\n      jump\t// in\n    tag_172:\n        /* \"#utility.yul\":1212:1242   */\n      swap1\n      pop\n        /* \"#utility.yul\":1251:1284   */\n      tag_173\n        /* \"#utility.yul\":1279:1283   */\n      dup3\n        /* \"#utility.yul\":1271:1277   */\n      dup3\n        /* \"#utility.yul\":1251:1284   */\n      tag_117\n      jump\t// in\n    tag_173:\n        /* \"#utility.yul\":1161:1290   */\n      swap2\n      swap1\n      pop\n      jump\t// out\n        /* \"#utility.yul\":1296:1604   */\n    tag_119:\n        /* \"#utility.yul\":1358:1362   */\n      0x00\n        /* \"#utility.yul\":1448:1466   */\n      0xffffffffffffffff\n        /* \"#utility.yul\":1440:1446   */\n      dup3\n        /* \"#utility.yul\":1437:1467   */\n      gt\n        /* \"#utility.yul\":1434:1490   */\n      iszero\n      tag_175\n      jumpi\n        /* \"#utility.yul\":1470:1488   */\n      tag_176\n      tag_116\n      jump\t// in\n    tag_176:\n        /* \"#utility.yul\":1434:1490   */\n    tag_175:\n        /* \"#utility.yul\":1508:1537   */\n      tag_177\n        /* \"#utility.yul\":1530:1536   */\n      dup3\n        /* \"#utility.yul\":1508:1537   */\n      tag_115\n      jump\t// in\n    tag_177:\n        /* \"#utility.yul\":1500:1537   */\n      swap1\n      pop\n        /* \"#utility.yul\":1592:1596   */\n      0x20\n        /* \"#utility.yul\":1586:1590   */\n      dup2\n        /* \"#utility.yul\":1582:1597   */\n      add\n        /* \"#utility.yul\":1574:1597   */\n      swap1\n      pop\n        /* \"#utility.yul\":1296:1604   */\n      swap2\n      swap1\n      pop\n      jump\t// out\n        /* \"#utility.yul\":1610:1758   */\n    tag_120:\n        /* \"#utility.yul\":1708:1714   */\n      dup3\n        /* \"#utility.yul\":1703:1706   */\n      dup2\n        /* \"#utility.yul\":1698:1701   */\n      dup4\n        /* \"#utility.yul\":1685:1715   */\n      calldatacopy\n        /* \"#utility.yul\":1749:1750   */\n      0x00\n        /* \"#utility.yul\":1740:1746   */\n      dup4\n        /* \"#utility.yul\":1735:1738   */\n      dup4\n        /* \"#utility.yul\":1731:1747   */\n      add\n        /* \"#utility.yul\":1724:1751   */\n      mstore\n        /* \"#utility.yul\":1610:1758   */\n      pop\n      pop\n      pop\n      jump\t// out\n        /* \"#utility.yul\":1764:2189   */\n    tag_121:\n        /* \"#utility.yul\":1842:1847   */\n      0x00\n        /* \"#utility.yul\":1867:1933   */\n      tag_180\n        /* \"#utility.yul\":1883:1932   */\n      tag_181\n        /* \"#utility.yul\":1925:1931   */\n      dup5\n        /* \"#utility.yul\":1883:1932   */\n      tag_119\n      jump\t// in\n    tag_181:\n        /* \"#utility.yul\":1867:1933   */\n      tag_118\n      jump\t// in\n    tag_180:\n        /* \"#utility.yul\":1858:1933   */\n      swap1\n      pop\n        /* \"#utility.yul\":1956:1962   */\n      dup3\n        /* \"#utility.yul\":1949:1954   */\n      dup2\n        /* \"#utility.yul\":1942:1963   */\n      mstore\n        /* \"#utility.yul\":1994:1998   */\n      0x20\n        /* \"#utility.yul\":1987:1992   */\n      dup2\n        /* \"#utility.yul\":1983:1999   */\n      add\n        /* \"#utility.yul\":2032:2035   */\n      dup5\n        /* \"#utility.yul\":2023:2029   */\n      dup5\n        /* \"#utility.yul\":2018:2021   */\n      dup5\n        /* \"#utility.yul\":2014:2030   */\n      add\n        /* \"#utility.yul\":2011:2036   */\n      gt\n        /* \"#utility.yul\":2008:2120   */\n      iszero\n      tag_182\n      jumpi\n        /* \"#utility.yul\":2039:2118   */\n      tag_183\n      tag_114\n      jump\t// in\n    tag_183:\n        /* \"#utility.yul\":2008:2120   */\n    tag_182:\n        /* \"#utility.yul\":2129:2183   */\n      tag_184\n        /* \"#utility.yul\":2176:2182   */\n      dup5\n        /* \"#utility.yul\":2171:2174   */\n      dup3\n        /* \"#utility.yul\":2166:2169   */\n      dup6\n        /* \"#utility.yul\":2129:2183   */\n      tag_120\n      jump\t// in\n    tag_184:\n        /* \"#utility.yul\":1848:2189   */\n      pop\n        /* \"#utility.yul\":1764:2189   */\n      swap4\n      swap3\n      pop\n      pop\n      pop\n      jump\t// out\n        /* \"#utility.yul\":2209:2549   */\n    tag_122:\n        /* \"#utility.yul\":2265:2270   */\n      0x00\n        /* \"#utility.yul\":2314:2317   */\n      dup3\n        /* \"#utility.yul\":2307:2311   */\n      0x1f\n        /* \"#utility.yul\":2299:2305   */\n      dup4\n        /* \"#utility.yul\":2295:2312   */\n      add\n        /* \"#utility.yul\":2291:2318   */\n      slt\n        /* \"#utility.yul\":2281:2403   */\n      tag_186\n      jumpi\n        /* \"#utility.yul\":2322:2401   */\n      tag_187\n      tag_113\n      jump\t// in\n    tag_187:\n        /* \"#utility.yul\":2281:2403   */\n    tag_186:\n        /* \"#utility.yul\":2439:2445   */\n      dup2\n        /* \"#utility.yul\":2426:2446   */\n      calldataload\n        /* \"#utility.yul\":2464:2543   */\n      tag_188\n        /* \"#utility.yul\":2539:2542   */\n      dup5\n        /* \"#utility.yul\":2531:2537   */\n      dup3\n        /* \"#utility.yul\":2524:2528   */\n      0x20\n        /* \"#utility.yul\":2516:2522   */\n      dup7\n        /* \"#utility.yul\":2512:2529   */\n      add\n        /* \"#utility.yul\":2464:2543   */\n      tag_121\n      jump\t// in\n    tag_188:\n        /* \"#utility.yul\":2455:2543   */\n      swap2\n      pop\n        /* \"#utility.yul\":2271:2549   */\n      pop\n        /* \"#utility.yul\":2209:2549   */\n      swap3\n      swap2\n      pop\n      pop\n      jump\t// out\n        /* \"#utility.yul\":2555:2632   */\n    tag_123:\n        /* \"#utility.yul\":2592:2599   */\n      0x00\n        /* \"#utility.yul\":2621:2626   */\n      dup2\n        /* \"#utility.yul\":2610:2626   */\n      swap1\n      pop\n        /* \"#utility.yul\":2555:2632   */\n      swap2\n      swap1\n      pop\n      jump\t// out\n        /* \"#utility.yul\":2638:2760   */\n    tag_124:\n        /* \"#utility.yul\":2711:2735   */\n      tag_191\n        /* \"#utility.yul\":2729:2734   */\n      dup2\n        /* \"#utility.yul\":2711:2735   */\n      tag_123\n      jump\t// in\n    tag_191:\n        /* \"#utility.yul\":2704:2709   */\n      dup2\n        /* \"#utility.yul\":2701:2736   */\n      eq\n        /* \"#utility.yul\":2691:2754   */\n      tag_192\n      jumpi\n        /* \"#utility.yul\":2750:2751   */\n      0x00\n        /* \"#utility.yul\":2747:2748   */\n      dup1\n        /* \"#utility.yul\":2740:2752   */\n      revert\n        /* \"#utility.yul\":2691:2754   */\n    tag_192:\n        /* \"#utility.yul\":2638:2760   */\n      pop\n      jump\t// out\n        /* \"#utility.yul\":2766:2905   */\n    tag_125:\n        /* \"#utility.yul\":2812:2817   */\n      0x00\n        /* \"#utility.yul\":2850:2856   */\n      dup2\n        /* \"#utility.yul\":2837:2857   */\n      calldataload\n        /* \"#utility.yul\":2828:2857   */\n      swap1\n      pop\n        /* \"#utility.yul\":2866:2899   */\n      tag_194\n        /* \"#utility.yul\":2893:2898   */\n      dup2\n        /* \"#utility.yul\":2866:2899   */\n      tag_124\n      jump\t// in\n    tag_194:\n        /* \"#utility.yul\":2766:2905   */\n      swap3\n      swap2\n      pop\n      pop\n      jump\t// out\n        /* \"#utility.yul\":2911:3710   */\n    tag_14:\n        /* \"#utility.yul\":2998:3004   */\n      0x00\n        /* \"#utility.yul\":3006:3012   */\n      dup1\n        /* \"#utility.yul\":3014:3020   */\n      0x00\n        /* \"#utility.yul\":3063:3065   */\n      0x60\n        /* \"#utility.yul\":3051:3060   */\n      dup5\n        /* \"#utility.yul\":3042:3049   */\n      dup7\n        /* \"#utility.yul\":3038:3061   */\n      sub\n        /* \"#utility.yul\":3034:3066   */\n      slt\n        /* \"#utility.yul\":3031:3150   */\n      iszero\n      tag_196\n      jumpi\n        /* \"#utility.yul\":3069:3148   */\n      tag_197\n      tag_111\n      jump\t// in\n    tag_197:\n        /* \"#utility.yul\":3031:3150   */\n    tag_196:\n        /* \"#utility.yul\":3217:3218   */\n      0x00\n        /* \"#utility.yul\":3206:3215   */\n      dup5\n        /* \"#utility.yul\":3202:3219   */\n      add\n        /* \"#utility.yul\":3189:3220   */\n      calldataload\n        /* \"#utility.yul\":3247:3265   */\n      0xffffffffffffffff\n        /* \"#utility.yul\":3239:3245   */\n      dup2\n        /* \"#utility.yul\":3236:3266   */\n      gt\n        /* \"#utility.yul\":3233:3350   */\n      iszero\n      tag_198\n      jumpi\n        /* \"#utility.yul\":3269:3348   */\n      tag_199\n      tag_112\n      jump\t// in\n    tag_199:\n        /* \"#utility.yul\":3233:3350   */\n    tag_198:\n        /* \"#utility.yul\":3374:3437   */\n      tag_200\n        /* \"#utility.yul\":3429:3436   */\n      dup7\n        /* \"#utility.yul\":3420:3426   */\n      dup3\n        /* \"#utility.yul\":3409:3418   */\n      dup8\n        /* \"#utility.yul\":3405:3427   */\n      add\n        /* \"#utility.yul\":3374:3437   */\n      tag_122\n      jump\t// in\n    tag_200:\n        /* \"#utility.yul\":3364:3437   */\n      swap4\n      pop\n        /* \"#utility.yul\":3160:3447   */\n      pop\n        /* \"#utility.yul\":3486:3488   */\n      0x20\n        /* \"#utility.yul\":3512:3565   */\n      tag_201\n        /* \"#utility.yul\":3557:3564   */\n      dup7\n        /* \"#utility.yul\":3548:3554   */\n      dup3\n        /* \"#utility.yul\":3537:3546   */\n      dup8\n        /* \"#utility.yul\":3533:3555   */\n      add\n        /* \"#utility.yul\":3512:3565   */\n      tag_125\n      jump\t// in\n    tag_201:\n        /* \"#utility.yul\":3502:3565   */\n      swap3\n      pop\n        /* \"#utility.yul\":3457:3575   */\n      pop\n        /* \"#utility.yul\":3614:3616   */\n      0x40\n        /* \"#utility.yul\":3640:3693   */\n      tag_202\n        /* \"#utility.yul\":3685:3692   */\n      dup7\n        /* \"#utility.yul\":3676:3682   */\n      dup3\n        /* \"#utility.yul\":3665:3674   */\n      dup8\n        /* \"#utility.yul\":3661:3683   */\n      add\n        /* \"#utility.yul\":3640:3693   */\n      tag_125\n      jump\t// in\n    tag_202:\n        /* \"#utility.yul\":3630:3693   */\n      swap2\n      pop\n        /* \"#utility.yul\":3585:3703   */\n      pop\n        /* \"#utility.yul\":2911:3710   */\n      swap3\n      pop\n      swap3\n      pop\n      swap3\n      jump\t// out\n        /* \"#utility.yul\":3716:4661   */\n    tag_18:\n        /* \"#utility.yul\":3812:3818   */\n      0x00\n        /* \"#utility.yul\":3820:3826   */\n      dup1\n        /* \"#utility.yul\":3828:3834   */\n      0x00\n        /* \"#utility.yul\":3836:3842   */\n      dup1\n        /* \"#utility.yul\":3885:3888   */\n      0x80\n        /* \"#utility.yul\":3873:3882   */\n      dup6\n        /* \"#utility.yul\":3864:3871   */\n      dup8\n        /* \"#utility.yul\":3860:3883   */\n      sub\n        /* \"#utility.yul\":3856:3889   */\n      slt\n        /* \"#utility.yul\":3853:3973   */\n      iszero\n      tag_204\n      jumpi\n        /* \"#utility.yul\":3892:3971   */\n      tag_205\n      tag_111\n      jump\t// in\n    tag_205:\n        /* \"#utility.yul\":3853:3973   */\n    tag_204:\n        /* \"#utility.yul\":4012:4013   */\n      0x00\n        /* \"#utility.yul\":4037:4090   */\n      tag_206\n        /* \"#utility.yul\":4082:4089   */\n      dup8\n        /* \"#utility.yul\":4073:4079   */\n      dup3\n        /* \"#utility.yul\":4062:4071   */\n      dup9\n        /* \"#utility.yul\":4058:4080   */\n      add\n        /* \"#utility.yul\":4037:4090   */\n      tag_125\n      jump\t// in\n    tag_206:\n        /* \"#utility.yul\":4027:4090   */\n      swap5\n      pop\n        /* \"#utility.yul\":3983:4100   */\n      pop\n        /* \"#utility.yul\":4167:4169   */\n      0x20\n        /* \"#utility.yul\":4156:4165   */\n      dup6\n        /* \"#utility.yul\":4152:4170   */\n      add\n        /* \"#utility.yul\":4139:4171   */\n      calldataload\n        /* \"#utility.yul\":4198:4216   */\n      0xffffffffffffffff\n        /* \"#utility.yul\":4190:4196   */\n      dup2\n        /* \"#utility.yul\":4187:4217   */\n      gt\n        /* \"#utility.yul\":4184:4301   */\n      iszero\n      tag_207\n      jumpi\n        /* \"#utility.yul\":4220:4299   */\n      tag_208\n      tag_112\n      jump\t// in\n    tag_208:\n        /* \"#utility.yul\":4184:4301   */\n    tag_207:\n        /* \"#utility.yul\":4325:4388   */\n      tag_209\n        /* \"#utility.yul\":4380:4387   */\n      dup8\n        /* \"#utility.yul\":4371:4377   */\n      dup3\n        /* \"#utility.yul\":4360:4369   */\n      dup9\n        /* \"#utility.yul\":4356:4378   */\n      add\n        /* \"#utility.yul\":4325:4388   */\n      tag_122\n      jump\t// in\n    tag_209:\n        /* \"#utility.yul\":4315:4388   */\n      swap4\n      pop\n        /* \"#utility.yul\":4110:4398   */\n      pop\n        /* \"#utility.yul\":4437:4439   */\n      0x40\n        /* \"#utility.yul\":4463:4516   */\n      tag_210\n        /* \"#utility.yul\":4508:4515   */\n      dup8\n        /* \"#utility.yul\":4499:4505   */\n      dup3\n        /* \"#utility.yul\":4488:4497   */\n      dup9\n        /* \"#utility.yul\":4484:4506   */\n      add\n        /* \"#utility.yul\":4463:4516   */\n      tag_125\n      jump\t// in\n    tag_210:\n        /* \"#utility.yul\":4453:4516   */\n      swap3\n      pop\n        /* \"#utility.yul\":4408:4526   */\n      pop\n        /* \"#utility.yul\":4565:4567   */\n      0x60\n        /* \"#utility.yul\":4591:4644   */\n      tag_211\n        /* \"#utility.yul\":4636:4643   */\n      dup8\n        /* \"#utility.yul\":4627:4633   */\n      dup3\n        /* \"#utility.yul\":4616:4625   */\n      dup9\n        /* \"#utility.yul\":4612:4634   */\n      add\n        /* \"#utility.yul\":4591:4644   */\n      tag_125\n      jump\t// in\n    tag_211:\n        /* \"#utility.yul\":4581:4644   */\n      swap2\n      pop\n        /* \"#utility.yul\":4536:4654   */\n      pop\n        /* \"#utility.yul\":3716:4661   */\n      swap3\n      swap6\n      swap2\n      swap5\n      pop\n      swap3\n      pop\n      jump\t// out\n        /* \"#utility.yul\":4667:4996   */\n    tag_22:\n        /* \"#utility.yul\":4726:4732   */\n      0x00\n        /* \"#utility.yul\":4775:4777   */\n      0x20\n        /* \"#utility.yul\":4763:4772   */\n      dup3\n        /* \"#utility.yul\":4754:4761   */\n      dup5\n        /* \"#utility.yul\":4750:4773   */\n      sub\n        /* \"#utility.yul\":4746:4778   */\n      slt\n        /* \"#utility.yul\":4743:4862   */\n      iszero\n      tag_213\n      jumpi\n        /* \"#utility.yul\":4781:4860   */\n      tag_214\n      tag_111\n      jump\t// in\n    tag_214:\n        /* \"#utility.yul\":4743:4862   */\n    tag_213:\n        /* \"#utility.yul\":4901:4902   */\n      0x00\n        /* \"#utility.yul\":4926:4979   */\n      tag_215\n        /* \"#utility.yul\":4971:4978   */\n      dup5\n        /* \"#utility.yul\":4962:4968   */\n      dup3\n        /* \"#utility.yul\":4951:4960   */\n      dup6\n        /* \"#utility.yul\":4947:4969   */\n      add\n        /* \"#utility.yul\":4926:4979   */\n      tag_125\n      jump\t// in\n    tag_215:\n        /* \"#utility.yul\":4916:4979   */\n      swap2\n      pop\n        /* \"#utility.yul\":4872:4989   */\n      pop\n        /* \"#utility.yul\":4667:4996   */\n      swap3\n      swap2\n      pop\n      pop\n      jump\t// out\n        /* \"#utility.yul\":5002:5101   */\n    tag_126:\n        /* \"#utility.yul\":5054:5060   */\n      0x00\n        /* \"#utility.yul\":5088:5093   */\n      dup2\n        /* \"#utility.yul\":5082:5094   */\n      mload\n        /* \"#utility.yul\":5072:5094   */\n      swap1\n      pop\n        /* \"#utility.yul\":5002:5101   */\n      swap2\n      swap1\n      pop\n      jump\t// out\n        /* \"#utility.yul\":5107:5276   */\n    tag_127:\n        /* \"#utility.yul\":5191:5202   */\n      0x00\n        /* \"#utility.yul\":5225:5231   */\n      dup3\n        /* \"#utility.yul\":5220:5223   */\n      dup3\n        /* \"#utility.yul\":5213:5232   */\n      mstore\n        /* \"#utility.yul\":5265:5269   */\n      0x20\n        /* \"#utility.yul\":5260:5263   */\n      dup3\n        /* \"#utility.yul\":5256:5270   */\n      add\n        /* \"#utility.yul\":5241:5270   */\n      swap1\n      pop\n        /* \"#utility.yul\":5107:5276   */\n      swap3\n      swap2\n      pop\n      pop\n      jump\t// out\n        /* \"#utility.yul\":5282:5421   */\n    tag_128:\n        /* \"#utility.yul\":5371:5377   */\n      dup3\n        /* \"#utility.yul\":5366:5369   */\n      dup2\n        /* \"#utility.yul\":5361:5364   */\n      dup4\n        /* \"#utility.yul\":5355:5378   */\n      mcopy\n        /* \"#utility.yul\":5412:5413   */\n      0x00\n        /* \"#utility.yul\":5403:5409   */\n      dup4\n        /* \"#utility.yul\":5398:5401   */\n      dup4\n        /* \"#utility.yul\":5394:5410   */\n      add\n        /* \"#utility.yul\":5387:5414   */\n      mstore\n        /* \"#utility.yul\":5282:5421   */\n      pop\n      pop\n      pop\n      jump\t// out\n        /* \"#utility.yul\":5427:5804   */\n    tag_129:\n        /* \"#utility.yul\":5515:5518   */\n      0x00\n        /* \"#utility.yul\":5543:5582   */\n      tag_220\n        /* \"#utility.yul\":5576:5581   */\n      dup3\n        /* \"#utility.yul\":5543:5582   */\n      tag_126\n      jump\t// in\n    tag_220:\n        /* \"#utility.yul\":5598:5669   */\n      tag_221\n        /* \"#utility.yul\":5662:5668   */\n      dup2\n        /* \"#utility.yul\":5657:5660   */\n      dup6\n        /* \"#utility.yul\":5598:5669   */\n      tag_127\n      jump\t// in\n    tag_221:\n        /* \"#utility.yul\":5591:5669   */\n      swap4\n      pop\n        /* \"#utility.yul\":5678:5743   */\n      tag_222\n        /* \"#utility.yul\":5736:5742   */\n      dup2\n        /* \"#utility.yul\":5731:5734   */\n      dup6\n        /* \"#utility.yul\":5724:5728   */\n      0x20\n        /* \"#utility.yul\":5717:5722   */\n      dup7\n        /* \"#utility.yul\":5713:5729   */\n      add\n        /* \"#utility.yul\":5678:5743   */\n      tag_128\n      jump\t// in\n    tag_222:\n        /* \"#utility.yul\":5768:5797   */\n      tag_223\n        /* \"#utility.yul\":5790:5796   */\n      dup2\n        /* \"#utility.yul\":5768:5797   */\n      tag_115\n      jump\t// in\n    tag_223:\n        /* \"#utility.yul\":5763:5766   */\n      dup5\n        /* \"#utility.yul\":5759:5798   */\n      add\n        /* \"#utility.yul\":5752:5798   */\n      swap2\n      pop\n        /* \"#utility.yul\":5519:5804   */\n      pop\n        /* \"#utility.yul\":5427:5804   */\n      swap3\n      swap2\n      pop\n      pop\n      jump\t// out\n        /* \"#utility.yul\":5810:5928   */\n    tag_130:\n        /* \"#utility.yul\":5897:5921   */\n      tag_225\n        /* \"#utility.yul\":5915:5920   */\n      dup2\n        /* \"#utility.yul\":5897:5921   */\n      tag_123\n      jump\t// in\n    tag_225:\n        /* \"#utility.yul\":5892:5895   */\n      dup3\n        /* \"#utility.yul\":5885:5922   */\n      mstore\n        /* \"#utility.yul\":5810:5928   */\n      pop\n      pop\n      jump\t// out\n        /* \"#utility.yul\":5934:6467   */\n    tag_25:\n        /* \"#utility.yul\":6103:6107   */\n      0x00\n        /* \"#utility.yul\":6141:6143   */\n      0x60\n        /* \"#utility.yul\":6130:6139   */\n      dup3\n        /* \"#utility.yul\":6126:6144   */\n      add\n        /* \"#utility.yul\":6118:6144   */\n      swap1\n      pop\n        /* \"#utility.yul\":6190:6199   */\n      dup2\n        /* \"#utility.yul\":6184:6188   */\n      dup2\n        /* \"#utility.yul\":6180:6200   */\n      sub\n        /* \"#utility.yul\":6176:6177   */\n      0x00\n        /* \"#utility.yul\":6165:6174   */\n      dup4\n        /* \"#utility.yul\":6161:6178   */\n      add\n        /* \"#utility.yul\":6154:6201   */\n      mstore\n        /* \"#utility.yul\":6218:6296   */\n      tag_227\n        /* \"#utility.yul\":6291:6295   */\n      dup2\n        /* \"#utility.yul\":6282:6288   */\n      dup7\n        /* \"#utility.yul\":6218:6296   */\n      tag_129\n      jump\t// in\n    tag_227:\n        /* \"#utility.yul\":6210:6296   */\n      swap1\n      pop\n        /* \"#utility.yul\":6306:6378   */\n      tag_228\n        /* \"#utility.yul\":6374:6376   */\n      0x20\n        /* \"#utility.yul\":6363:6372   */\n      dup4\n        /* \"#utility.yul\":6359:6377   */\n      add\n        /* \"#utility.yul\":6350:6356   */\n      dup6\n        /* \"#utility.yul\":6306:6378   */\n      tag_130\n      jump\t// in\n    tag_228:\n        /* \"#utility.yul\":6388:6460   */\n      tag_229\n        /* \"#utility.yul\":6456:6458   */\n      0x40\n        /* \"#utility.yul\":6445:6454   */\n      dup4\n        /* \"#utility.yul\":6441:6459   */\n      add\n        /* \"#utility.yul\":6432:6438   */\n      dup5\n        /* \"#utility.yul\":6388:6460   */\n      tag_130\n      jump\t// in\n    tag_229:\n        /* \"#utility.yul\":5934:6467   */\n      swap5\n      swap4\n      pop\n      pop\n      pop\n      pop\n      jump\t// out\n        /* \"#utility.yul\":6473:6632   */\n    tag_131:\n        /* \"#utility.yul\":6547:6558   */\n      0x00\n        /* \"#utility.yul\":6581:6587   */\n      dup3\n        /* \"#utility.yul\":6576:6579   */\n      dup3\n        /* \"#utility.yul\":6569:6588   */\n      mstore\n        /* \"#utility.yul\":6621:6625   */\n      0x20\n        /* \"#utility.yul\":6616:6619   */\n      dup3\n        /* \"#utility.yul\":6612:6626   */\n      add\n        /* \"#utility.yul\":6597:6626   */\n      swap1\n      pop\n        /* \"#utility.yul\":6473:6632   */\n      swap3\n      swap2\n      pop\n      pop\n      jump\t// out\n        /* \"#utility.yul\":6638:6995   */\n    tag_132:\n        /* \"#utility.yul\":6716:6719   */\n      0x00\n        /* \"#utility.yul\":6744:6783   */\n      tag_232\n        /* \"#utility.yul\":6777:6782   */\n      dup3\n        /* \"#utility.yul\":6744:6783   */\n      tag_126\n      jump\t// in\n    tag_232:\n        /* \"#utility.yul\":6799:6860   */\n      tag_233\n        /* \"#utility.yul\":6853:6859   */\n      dup2\n        /* \"#utility.yul\":6848:6851   */\n      dup6\n        /* \"#utility.yul\":6799:6860   */\n      tag_131\n      jump\t// in\n    tag_233:\n        /* \"#utility.yul\":6792:6860   */\n      swap4\n      pop\n        /* \"#utility.yul\":6869:6934   */\n      tag_234\n        /* \"#utility.yul\":6927:6933   */\n      dup2\n        /* \"#utility.yul\":6922:6925   */\n      dup6\n        /* \"#utility.yul\":6915:6919   */\n      0x20\n        /* \"#utility.yul\":6908:6913   */\n      dup7\n        /* \"#utility.yul\":6904:6920   */\n      add\n        /* \"#utility.yul\":6869:6934   */\n      tag_128\n      jump\t// in\n    tag_234:\n        /* \"#utility.yul\":6959:6988   */\n      tag_235\n        /* \"#utility.yul\":6981:6987   */\n      dup2\n        /* \"#utility.yul\":6959:6988   */\n      tag_115\n      jump\t// in\n    tag_235:\n        /* \"#utility.yul\":6954:6957   */\n      dup5\n        /* \"#utility.yul\":6950:6989   */\n      add\n        /* \"#utility.yul\":6943:6989   */\n      swap2\n      pop\n        /* \"#utility.yul\":6720:6995   */\n      pop\n        /* \"#utility.yul\":6638:6995   */\n      swap3\n      swap2\n      pop\n      pop\n      jump\t// out\n        /* \"#utility.yul\":7001:7109   */\n    tag_133:\n        /* \"#utility.yul\":7078:7102   */\n      tag_237\n        /* \"#utility.yul\":7096:7101   */\n      dup2\n        /* \"#utility.yul\":7078:7102   */\n      tag_123\n      jump\t// in\n    tag_237:\n        /* \"#utility.yul\":7073:7076   */\n      dup3\n        /* \"#utility.yul\":7066:7103   */\n      mstore\n        /* \"#utility.yul\":7001:7109   */\n      pop\n      pop\n      jump\t// out\n        /* \"#utility.yul\":7183:7959   */\n    tag_134:\n        /* \"#utility.yul\":7296:7299   */\n      0x00\n        /* \"#utility.yul\":7332:7336   */\n      0x60\n        /* \"#utility.yul\":7327:7330   */\n      dup4\n        /* \"#utility.yul\":7323:7337   */\n      add\n        /* \"#utility.yul\":7419:7423   */\n      0x00\n        /* \"#utility.yul\":7412:7417   */\n      dup4\n        /* \"#utility.yul\":7408:7424   */\n      add\n        /* \"#utility.yul\":7402:7425   */\n      mload\n        /* \"#utility.yul\":7472:7475   */\n      dup5\n        /* \"#utility.yul\":7466:7470   */\n      dup3\n        /* \"#utility.yul\":7462:7476   */\n      sub\n        /* \"#utility.yul\":7455:7459   */\n      0x00\n        /* \"#utility.yul\":7450:7453   */\n      dup7\n        /* \"#utility.yul\":7446:7460   */\n      add\n        /* \"#utility.yul\":7439:7477   */\n      mstore\n        /* \"#utility.yul\":7498:7571   */\n      tag_239\n        /* \"#utility.yul\":7566:7570   */\n      dup3\n        /* \"#utility.yul\":7552:7564   */\n      dup3\n        /* \"#utility.yul\":7498:7571   */\n      tag_132\n      jump\t// in\n    tag_239:\n        /* \"#utility.yul\":7490:7571   */\n      swap2\n      pop\n        /* \"#utility.yul\":7347:7582   */\n      pop\n        /* \"#utility.yul\":7665:7669   */\n      0x20\n        /* \"#utility.yul\":7658:7663   */\n      dup4\n        /* \"#utility.yul\":7654:7670   */\n      add\n        /* \"#utility.yul\":7648:7671   */\n      mload\n        /* \"#utility.yul\":7684:7747   */\n      tag_240\n        /* \"#utility.yul\":7741:7745   */\n      0x20\n        /* \"#utility.yul\":7736:7739   */\n      dup7\n        /* \"#utility.yul\":7732:7746   */\n      add\n        /* \"#utility.yul\":7718:7730   */\n      dup3\n        /* \"#utility.yul\":7684:7747   */\n      tag_133\n      jump\t// in\n    tag_240:\n        /* \"#utility.yul\":7592:7757   */\n      pop\n        /* \"#utility.yul\":7840:7844   */\n      0x40\n        /* \"#utility.yul\":7833:7838   */\n      dup4\n        /* \"#utility.yul\":7829:7845   */\n      add\n        /* \"#utility.yul\":7823:7846   */\n      mload\n        /* \"#utility.yul\":7859:7922   */\n      tag_241\n        /* \"#utility.yul\":7916:7920   */\n      0x40\n        /* \"#utility.yul\":7911:7914   */\n      dup7\n        /* \"#utility.yul\":7907:7921   */\n      add\n        /* \"#utility.yul\":7893:7905   */\n      dup3\n        /* \"#utility.yul\":7859:7922   */\n      tag_133\n      jump\t// in\n    tag_241:\n        /* \"#utility.yul\":7767:7932   */\n      pop\n        /* \"#utility.yul\":7949:7953   */\n      dup1\n        /* \"#utility.yul\":7942:7953   */\n      swap2\n      pop\n        /* \"#utility.yul\":7301:7959   */\n      pop\n        /* \"#utility.yul\":7183:7959   */\n      swap3\n      swap2\n      pop\n      pop\n      jump\t// out\n        /* \"#utility.yul\":7965:8326   */\n    tag_30:\n        /* \"#utility.yul\":8102:8106   */\n      0x00\n        /* \"#utility.yul\":8140:8142   */\n      0x20\n        /* \"#utility.yul\":8129:8138   */\n      dup3\n        /* \"#utility.yul\":8125:8143   */\n      add\n        /* \"#utility.yul\":8117:8143   */\n      swap1\n      pop\n        /* \"#utility.yul\":8189:8198   */\n      dup2\n        /* \"#utility.yul\":8183:8187   */\n      dup2\n        /* \"#utility.yul\":8179:8199   */\n      sub\n        /* \"#utility.yul\":8175:8176   */\n      0x00\n        /* \"#utility.yul\":8164:8173   */\n      dup4\n        /* \"#utility.yul\":8160:8177   */\n      add\n        /* \"#utility.yul\":8153:8200   */\n      mstore\n        /* \"#utility.yul\":8217:8319   */\n      tag_243\n        /* \"#utility.yul\":8314:8318   */\n      dup2\n        /* \"#utility.yul\":8305:8311   */\n      dup5\n        /* \"#utility.yul\":8217:8319   */\n      tag_134\n      jump\t// in\n    tag_243:\n        /* \"#utility.yul\":8209:8319   */\n      swap1\n      pop\n        /* \"#utility.yul\":7965:8326   */\n      swap3\n      swap2\n      pop\n      pop\n      jump\t// out\n        /* \"#utility.yul\":8332:8458   */\n    tag_135:\n        /* \"#utility.yul\":8369:8376   */\n      0x00\n        /* \"#utility.yul\":8409:8451   */\n      0xffffffffffffffffffffffffffffffffffffffff\n        /* \"#utility.yul\":8402:8407   */\n      dup3\n        /* \"#utility.yul\":8398:8452   */\n      and\n        /* \"#utility.yul\":8387:8452   */\n      swap1\n      pop\n        /* \"#utility.yul\":8332:8458   */\n      swap2\n      swap1\n      pop\n      jump\t// out\n        /* \"#utility.yul\":8464:8560   */\n    tag_136:\n        /* \"#utility.yul\":8501:8508   */\n      0x00\n        /* \"#utility.yul\":8530:8554   */\n      tag_246\n        /* \"#utility.yul\":8548:8553   */\n      dup3\n        /* \"#utility.yul\":8530:8554   */\n      tag_135\n      jump\t// in\n    tag_246:\n        /* \"#utility.yul\":8519:8554   */\n      swap1\n      pop\n        /* \"#utility.yul\":8464:8560   */\n      swap2\n      swap1\n      pop\n      jump\t// out\n        /* \"#utility.yul\":8566:8684   */\n    tag_137:\n        /* \"#utility.yul\":8653:8677   */\n      tag_248\n        /* \"#utility.yul\":8671:8676   */\n      dup2\n        /* \"#utility.yul\":8653:8677   */\n      tag_136\n      jump\t// in\n    tag_248:\n        /* \"#utility.yul\":8648:8651   */\n      dup3\n        /* \"#utility.yul\":8641:8678   */\n      mstore\n        /* \"#utility.yul\":8566:8684   */\n      pop\n      pop\n      jump\t// out\n        /* \"#utility.yul\":8690:8912   */\n    tag_34:\n        /* \"#utility.yul\":8783:8787   */\n      0x00\n        /* \"#utility.yul\":8821:8823   */\n      0x20\n        /* \"#utility.yul\":8810:8819   */\n      dup3\n        /* \"#utility.yul\":8806:8824   */\n      add\n        /* \"#utility.yul\":8798:8824   */\n      swap1\n      pop\n        /* \"#utility.yul\":8834:8905   */\n      tag_250\n        /* \"#utility.yul\":8902:8903   */\n      0x00\n        /* \"#utility.yul\":8891:8900   */\n      dup4\n        /* \"#utility.yul\":8887:8904   */\n      add\n        /* \"#utility.yul\":8878:8884   */\n      dup5\n        /* \"#utility.yul\":8834:8905   */\n      tag_137\n      jump\t// in\n    tag_250:\n        /* \"#utility.yul\":8690:8912   */\n      swap3\n      swap2\n      pop\n      pop\n      jump\t// out\n        /* \"#utility.yul\":8918:9140   */\n    tag_42:\n        /* \"#utility.yul\":9011:9015   */\n      0x00\n        /* \"#utility.yul\":9049:9051   */\n      0x20\n        /* \"#utility.yul\":9038:9047   */\n      dup3\n        /* \"#utility.yul\":9034:9052   */\n      add\n        /* \"#utility.yul\":9026:9052   */\n      swap1\n      pop\n        /* \"#utility.yul\":9062:9133   */\n      tag_252\n        /* \"#utility.yul\":9130:9131   */\n      0x00\n        /* \"#utility.yul\":9119:9128   */\n      dup4\n        /* \"#utility.yul\":9115:9132   */\n      add\n        /* \"#utility.yul\":9106:9112   */\n      dup5\n        /* \"#utility.yul\":9062:9133   */\n      tag_130\n      jump\t// in\n    tag_252:\n        /* \"#utility.yul\":8918:9140   */\n      swap3\n      swap2\n      pop\n      pop\n      jump\t// out\n        /* \"#utility.yul\":9146:9372   */\n    tag_138:\n        /* \"#utility.yul\":9286:9320   */\n      0x4163636573207265667573653a207365756c656d656e74206c652070726f7072\n        /* \"#utility.yul\":9282:9283   */\n      0x00\n        /* \"#utility.yul\":9274:9280   */\n      dup3\n        /* \"#utility.yul\":9270:9284   */\n      add\n        /* \"#utility.yul\":9263:9321   */\n      mstore\n        /* \"#utility.yul\":9355:9364   */\n      0x6965746169726500000000000000000000000000000000000000000000000000\n        /* \"#utility.yul\":9350:9352   */\n      0x20\n        /* \"#utility.yul\":9342:9348   */\n      dup3\n        /* \"#utility.yul\":9338:9353   */\n      add\n        /* \"#utility.yul\":9331:9365   */\n      mstore\n        /* \"#utility.yul\":9146:9372   */\n      pop\n      jump\t// out\n        /* \"#utility.yul\":9378:9744   */\n    tag_139:\n        /* \"#utility.yul\":9520:9523   */\n      0x00\n        /* \"#utility.yul\":9541:9608   */\n      tag_255\n        /* \"#utility.yul\":9605:9607   */\n      0x27\n        /* \"#utility.yul\":9600:9603   */\n      dup4\n        /* \"#utility.yul\":9541:9608   */\n      tag_127\n      jump\t// in\n    tag_255:\n        /* \"#utility.yul\":9534:9608   */\n      swap2\n      pop\n        /* \"#utility.yul\":9617:9710   */\n      tag_256\n        /* \"#utility.yul\":9706:9709   */\n      dup3\n        /* \"#utility.yul\":9617:9710   */\n      tag_138\n      jump\t// in\n    tag_256:\n        /* \"#utility.yul\":9735:9737   */\n      0x40\n        /* \"#utility.yul\":9730:9733   */\n      dup3\n        /* \"#utility.yul\":9726:9738   */\n      add\n        /* \"#utility.yul\":9719:9738   */\n      swap1\n      pop\n        /* \"#utility.yul\":9378:9744   */\n      swap2\n      swap1\n      pop\n      jump\t// out\n        /* \"#utility.yul\":9750:10169   */\n    tag_49:\n        /* \"#utility.yul\":9916:9920   */\n      0x00\n        /* \"#utility.yul\":9954:9956   */\n      0x20\n        /* \"#utility.yul\":9943:9952   */\n      dup3\n        /* \"#utility.yul\":9939:9957   */\n      add\n        /* \"#utility.yul\":9931:9957   */\n      swap1\n      pop\n        /* \"#utility.yul\":10003:10012   */\n      dup2\n        /* \"#utility.yul\":9997:10001   */\n      dup2\n        /* \"#utility.yul\":9993:10013   */\n      sub\n        /* \"#utility.yul\":9989:9990   */\n      0x00\n        /* \"#utility.yul\":9978:9987   */\n      dup4\n        /* \"#utility.yul\":9974:9991   */\n      add\n        /* \"#utility.yul\":9967:10014   */\n      mstore\n        /* \"#utility.yul\":10031:10162   */\n      tag_258\n        /* \"#utility.yul\":10157:10161   */\n      dup2\n        /* \"#utility.yul\":10031:10162   */\n      tag_139\n      jump\t// in\n    tag_258:\n        /* \"#utility.yul\":10023:10162   */\n      swap1\n      pop\n        /* \"#utility.yul\":9750:10169   */\n      swap2\n      swap1\n      pop\n      jump\t// out\n        /* \"#utility.yul\":10175:10355   */\n    tag_140:\n        /* \"#utility.yul\":10223:10300   */\n      0x4e487b7100000000000000000000000000000000000000000000000000000000\n        /* \"#utility.yul\":10220:10221   */\n      0x00\n        /* \"#utility.yul\":10213:10301   */\n      mstore\n        /* \"#utility.yul\":10320:10324   */\n      0x11\n        /* \"#utility.yul\":10317:10318   */\n      0x04\n        /* \"#utility.yul\":10310:10325   */\n      mstore\n        /* \"#utility.yul\":10344:10348   */\n      0x24\n        /* \"#utility.yul\":10341:10342   */\n      0x00\n        /* \"#utility.yul\":10334:10349   */\n      revert\n        /* \"#utility.yul\":10361:10594   */\n    tag_52:\n        /* \"#utility.yul\":10400:10403   */\n      0x00\n        /* \"#utility.yul\":10423:10447   */\n      tag_261\n        /* \"#utility.yul\":10441:10446   */\n      dup3\n        /* \"#utility.yul\":10423:10447   */\n      tag_123\n      jump\t// in\n    tag_261:\n        /* \"#utility.yul\":10414:10447   */\n      swap2\n      pop\n        /* \"#utility.yul\":10469:10535   */\n      0xffffffffffffffffffffffffffffffffffffffffffffffffffffffffffffffff\n        /* \"#utility.yul\":10462:10467   */\n      dup3\n        /* \"#utility.yul\":10459:10536   */\n      sub\n        /* \"#utility.yul\":10456:10559   */\n      tag_262\n      jumpi\n        /* \"#utility.yul\":10539:10557   */\n      tag_263\n      tag_140\n      jump\t// in\n    tag_263:\n        /* \"#utility.yul\":10456:10559   */\n    tag_262:\n        /* \"#utility.yul\":10586:10587   */\n      0x01\n        /* \"#utility.yul\":10579:10584   */\n      dup3\n        /* \"#utility.yul\":10575:10588   */\n      add\n        /* \"#utility.yul\":10568:10588   */\n      swap1\n      pop\n        /* \"#utility.yul\":10361:10594   */\n      swap2\n      swap1\n      pop\n      jump\t// out\n        /* \"#utility.yul\":10600:10780   */\n    tag_141:\n        /* \"#utility.yul\":10648:10725   */\n      0x4e487b7100000000000000000000000000000000000000000000000000000000\n        /* \"#utility.yul\":10645:10646   */\n      0x00\n        /* \"#utility.yul\":10638:10726   */\n      mstore\n        /* \"#utility.yul\":10745:10749   */\n      0x22\n        /* \"#utility.yul\":10742:10743   */\n      0x04\n        /* \"#utility.yul\":10735:10750   */\n      mstore\n        /* \"#utility.yul\":10769:10773   */\n      0x24\n        /* \"#utility.yul\":10766:10767   */\n      0x00\n        /* \"#utility.yul\":10759:10774   */\n      revert\n        /* \"#utility.yul\":10786:11106   */\n    tag_68:\n        /* \"#utility.yul\":10830:10836   */\n      0x00\n        /* \"#utility.yul\":10867:10868   */\n      0x02\n        /* \"#utility.yul\":10861:10865   */\n      dup3\n        /* \"#utility.yul\":10857:10869   */\n      div\n        /* \"#utility.yul\":10847:10869   */\n      swap1\n      pop\n        /* \"#utility.yul\":10914:10915   */\n      0x01\n        /* \"#utility.yul\":10908:10912   */\n      dup3\n        /* \"#utility.yul\":10904:10916   */\n      and\n        /* \"#utility.yul\":10935:10953   */\n      dup1\n        /* \"#utility.yul\":10925:11006   */\n      tag_266\n      jumpi\n        /* \"#utility.yul\":10991:10995   */\n      0x7f\n        /* \"#utility.yul\":10983:10989   */\n      dup3\n        /* \"#utility.yul\":10979:10996   */\n      and\n        /* \"#utility.yul\":10969:10996   */\n      swap2\n      pop\n        /* \"#utility.yul\":10925:11006   */\n    tag_266:\n        /* \"#utility.yul\":11053:11055   */\n      0x20\n        /* \"#utility.yul\":11045:11051   */\n      dup3\n        /* \"#utility.yul\":11042:11056   */\n      lt\n        /* \"#utility.yul\":11022:11040   */\n      dup2\n        /* \"#utility.yul\":11019:11057   */\n      sub\n        /* \"#utility.yul\":11016:11100   */\n      tag_267\n      jumpi\n        /* \"#utility.yul\":11072:11090   */\n      tag_268\n      tag_141\n      jump\t// in\n    tag_268:\n        /* \"#utility.yul\":11016:11100   */\n    tag_267:\n        /* \"#utility.yul\":10837:11106   */\n      pop\n        /* \"#utility.yul\":10786:11106   */\n      swap2\n      swap1\n      pop\n      jump\t// out\n        /* \"#utility.yul\":11112:11253   */\n    tag_142:\n        /* \"#utility.yul\":11161:11165   */\n      0x00\n        /* \"#utility.yul\":11184:11187   */\n      dup2\n        /* \"#utility.yul\":11176:11187   */\n      swap1\n      pop\n        /* \"#utility.yul\":11207:11210   */\n      dup2\n        /* \"#utility.yul\":11204:11205   */\n      0x00\n        /* \"#utility.yul\":11197:11211   */\n      mstore\n        /* \"#utility.yul\":11241:11245   */\n      0x20\n        /* \"#utility.yul\":11238:11239   */\n      0x00\n        /* \"#utility.yul\":11228:11246   */\n      keccak256\n        /* \"#utility.yul\":11220:11246   */\n      swap1\n      pop\n        /* \"#utility.yul\":11112:11253   */\n      swap2\n      swap1\n      pop\n      jump\t// out\n        /* \"#utility.yul\":11259:11352   */\n    tag_143:\n        /* \"#utility.yul\":11296:11302   */\n      0x00\n        /* \"#utility.yul\":11343:11345   */\n      0x20\n        /* \"#utility.yul\":11338:11340   */\n      0x1f\n        /* \"#utility.yul\":11331:11336   */\n      dup4\n        /* \"#utility.yul\":11327:11341   */\n      add\n        /* \"#utility.yul\":11323:11346   */\n      div\n        /* \"#utility.yul\":11313:11346   */\n      swap1\n      pop\n        /* \"#utility.yul\":11259:11352   */\n      swap2\n      swap1\n      pop\n      jump\t// out\n        /* \"#utility.yul\":11358:11465   */\n    tag_144:\n        /* \"#utility.yul\":11402:11410   */\n      0x00\n        /* \"#utility.yul\":11452:11457   */\n      dup3\n        /* \"#utility.yul\":11446:11450   */\n      dup3\n        /* \"#utility.yul\":11442:11458   */\n      shl\n        /* \"#utility.yul\":11421:11458   */\n      swap1\n      pop\n        /* \"#utility.yul\":11358:11465   */\n      swap3\n      swap2\n      pop\n      pop\n      jump\t// out\n        /* \"#utility.yul\":11471:11864   */\n    tag_145:\n        /* \"#utility.yul\":11540:11546   */\n      0x00\n        /* \"#utility.yul\":11590:11591   */\n      0x08\n        /* \"#utility.yul\":11578:11588   */\n      dup4\n        /* \"#utility.yul\":11574:11592   */\n      mul\n        /* \"#utility.yul\":11613:11710   */\n      tag_273\n        /* \"#utility.yul\":11643:11709   */\n      0xffffffffffffffffffffffffffffffffffffffffffffffffffffffffffffffff\n        /* \"#utility.yul\":11632:11641   */\n      dup3\n        /* \"#utility.yul\":11613:11710   */\n      tag_144\n      jump\t// in\n    tag_273:\n        /* \"#utility.yul\":11731:11770   */\n      tag_274\n        /* \"#utility.yul\":11761:11769   */\n      dup7\n        /* \"#utility.yul\":11750:11759   */\n      dup4\n        /* \"#utility.yul\":11731:11770   */\n      tag_144\n      jump\t// in\n    tag_274:\n        /* \"#utility.yul\":11719:11770   */\n      swap6\n      pop\n        /* \"#utility.yul\":11803:11807   */\n      dup1\n        /* \"#utility.yul\":11799:11808   */\n      not\n        /* \"#utility.yul\":11792:11797   */\n      dup5\n        /* \"#utility.yul\":11788:11809   */\n      and\n        /* \"#utility.yul\":11779:11809   */\n      swap4\n      pop\n        /* \"#utility.yul\":11852:11856   */\n      dup1\n        /* \"#utility.yul\":11842:11850   */\n      dup7\n        /* \"#utility.yul\":11838:11857   */\n      and\n        /* \"#utility.yul\":11831:11836   */\n      dup5\n        /* \"#utility.yul\":11828:11858   */\n      or\n        /* \"#utility.yul\":11818:11858   */\n      swap3\n      pop\n        /* \"#utility.yul\":11547:11864   */\n      pop\n      pop\n        /* \"#utility.yul\":11471:11864   */\n      swap4\n      swap3\n      pop\n      pop\n      pop\n      jump\t// out\n        /* \"#utility.yul\":11870:11930   */\n    tag_146:\n        /* \"#utility.yul\":11898:11901   */\n      0x00\n        /* \"#utility.yul\":11919:11924   */\n      dup2\n        /* \"#utility.yul\":11912:11924   */\n      swap1\n      pop\n        /* \"#utility.yul\":11870:11930   */\n      swap2\n      swap1\n      pop\n      jump\t// out\n        /* \"#utility.yul\":11936:12078   */\n    tag_147:\n        /* \"#utility.yul\":11986:11995   */\n      0x00\n        /* \"#utility.yul\":12019:12072   */\n      tag_277\n        /* \"#utility.yul\":12037:12071   */\n      tag_278\n        /* \"#utility.yul\":12046:12070   */\n      tag_279\n        /* \"#utility.yul\":12064:12069   */\n      dup5\n        /* \"#utility.yul\":12046:12070   */\n      tag_123\n      jump\t// in\n    tag_279:\n        /* \"#utility.yul\":12037:12071   */\n      tag_146\n      jump\t// in\n    tag_278:\n        /* \"#utility.yul\":12019:12072   */\n      tag_123\n      jump\t// in\n    tag_277:\n        /* \"#utility.yul\":12006:12072   */\n      swap1\n      pop\n        /* \"#utility.yul\":11936:12078   */\n      swap2\n      swap1\n      pop\n      jump\t// out\n        /* \"#utility.yul\":12084:12159   */\n    tag_148:\n        /* \"#utility.yul\":12127:12130   */\n      0x00\n        /* \"#utility.yul\":12148:12153   */\n      dup2\n        /* \"#utility.yul\":12141:12153   */\n      swap1\n      pop\n        /* \"#utility.yul\":12084:12159   */\n      swap2\n      swap1\n      pop\n      jump\t// out\n        /* \"#utility.yul\":12165:12434   */\n    tag_149:\n        /* \"#utility.yul\":12275:12314   */\n      tag_282\n        /* \"#utility.yul\":12306:12313   */\n      dup4\n        /* \"#utility.yul\":12275:12314   */\n      tag_147\n      jump\t// in\n    tag_282:\n        /* \"#utility.yul\":12336:12427   */\n      tag_283\n        /* \"#utility.yul\":12385:12426   */\n      tag_284\n        /* \"#utility.yul\":12409:12425   */\n      dup3\n        /* \"#utility.yul\":12385:12426   */\n      tag_148\n      jump\t// in\n    tag_284:\n        /* \"#utility.yul\":12377:12383   */\n      dup5\n        /* \"#utility.yul\":12370:12374   */\n      dup5\n        /* \"#utility.yul\":12364:12375   */\n      sload\n        /* \"#utility.yul\":12336:12427   */\n      tag_145\n      jump\t// in\n    tag_283:\n        /* \"#utility.yul\":12330:12334   */\n      dup3\n        /* \"#utility.yul\":12323:12428   */\n      sstore\n        /* \"#utility.yul\":12241:12434   */\n      pop\n        /* \"#utility.yul\":12165:12434   */\n      pop\n      pop\n      pop\n      jump\t// out\n        /* \"#utility.yul\":12440:12513   */\n    tag_150:\n        /* \"#utility.yul\":12485:12488   */\n      0x00\n        /* \"#utility.yul\":12440:12513   */\n      swap1\n      jump\t// out\n        /* \"#utility.yul\":12519:12708   */\n    tag_151:\n        /* \"#utility.yul\":12596:12628   */\n      tag_287\n      tag_150\n      jump\t// in\n    tag_287:\n        /* \"#utility.yul\":12637:12702   */\n      tag_288\n        /* \"#utility.yul\":12695:12701   */\n      dup2\n        /* \"#utility.yul\":12687:12693   */\n      dup5\n        /* \"#utility.yul\":12681:12685   */\n      dup5\n        /* \"#utility.yul\":12637:12702   */\n      tag_149\n      jump\t// in\n    tag_288:\n        /* \"#utility.yul\":12572:12708   */\n      pop\n        /* \"#utility.yul\":12519:12708   */\n      pop\n      pop\n      jump\t// out\n        /* \"#utility.yul\":12714:12900   */\n    tag_152:\n        /* \"#utility.yul\":12774:12894   */\n    tag_290:\n        /* \"#utility.yul\":12791:12794   */\n      dup2\n        /* \"#utility.yul\":12784:12789   */\n      dup2\n        /* \"#utility.yul\":12781:12795   */\n      lt\n        /* \"#utility.yul\":12774:12894   */\n      iszero\n      tag_292\n      jumpi\n        /* \"#utility.yul\":12845:12884   */\n      tag_293\n        /* \"#utility.yul\":12882:12883   */\n      0x00\n        /* \"#utility.yul\":12875:12880   */\n      dup3\n        /* \"#utility.yul\":12845:12884   */\n      tag_151\n      jump\t// in\n    tag_293:\n        /* \"#utility.yul\":12818:12819   */\n      0x01\n        /* \"#utility.yul\":12811:12816   */\n      dup2\n        /* \"#utility.yul\":12807:12820   */\n      add\n        /* \"#utility.yul\":12798:12820   */\n      swap1\n      pop\n        /* \"#utility.yul\":12774:12894   */\n      jump(tag_290)\n    tag_292:\n        /* \"#utility.yul\":12714:12900   */\n      pop\n      pop\n      jump\t// out\n        /* \"#utility.yul\":12906:13449   */\n    tag_153:\n        /* \"#utility.yul\":13007:13009   */\n      0x1f\n        /* \"#utility.yul\":13002:13005   */\n      dup3\n        /* \"#utility.yul\":12999:13010   */\n      gt\n        /* \"#utility.yul\":12996:13442   */\n      iszero\n      tag_295\n      jumpi\n        /* \"#utility.yul\":13041:13079   */\n      tag_296\n        /* \"#utility.yul\":13073:13078   */\n      dup2\n        /* \"#utility.yul\":13041:13079   */\n      tag_142\n      jump\t// in\n    tag_296:\n        /* \"#utility.yul\":13125:13154   */\n      tag_297\n        /* \"#utility.yul\":13143:13153   */\n      dup5\n        /* \"#utility.yul\":13125:13154   */\n      tag_143\n      jump\t// in\n    tag_297:\n        /* \"#utility.yul\":13115:13123   */\n      dup2\n        /* \"#utility.yul\":13111:13155   */\n      add\n        /* \"#utility.yul\":13308:13310   */\n      0x20\n        /* \"#utility.yul\":13296:13306   */\n      dup6\n        /* \"#utility.yul\":13293:13311   */\n      lt\n        /* \"#utility.yul\":13290:13339   */\n      iszero\n      tag_298\n      jumpi\n        /* \"#utility.yul\":13329:13337   */\n      dup2\n        /* \"#utility.yul\":13314:13337   */\n      swap1\n      pop\n        /* \"#utility.yul\":13290:13339   */\n    tag_298:\n        /* \"#utility.yul\":13352:13432   */\n      tag_299\n        /* \"#utility.yul\":13408:13430   */\n      tag_300\n        /* \"#utility.yul\":13426:13429   */\n      dup6\n        /* \"#utility.yul\":13408:13430   */\n      tag_143\n      jump\t// in\n    tag_300:\n        /* \"#utility.yul\":13398:13406   */\n      dup4\n        /* \"#utility.yul\":13394:13431   */\n      add\n        /* \"#utility.yul\":13381:13392   */\n      dup3\n        /* \"#utility.yul\":13352:13432   */\n      tag_152\n      jump\t// in\n    tag_299:\n        /* \"#utility.yul\":13011:13442   */\n      pop\n      pop\n        /* \"#utility.yul\":12996:13442   */\n    tag_295:\n        /* \"#utility.yul\":12906:13449   */\n      pop\n      pop\n      pop\n      jump\t// out\n        /* \"#utility.yul\":13455:13572   */\n    tag_154:\n        /* \"#utility.yul\":13509:13517   */\n      0x00\n        /* \"#utility.yul\":13559:13564   */\n      dup3\n        /* \"#utility.yul\":13553:13557   */\n      dup3\n        /* \"#utility.yul\":13549:13565   */\n      shr\n        /* \"#utility.yul\":13528:13565   */\n      swap1\n      pop\n        /* \"#utility.yul\":13455:13572   */\n      swap3\n      swap2\n      pop\n      pop\n      jump\t// out\n        /* \"#utility.yul\":13578:13747   */\n    tag_155:\n        /* \"#utility.yul\":13622:13628   */\n      0x00\n        /* \"#utility.yul\":13655:13706   */\n      tag_303\n        /* \"#utility.yul\":13703:13704   */\n      0x00\n        /* \"#utility.yul\":13699:13705   */\n      not\n        /* \"#utility.yul\":13691:13696   */\n      dup5\n        /* \"#utility.yul\":13688:13689   */\n      0x08\n        /* \"#utility.yul\":13684:13697   */\n      mul\n        /* \"#utility.yul\":13655:13706   */\n      tag_154\n      jump\t// in\n    tag_303:\n        /* \"#utility.yul\":13651:13707   */\n      not\n        /* \"#utility.yul\":13736:13740   */\n      dup1\n        /* \"#utility.yul\":13730:13734   */\n      dup4\n        /* \"#utility.yul\":13726:13741   */\n      and\n        /* \"#utility.yul\":13716:13741   */\n      swap2\n      pop\n        /* \"#utility.yul\":13629:13747   */\n      pop\n        /* \"#utility.yul\":13578:13747   */\n      swap3\n      swap2\n      pop\n      pop\n      jump\t// out\n        /* \"#utility.yul\":13752:14047   */\n    tag_156:\n        /* \"#utility.yul\":13828:13832   */\n      0x00\n        /* \"#utility.yul\":13974:14003   */\n      tag_305\n        /* \"#utility.yul\":13999:14002   */\n      dup4\n        /* \"#utility.yul\":13993:13997   */\n      dup4\n        /* \"#utility.yul\":13974:14003   */\n      tag_155\n      jump\t// in\n    tag_305:\n        /* \"#utility.yul\":13966:14003   */\n      swap2\n      pop\n        /* \"#utility.yul\":14036:14039   */\n      dup3\n        /* \"#utility.yul\":14033:14034   */\n      0x02\n        /* \"#utility.yul\":14029:14040   */\n      mul\n        /* \"#utility.yul\":14023:14027   */\n      dup3\n        /* \"#utility.yul\":14020:14041   */\n      or\n        /* \"#utility.yul\":14012:14041   */\n      swap1\n      pop\n        /* \"#utility.yul\":13752:14047   */\n      swap3\n      swap2\n      pop\n      pop\n      jump\t// out\n        /* \"#utility.yul\":14052:15447   */\n    tag_54:\n        /* \"#utility.yul\":14169:14206   */\n      tag_307\n        /* \"#utility.yul\":14202:14205   */\n      dup3\n        /* \"#utility.yul\":14169:14206   */\n      tag_126\n      jump\t// in\n    tag_307:\n        /* \"#utility.yul\":14271:14289   */\n      0xffffffffffffffff\n        /* \"#utility.yul\":14263:14269   */\n      dup2\n        /* \"#utility.yul\":14260:14290   */\n      gt\n        /* \"#utility.yul\":14257:14313   */\n      iszero\n      tag_308\n      jumpi\n        /* \"#utility.yul\":14293:14311   */\n      tag_309\n      tag_116\n      jump\t// in\n    tag_309:\n        /* \"#utility.yul\":14257:14313   */\n    tag_308:\n        /* \"#utility.yul\":14337:14375   */\n      tag_310\n        /* \"#utility.yul\":14369:14373   */\n      dup3\n        /* \"#utility.yul\":14363:14374   */\n      sload\n        /* \"#utility.yul\":14337:14375   */\n      tag_68\n      jump\t// in\n    tag_310:\n        /* \"#utility.yul\":14422:14489   */\n      tag_311\n        /* \"#utility.yul\":14482:14488   */\n      dup3\n        /* \"#utility.yul\":14474:14480   */\n      dup3\n        /* \"#utility.yul\":14468:14472   */\n      dup6\n        /* \"#utility.yul\":14422:14489   */\n      tag_153\n      jump\t// in\n    tag_311:\n        /* \"#utility.yul\":14516:14517   */\n      0x00\n        /* \"#utility.yul\":14540:14544   */\n      0x20\n        /* \"#utility.yul\":14527:14544   */\n      swap1\n      pop\n        /* \"#utility.yul\":14572:14574   */\n      0x1f\n        /* \"#utility.yul\":14564:14570   */\n      dup4\n        /* \"#utility.yul\":14561:14575   */\n      gt\n        /* \"#utility.yul\":14589:14590   */\n      0x01\n        /* \"#utility.yul\":14584:15202   */\n      dup2\n      eq\n      tag_313\n      jumpi\n        /* \"#utility.yul\":15246:15247   */\n      0x00\n        /* \"#utility.yul\":15263:15269   */\n      dup5\n        /* \"#utility.yul\":15260:15337   */\n      iszero\n      tag_314\n      jumpi\n        /* \"#utility.yul\":15312:15321   */\n      dup3\n        /* \"#utility.yul\":15307:15310   */\n      dup8\n        /* \"#utility.yul\":15303:15322   */\n      add\n        /* \"#utility.yul\":15297:15323   */\n      mload\n        /* \"#utility.yul\":15288:15323   */\n      swap1\n      pop\n        /* \"#utility.yul\":15260:15337   */\n    tag_314:\n        /* \"#utility.yul\":15363:15430   */\n      tag_315\n        /* \"#utility.yul\":15423:15429   */\n      dup6\n        /* \"#utility.yul\":15416:15421   */\n      dup3\n        /* \"#utility.yul\":15363:15430   */\n      tag_156\n      jump\t// in\n    tag_315:\n        /* \"#utility.yul\":15357:15361   */\n      dup7\n        /* \"#utility.yul\":15350:15431   */\n      sstore\n        /* \"#utility.yul\":15219:15441   */\n      pop\n        /* \"#utility.yul\":14554:15441   */\n      jump(tag_312)\n        /* \"#utility.yul\":14584:15202   */\n    tag_313:\n        /* \"#utility.yul\":14636:14640   */\n      0x1f\n        /* \"#utility.yul\":14632:14641   */\n      not\n        /* \"#utility.yul\":14624:14630   */\n      dup5\n        /* \"#utility.yul\":14620:14642   */\n      and\n        /* \"#utility.yul\":14670:14707   */\n      tag_316\n        /* \"#utility.yul\":14702:14706   */\n      dup7\n        /* \"#utility.yul\":14670:14707   */\n      tag_142\n      jump\t// in\n    tag_316:\n        /* \"#utility.yul\":14729:14730   */\n      0x00\n        /* \"#utility.yul\":14743:14951   */\n    tag_317:\n        /* \"#utility.yul\":14757:14764   */\n      dup3\n        /* \"#utility.yul\":14754:14755   */\n      dup2\n        /* \"#utility.yul\":14751:14765   */\n      lt\n        /* \"#utility.yul\":14743:14951   */\n      iszero\n      tag_319\n      jumpi\n        /* \"#utility.yul\":14836:14845   */\n      dup5\n        /* \"#utility.yul\":14831:14834   */\n      dup10\n        /* \"#utility.yul\":14827:14846   */\n      add\n        /* \"#utility.yul\":14821:14847   */\n      mload\n        /* \"#utility.yul\":14813:14819   */\n      dup3\n        /* \"#utility.yul\":14806:14848   */\n      sstore\n        /* \"#utility.yul\":14887:14888   */\n      0x01\n        /* \"#utility.yul\":14879:14885   */\n      dup3\n        /* \"#utility.yul\":14875:14889   */\n      add\n        /* \"#utility.yul\":14865:14889   */\n      swap2\n      pop\n        /* \"#utility.yul\":14934:14936   */\n      0x20\n        /* \"#utility.yul\":14923:14932   */\n      dup6\n        /* \"#utility.yul\":14919:14937   */\n      add\n        /* \"#utility.yul\":14906:14937   */\n      swap5\n      pop\n        /* \"#utility.yul\":14780:14784   */\n      0x20\n        /* \"#utility.yul\":14777:14778   */\n      dup2\n        /* \"#utility.yul\":14773:14785   */\n      add\n        /* \"#utility.yul\":14768:14785   */\n      swap1\n      pop\n        /* \"#utility.yul\":14743:14951   */\n      jump(tag_317)\n    tag_319:\n        /* \"#utility.yul\":14979:14985   */\n      dup7\n        /* \"#utility.yul\":14970:14977   */\n      dup4\n        /* \"#utility.yul\":14967:14986   */\n      lt\n        /* \"#utility.yul\":14964:15143   */\n      iszero\n      tag_320\n      jumpi\n        /* \"#utility.yul\":15037:15046   */\n      dup5\n        /* \"#utility.yul\":15032:15035   */\n      dup10\n        /* \"#utility.yul\":15028:15047   */\n      add\n        /* \"#utility.yul\":15022:15048   */\n      mload\n        /* \"#utility.yul\":15080:15128   */\n      tag_321\n        /* \"#utility.yul\":15122:15126   */\n      0x1f\n        /* \"#utility.yul\":15114:15120   */\n      dup10\n        /* \"#utility.yul\":15110:15127   */\n      and\n        /* \"#utility.yul\":15099:15108   */\n      dup3\n        /* \"#utility.yul\":15080:15128   */\n      tag_155\n      jump\t// in\n    tag_321:\n        /* \"#utility.yul\":15072:15078   */\n      dup4\n        /* \"#utility.yul\":15065:15129   */\n      sstore\n        /* \"#utility.yul\":14987:15143   */\n      pop\n        /* \"#utility.yul\":14964:15143   */\n    tag_320:\n        /* \"#utility.yul\":15189:15190   */\n      0x01\n        /* \"#utility.yul\":15185:15186   */\n      0x02\n        /* \"#utility.yul\":15177:15183   */\n      dup9\n        /* \"#utility.yul\":15173:15187   */\n      mul\n        /* \"#utility.yul\":15169:15191   */\n      add\n        /* \"#utility.yul\":15163:15167   */\n      dup9\n        /* \"#utility.yul\":15156:15192   */\n      sstore\n        /* \"#utility.yul\":14591:15202   */\n      pop\n      pop\n      pop\n        /* \"#utility.yul\":14554:15441   */\n    tag_312:\n      pop\n        /* \"#utility.yul\":14144:15447   */\n      pop\n      pop\n      pop\n        /* \"#utility.yul\":14052:15447   */\n      pop\n      pop\n      jump\t// out\n        /* \"#utility.yul\":15453:15876   */\n    tag_56:\n        /* \"#utility.yul\":15594:15598   */\n      0x00\n        /* \"#utility.yul\":15632:15634   */\n      0x40\n        /* \"#utility.yul\":15621:15630   */\n      dup3\n        /* \"#utility.yul\":15617:15635   */\n      add\n        /* \"#utility.yul\":15609:15635   */\n      swap1\n      pop\n        /* \"#utility.yul\":15645:15716   */\n      tag_323\n        /* \"#utility.yul\":15713:15714   */\n      0x00\n        /* \"#utility.yul\":15702:15711   */\n      dup4\n        /* \"#utility.yul\":15698:15715   */\n      add\n        /* \"#utility.yul\":15689:15695   */\n      dup6\n        /* \"#utility.yul\":15645:15716   */\n      tag_130\n      jump\t// in\n    tag_323:\n        /* \"#utility.yul\":15763:15772   */\n      dup2\n        /* \"#utility.yul\":15757:15761   */\n      dup2\n        /* \"#utility.yul\":15753:15773   */\n      sub\n        /* \"#utility.yul\":15748:15750   */\n      0x20\n        /* \"#utility.yul\":15737:15746   */\n      dup4\n        /* \"#utility.yul\":15733:15751   */\n      add\n        /* \"#utility.yul\":15726:15774   */\n      mstore\n        /* \"#utility.yul\":15791:15869   */\n      tag_324\n        /* \"#utility.yul\":15864:15868   */\n      dup2\n        /* \"#utility.yul\":15855:15861   */\n      dup5\n        /* \"#utility.yul\":15791:15869   */\n      tag_129\n      jump\t// in\n    tag_324:\n        /* \"#utility.yul\":15783:15869   */\n      swap1\n      pop\n        /* \"#utility.yul\":15453:15876   */\n      swap4\n      swap3\n      pop\n      pop\n      pop\n      jump\t// out\n        /* \"#utility.yul\":15882:16048   */\n    tag_157:\n        /* \"#utility.yul\":16022:16040   */\n      0x50726f6475697420696e76616c69646500000000000000000000000000000000\n        /* \"#utility.yul\":16018:16019   */\n      0x00\n        /* \"#utility.yul\":16010:16016   */\n      dup3\n        /* \"#utility.yul\":16006:16020   */\n      add\n        /* \"#utility.yul\":15999:16041   */\n      mstore\n        /* \"#utility.yul\":15882:16048   */\n      pop\n      jump\t// out\n        /* \"#utility.yul\":16054:16420   */\n    tag_158:\n        /* \"#utility.yul\":16196:16199   */\n      0x00\n        /* \"#utility.yul\":16217:16284   */\n      tag_327\n        /* \"#utility.yul\":16281:16283   */\n      0x10\n        /* \"#utility.yul\":16276:16279   */\n      dup4\n        /* \"#utility.yul\":16217:16284   */\n      tag_127\n      jump\t// in\n    tag_327:\n        /* \"#utility.yul\":16210:16284   */\n      swap2\n      pop\n        /* \"#utility.yul\":16293:16386   */\n      tag_328\n        /* \"#utility.yul\":16382:16385   */\n      dup3\n        /* \"#utility.yul\":16293:16386   */\n      tag_157\n      jump\t// in\n    tag_328:\n        /* \"#utility.yul\":16411:16413   */\n      0x20\n        /* \"#utility.yul\":16406:16409   */\n      dup3\n        /* \"#utility.yul\":16402:16414   */\n      add\n        /* \"#utility.yul\":16395:16414   */\n      swap1\n      pop\n        /* \"#utility.yul\":16054:16420   */\n      swap2\n      swap1\n      pop\n      jump\t// out\n        /* \"#utility.yul\":16426:16845   */\n    tag_64:\n        /* \"#utility.yul\":16592:16596   */\n      0x00\n        /* \"#utility.yul\":16630:16632   */\n      0x20\n        /* \"#utility.yul\":16619:16628   */\n      dup3\n        /* \"#utility.yul\":16615:16633   */\n      add\n        /* \"#utility.yul\":16607:16633   */\n      swap1\n      pop\n        /* \"#utility.yul\":16679:16688   */\n      dup2\n        /* \"#utility.yul\":16673:16677   */\n      dup2\n        /* \"#utility.yul\":16669:16689   */\n      sub\n        /* \"#utility.yul\":16665:16666   */\n      0x00\n        /* \"#utility.yul\":16654:16663   */\n      dup4\n        /* \"#utility.yul\":16650:16667   */\n      add\n        /* \"#utility.yul\":16643:16690   */\n      mstore\n        /* \"#utility.yul\":16707:16838   */\n      tag_330\n        /* \"#utility.yul\":16833:16837   */\n      dup2\n        /* \"#utility.yul\":16707:16838   */\n      tag_158\n      jump\t// in\n    tag_330:\n        /* \"#utility.yul\":16699:16838   */\n      swap1\n      pop\n        /* \"#utility.yul\":16426:16845   */\n      swap2\n      swap1\n      pop\n      jump\t// out\n\n    auxdata: 0xa26469706673582212206a93cc5aa04384ba2bd3ff448ca0eebcdd80b6abe8aa9398a12c3bd8d8dd1f8d64736f6c634300081a0033\n}\n",
				"bytecode": {
					"linkReferences": {},
					"object": "6080604052348015600e575f80fd5b503360025f6101000a81548173ffffffffffffffffffffffffffffffffffffffff021916908373ffffffffffffffffffffffffffffffffffffffff1602179055506112378061005c5f395ff3fe608060405234801561000f575f80fd5b5060043610610086575f3560e01c80638da5cb5b116100595780638da5cb5b14610124578063b9db15b414610142578063e0f6ef8714610174578063ed90c7b71461019257610086565b8063125b0b341461008a5780632d561787146100a65780637acc0b20146100c25780638a7adee0146100f4575b5f80fd5b6100a4600480360381019061009f9190610aa9565b6101ae565b005b6100c060048036038101906100bb9190610b15565b6102ec565b005b6100dc60048036038101906100d79190610b95565b610441565b6040516100eb93929190610c2f565b60405180910390f35b61010e60048036038101906101099190610b95565b6104ec565b60405161011b9190610d0f565b60405180910390f35b61012c61060e565b6040516101399190610d6e565b60405180910390f35b61015c60048036038101906101579190610b95565b610633565b60405161016b93929190610c2f565b60405180910390f35b61017c610764565b6040516101899190610d87565b60405180910390f35b6101ac60048036038101906101a79190610b95565b61076a565b005b60025f9054906101000a900473ffffffffffffffffffffffffffffffffffffffff1673ffffffffffffffffffffffffffffffffffffffff163373ffffffffffffffffffffffffffffffffffffffff161461023d576040517f08c379a000000000000000000000000000000000000000000000000000000000815260040161023490610e10565b60405180910390fd5b60015f81548092919061024f90610e5b565b91905055506040518060600160405280848152602001838152602001828152505f8060015481526020019081526020015f205f820151815f019081610294919061109c565b5060208201518160010155604082015181600201559050507f259101de1f87b04b9ee0332ce5e3cc508014004bf283424aead6cd8692f5cf98600154846040516102df92919061116b565b60405180910390a1505050565b60025f9054906101000a900473ffffffffffffffffffffffffffffffffffffffff1673ffffffffffffffffffffffffffffffffffffffff163373ffffffffffffffffffffffffffffffffffffffff161461037b576040517f08c379a000000000000000000000000000000000000000000000000000000000815260040161037290610e10565b60405180910390fd5b5f8411801561038c57506001548411155b6103cb576040517f08c379a00000000000000000000000000000000000000000000000000000000081526004016103c2906111e3565b60405180910390fd5b5f805f8681526020019081526020015f20905083815f0190816103ee919061109c565b508281600101819055508181600201819055507fdad7092ee1ca215307c34b5dd865bb1f9be7e1f0110d230eaefd78fa4742903e858560405161043292919061116b565b60405180910390a15050505050565b5f602052805f5260405f205f91509050805f01805461045f90610ecf565b80601f016020809104026020016040519081016040528092919081815260200182805461048b90610ecf565b80156104d65780601f106104ad576101008083540402835291602001916104d6565b820191905f5260205f20905b8154815290600101906020018083116104b957829003601f168201915b5050505050908060010154908060020154905083565b6104f46108b2565b5f8211801561050557506001548211155b610544576040517f08c379a000000000000000000000000000000000000000000000000000000000815260040161053b906111e3565b60405180910390fd5b5f805f8481526020019081526020015f206040518060600160405290815f8201805461056f90610ecf565b80601f016020809104026020016040519081016040528092919081815260200182805461059b90610ecf565b80156105e65780601f106105bd576101008083540402835291602001916105e6565b820191905f5260205f20905b8154815290600101906020018083116105c957829003601f168201915b5050505050815260200160018201548152602001600282015481525050905080915050919050565b60025f9054906101000a900473ffffffffffffffffffffffffffffffffffffffff1681565b60605f805f8411801561064857506001548411155b610687576040517f08c379a000000000000000000000000000000000000000000000000000000000815260040161067e906111e3565b60405180910390fd5b5f805f8681526020019081526020015f206040518060600160405290815f820180546106b290610ecf565b80601f01602080910402602001604051908101604052809291908181526020018280546106de90610ecf565b80156107295780601f1061070057610100808354040283529160200191610729565b820191905f5260205f20905b81548152906001019060200180831161070c57829003601f168201915b50505050508152602001600182015481526020016002820154815250509050805f015181602001518260400151935093509350509193909250565b60015481565b60025f9054906101000a900473ffffffffffffffffffffffffffffffffffffffff1673ffffffffffffffffffffffffffffffffffffffff163373ffffffffffffffffffffffffffffffffffffffff16146107f9576040517f08c379a00000000000000000000000000000000000000000000000000000000081526004016107f090610e10565b60405180910390fd5b5f8111801561080a57506001548111155b610849576040517f08c379a0000000000000000000000000000000000000000000000000000000008152600401610840906111e3565b60405180910390fd5b5f808281526020019081526020015f205f8082015f61086891906108d1565b600182015f9055600282015f905550507fc341cf326465fe622f86c468249e8c0cb03ed23ba376a6a34863a1374ac7d769816040516108a79190610d87565b60405180910390a150565b6040518060600160405280606081526020015f81526020015f81525090565b5080546108dd90610ecf565b5f825580601f106108ee575061090b565b601f0160209004905f5260205f209081019061090a919061090e565b5b50565b5b80821115610925575f815f90555060010161090f565b5090565b5f604051905090565b5f80fd5b5f80fd5b5f80fd5b5f80fd5b5f601f19601f8301169050919050565b7f4e487b71000000000000000000000000000000000000000000000000000000005f52604160045260245ffd5b61098882610942565b810181811067ffffffffffffffff821117156109a7576109a6610952565b5b80604052505050565b5f6109b9610929565b90506109c5828261097f565b919050565b5f67ffffffffffffffff8211156109e4576109e3610952565b5b6109ed82610942565b9050602081019050919050565b828183375f83830152505050565b5f610a1a610a15846109ca565b6109b0565b905082815260208101848484011115610a3657610a3561093e565b5b610a418482856109fa565b509392505050565b5f82601f830112610a5d57610a5c61093a565b5b8135610a6d848260208601610a08565b91505092915050565b5f819050919050565b610a8881610a76565b8114610a92575f80fd5b50565b5f81359050610aa381610a7f565b92915050565b5f805f60608486031215610ac057610abf610932565b5b5f84013567ffffffffffffffff811115610add57610adc610936565b5b610ae986828701610a49565b9350506020610afa86828701610a95565b9250506040610b0b86828701610a95565b9150509250925092565b5f805f8060808587031215610b2d57610b2c610932565b5b5f610b3a87828801610a95565b945050602085013567ffffffffffffffff811115610b5b57610b5a610936565b5b610b6787828801610a49565b9350506040610b7887828801610a95565b9250506060610b8987828801610a95565b91505092959194509250565b5f60208284031215610baa57610ba9610932565b5b5f610bb784828501610a95565b91505092915050565b5f81519050919050565b5f82825260208201905092915050565b8281835e5f83830152505050565b5f610bf282610bc0565b610bfc8185610bca565b9350610c0c818560208601610bda565b610c1581610942565b840191505092915050565b610c2981610a76565b82525050565b5f6060820190508181035f830152610c478186610be8565b9050610c566020830185610c20565b610c636040830184610c20565b949350505050565b5f82825260208201905092915050565b5f610c8582610bc0565b610c8f8185610c6b565b9350610c9f818560208601610bda565b610ca881610942565b840191505092915050565b610cbc81610a76565b82525050565b5f606083015f8301518482035f860152610cdc8282610c7b565b9150506020830151610cf16020860182610cb3565b506040830151610d046040860182610cb3565b508091505092915050565b5f6020820190508181035f830152610d278184610cc2565b905092915050565b5f73ffffffffffffffffffffffffffffffffffffffff82169050919050565b5f610d5882610d2f565b9050919050565b610d6881610d4e565b82525050565b5f602082019050610d815f830184610d5f565b92915050565b5f602082019050610d9a5f830184610c20565b92915050565b7f4163636573207265667573653a207365756c656d656e74206c652070726f70725f8201527f6965746169726500000000000000000000000000000000000000000000000000602082015250565b5f610dfa602783610bca565b9150610e0582610da0565b604082019050919050565b5f6020820190508181035f830152610e2781610dee565b9050919050565b7f4e487b71000000000000000000000000000000000000000000000000000000005f52601160045260245ffd5b5f610e6582610a76565b91507fffffffffffffffffffffffffffffffffffffffffffffffffffffffffffffffff8203610e9757610e96610e2e565b5b600182019050919050565b7f4e487b71000000000000000000000000000000000000000000000000000000005f52602260045260245ffd5b5f6002820490506001821680610ee657607f821691505b602082108103610ef957610ef8610ea2565b5b50919050565b5f819050815f5260205f209050919050565b5f6020601f8301049050919050565b5f82821b905092915050565b5f60088302610f5b7fffffffffffffffffffffffffffffffffffffffffffffffffffffffffffffffff82610f20565b610f658683610f20565b95508019841693508086168417925050509392505050565b5f819050919050565b5f610fa0610f9b610f9684610a76565b610f7d565b610a76565b9050919050565b5f819050919050565b610fb983610f86565b610fcd610fc582610fa7565b848454610f2c565b825550505050565b5f90565b610fe1610fd5565b610fec818484610fb0565b505050565b5b8181101561100f576110045f82610fd9565b600181019050610ff2565b5050565b601f8211156110545761102581610eff565b61102e84610f11565b8101602085101561103d578190505b61105161104985610f11565b830182610ff1565b50505b505050565b5f82821c905092915050565b5f6110745f1984600802611059565b1980831691505092915050565b5f61108c8383611065565b9150826002028217905092915050565b6110a582610bc0565b67ffffffffffffffff8111156110be576110bd610952565b5b6110c88254610ecf565b6110d3828285611013565b5f60209050601f831160018114611104575f84156110f2578287015190505b6110fc8582611081565b865550611163565b601f19841661111286610eff565b5f5b8281101561113957848901518255600182019150602085019450602081019050611114565b868310156111565784890151611152601f891682611065565b8355505b6001600288020188555050505b505050505050565b5f60408201905061117e5f830185610c20565b81810360208301526111908184610be8565b90509392505050565b7f50726f6475697420696e76616c696465000000000000000000000000000000005f82015250565b5f6111cd601083610bca565b91506111d882611199565b602082019050919050565b5f6020820190508181035f8301526111fa816111c1565b905091905056fea26469706673582212206a93cc5aa04384ba2bd3ff448ca0eebcdd80b6abe8aa9398a12c3bd8d8dd1f8d64736f6c634300081a0033",
					"opcodes": "PUSH1 0x80 PUSH1 0x40 MSTORE CALLVALUE DUP1 ISZERO PUSH1 0xE JUMPI PUSH0 DUP1 REVERT JUMPDEST POP CALLER PUSH1 0x2 PUSH0 PUSH2 0x100 EXP DUP2 SLOAD DUP2 PUSH20 0xFFFFFFFFFFFFFFFFFFFFFFFFFFFFFFFFFFFFFFFF MUL NOT AND SWAP1 DUP4 PUSH20 0xFFFFFFFFFFFFFFFFFFFFFFFFFFFFFFFFFFFFFFFF AND MUL OR SWAP1 SSTORE POP PUSH2 0x1237 DUP1 PUSH2 0x5C PUSH0 CODECOPY PUSH0 RETURN INVALID PUSH1 0x80 PUSH1 0x40 MSTORE CALLVALUE DUP1 ISZERO PUSH2 0xF JUMPI PUSH0 DUP1 REVERT JUMPDEST POP PUSH1 0x4 CALLDATASIZE LT PUSH2 0x86 JUMPI PUSH0 CALLDATALOAD PUSH1 0xE0 SHR DUP1 PUSH4 0x8DA5CB5B GT PUSH2 0x59 JUMPI DUP1 PUSH4 0x8DA5CB5B EQ PUSH2 0x124 JUMPI DUP1 PUSH4 0xB9DB15B4 EQ PUSH2 0x142 JUMPI DUP1 PUSH4 0xE0F6EF87 EQ PUSH2 0x174 JUMPI DUP1 PUSH4 0xED90C7B7 EQ PUSH2 0x192 JUMPI PUSH2 0x86 JUMP JUMPDEST DUP1 PUSH4 0x125B0B34 EQ PUSH2 0x8A JUMPI DUP1 PUSH4 0x2D561787 EQ PUSH2 0xA6 JUMPI DUP1 PUSH4 0x7ACC0B20 EQ PUSH2 0xC2 JUMPI DUP1 PUSH4 0x8A7ADEE0 EQ PUSH2 0xF4 JUMPI JUMPDEST PUSH0 DUP1 REVERT JUMPDEST PUSH2 0xA4 PUSH1 0x4 DUP1 CALLDATASIZE SUB DUP2 ADD SWAP1 PUSH2 0x9F SWAP2 SWAP1 PUSH2 0xAA9 JUMP JUMPDEST PUSH2 0x1AE JUMP JUMPDEST STOP JUMPDEST PUSH2 0xC0 PUSH1 0x4 DUP1 CALLDATASIZE SUB DUP2 ADD SWAP1 PUSH2 0xBB SWAP2 SWAP1 PUSH2 0xB15 JUMP JUMPDEST PUSH2 0x2EC JUMP JUMPDEST STOP JUMPDEST PUSH2 0xDC PUSH1 0x4 DUP1 CALLDATASIZE SUB DUP2 ADD SWAP1 PUSH2 0xD7 SWAP2 SWAP1 PUSH2 0xB95 JUMP JUMPDEST PUSH2 0x441 JUMP JUMPDEST PUSH1 0x40 MLOAD PUSH2 0xEB SWAP4 SWAP3 SWAP2 SWAP1 PUSH2 0xC2F JUMP JUMPDEST PUSH1 0x40 MLOAD DUP1 SWAP2 SUB SWAP1 RETURN JUMPDEST PUSH2 0x10E PUSH1 0x4 DUP1 CALLDATASIZE SUB DUP2 ADD SWAP1 PUSH2 0x109 SWAP2 SWAP1 PUSH2 0xB95 JUMP JUMPDEST PUSH2 0x4EC JUMP JUMPDEST PUSH1 0x40 MLOAD PUSH2 0x11B SWAP2 SWAP1 PUSH2 0xD0F JUMP JUMPDEST PUSH1 0x40 MLOAD DUP1 SWAP2 SUB SWAP1 RETURN JUMPDEST PUSH2 0x12C PUSH2 0x60E JUMP JUMPDEST PUSH1 0x40 MLOAD PUSH2 0x139 SWAP2 SWAP1 PUSH2 0xD6E JUMP JUMPDEST PUSH1 0x40 MLOAD DUP1 SWAP2 SUB SWAP1 RETURN JUMPDEST PUSH2 0x15C PUSH1 0x4 DUP1 CALLDATASIZE SUB DUP2 ADD SWAP1 PUSH2 0x157 SWAP2 SWAP1 PUSH2 0xB95 JUMP JUMPDEST PUSH2 0x633 JUMP JUMPDEST PUSH1 0x40 MLOAD PUSH2 0x16B SWAP4 SWAP3 SWAP2 SWAP1 PUSH2 0xC2F JUMP JUMPDEST PUSH1 0x40 MLOAD DUP1 SWAP2 SUB SWAP1 RETURN JUMPDEST PUSH2 0x17C PUSH2 0x764 JUMP JUMPDEST PUSH1 0x40 MLOAD PUSH2 0x189 SWAP2 SWAP1 PUSH2 0xD87 JUMP JUMPDEST PUSH1 0x40 MLOAD DUP1 SWAP2 SUB SWAP1 RETURN JUMPDEST PUSH2 0x1AC PUSH1 0x4 DUP1 CALLDATASIZE SUB DUP2 ADD SWAP1 PUSH2 0x1A7 SWAP2 SWAP1 PUSH2 0xB95 JUMP JUMPDEST PUSH2 0x76A JUMP JUMPDEST STOP JUMPDEST PUSH1 0x2 PUSH0 SWAP1 SLOAD SWAP1 PUSH2 0x100 EXP SWAP1 DIV PUSH20 0xFFFFFFFFFFFFFFFFFFFFFFFFFFFFFFFFFFFFFFFF AND PUSH20 0xFFFFFFFFFFFFFFFFFFFFFFFFFFFFFFFFFFFFFFFF AND CALLER PUSH20 0xFFFFFFFFFFFFFFFFFFFFFFFFFFFFFFFFFFFFFFFF AND EQ PUSH2 0x23D JUMPI PUSH1 0x40 MLOAD PUSH32 0x8C379A000000000000000000000000000000000000000000000000000000000 DUP2 MSTORE PUSH1 0x4 ADD PUSH2 0x234 SWAP1 PUSH2 0xE10 JUMP JUMPDEST PUSH1 0x40 MLOAD DUP1 SWAP2 SUB SWAP1 REVERT JUMPDEST PUSH1 0x1 PUSH0 DUP2 SLOAD DUP1 SWAP3 SWAP2 SWAP1 PUSH2 0x24F SWAP1 PUSH2 0xE5B JUMP JUMPDEST SWAP2 SWAP1 POP SSTORE POP PUSH1 0x40 MLOAD DUP1 PUSH1 0x60 ADD PUSH1 0x40 MSTORE DUP1 DUP5 DUP2 MSTORE PUSH1 0x20 ADD DUP4 DUP2 MSTORE PUSH1 0x20 ADD DUP3 DUP2 MSTORE POP PUSH0 DUP1 PUSH1 0x1 SLOAD DUP2 MSTORE PUSH1 0x20 ADD SWAP1 DUP2 MSTORE PUSH1 0x20 ADD PUSH0 KECCAK256 PUSH0 DUP3 ADD MLOAD DUP2 PUSH0 ADD SWAP1 DUP2 PUSH2 0x294 SWAP2 SWAP1 PUSH2 0x109C JUMP JUMPDEST POP PUSH1 0x20 DUP3 ADD MLOAD DUP2 PUSH1 0x1 ADD SSTORE PUSH1 0x40 DUP3 ADD MLOAD DUP2 PUSH1 0x2 ADD SSTORE SWAP1 POP POP PUSH32 0x259101DE1F87B04B9EE0332CE5E3CC508014004BF283424AEAD6CD8692F5CF98 PUSH1 0x1 SLOAD DUP5 PUSH1 0x40 MLOAD PUSH2 0x2DF SWAP3 SWAP2 SWAP1 PUSH2 0x116B JUMP JUMPDEST PUSH1 0x40 MLOAD DUP1 SWAP2 SUB SWAP1 LOG1 POP POP POP JUMP JUMPDEST PUSH1 0x2 PUSH0 SWAP1 SLOAD SWAP1 PUSH2 0x100 EXP SWAP1 DIV PUSH20 0xFFFFFFFFFFFFFFFFFFFFFFFFFFFFFFFFFFFFFFFF AND PUSH20 0xFFFFFFFFFFFFFFFFFFFFFFFFFFFFFFFFFFFFFFFF AND CALLER PUSH20 0xFFFFFFFFFFFFFFFFFFFFFFFFFFFFFFFFFFFFFFFF AND EQ PUSH2 0x37B JUMPI PUSH1 0x40 MLOAD PUSH32 0x8C379A000000000000000000000000000000000000000000000000000000000 DUP2 MSTORE PUSH1 0x4 ADD PUSH2 0x372 SWAP1 PUSH2 0xE10 JUMP JUMPDEST PUSH1 0x40 MLOAD DUP1 SWAP2 SUB SWAP1 REVERT JUMPDEST PUSH0 DUP5 GT DUP1 ISZERO PUSH2 0x38C JUMPI POP PUSH1 0x1 SLOAD DUP5 GT ISZERO JUMPDEST PUSH2 0x3CB JUMPI PUSH1 0x40 MLOAD PUSH32 0x8C379A000000000000000000000000000000000000000000000000000000000 DUP2 MSTORE PUSH1 0x4 ADD PUSH2 0x3C2 SWAP1 PUSH2 0x11E3 JUMP JUMPDEST PUSH1 0x40 MLOAD DUP1 SWAP2 SUB SWAP1 REVERT JUMPDEST PUSH0 DUP1 PUSH0 DUP7 DUP2 MSTORE PUSH1 0x20 ADD SWAP1 DUP2 MSTORE PUSH1 0x20 ADD PUSH0 KECCAK256 SWAP1 POP DUP4 DUP2 PUSH0 ADD SWAP1 DUP2 PUSH2 0x3EE SWAP2 SWAP1 PUSH2 0x109C JUMP JUMPDEST POP DUP3 DUP2 PUSH1 0x1 ADD DUP2 SWAP1 SSTORE POP DUP2 DUP2 PUSH1 0x2 ADD DUP2 SWAP1 SSTORE POP PUSH32 0xDAD7092EE1CA215307C34B5DD865BB1F9BE7E1F0110D230EAEFD78FA4742903E DUP6 DUP6 PUSH1 0x40 MLOAD PUSH2 0x432 SWAP3 SWAP2 SWAP1 PUSH2 0x116B JUMP JUMPDEST PUSH1 0x40 MLOAD DUP1 SWAP2 SUB SWAP1 LOG1 POP POP POP POP POP JUMP JUMPDEST PUSH0 PUSH1 0x20 MSTORE DUP1 PUSH0 MSTORE PUSH1 0x40 PUSH0 KECCAK256 PUSH0 SWAP2 POP SWAP1 POP DUP1 PUSH0 ADD DUP1 SLOAD PUSH2 0x45F SWAP1 PUSH2 0xECF JUMP JUMPDEST DUP1 PUSH1 0x1F ADD PUSH1 0x20 DUP1 SWAP2 DIV MUL PUSH1 0x20 ADD PUSH1 0x40 MLOAD SWAP1 DUP2 ADD PUSH1 0x40 MSTORE DUP1 SWAP3 SWAP2 SWAP1 DUP2 DUP2 MSTORE PUSH1 0x20 ADD DUP3 DUP1 SLOAD PUSH2 0x48B SWAP1 PUSH2 0xECF JUMP JUMPDEST DUP1 ISZERO PUSH2 0x4D6 JUMPI DUP1 PUSH1 0x1F LT PUSH2 0x4AD JUMPI PUSH2 0x100 DUP1 DUP4 SLOAD DIV MUL DUP4 MSTORE SWAP2 PUSH1 0x20 ADD SWAP2 PUSH2 0x4D6 JUMP JUMPDEST DUP3 ADD SWAP2 SWAP1 PUSH0 MSTORE PUSH1 0x20 PUSH0 KECCAK256 SWAP1 JUMPDEST DUP2 SLOAD DUP2 MSTORE SWAP1 PUSH1 0x1 ADD SWAP1 PUSH1 0x20 ADD DUP1 DUP4 GT PUSH2 0x4B9 JUMPI DUP3 SWAP1 SUB PUSH1 0x1F AND DUP3 ADD SWAP2 JUMPDEST POP POP POP POP POP SWAP1 DUP1 PUSH1 0x1 ADD SLOAD SWAP1 DUP1 PUSH1 0x2 ADD SLOAD SWAP1 POP DUP4 JUMP JUMPDEST PUSH2 0x4F4 PUSH2 0x8B2 JUMP JUMPDEST PUSH0 DUP3 GT DUP1 ISZERO PUSH2 0x505 JUMPI POP PUSH1 0x1 SLOAD DUP3 GT ISZERO JUMPDEST PUSH2 0x544 JUMPI PUSH1 0x40 MLOAD PUSH32 0x8C379A000000000000000000000000000000000000000000000000000000000 DUP2 MSTORE PUSH1 0x4 ADD PUSH2 0x53B SWAP1 PUSH2 0x11E3 JUMP JUMPDEST PUSH1 0x40 MLOAD DUP1 SWAP2 SUB SWAP1 REVERT JUMPDEST PUSH0 DUP1 PUSH0 DUP5 DUP2 MSTORE PUSH1 0x20 ADD SWAP1 DUP2 MSTORE PUSH1 0x20 ADD PUSH0 KECCAK256 PUSH1 0x40 MLOAD DUP1 PUSH1 0x60 ADD PUSH1 0x40 MSTORE SWAP1 DUP2 PUSH0 DUP3 ADD DUP1 SLOAD PUSH2 0x56F SWAP1 PUSH2 0xECF JUMP JUMPDEST DUP1 PUSH1 0x1F ADD PUSH1 0x20 DUP1 SWAP2 DIV MUL PUSH1 0x20 ADD PUSH1 0x40 MLOAD SWAP1 DUP2 ADD PUSH1 0x40 MSTORE DUP1 SWAP3 SWAP2 SWAP1 DUP2 DUP2 MSTORE PUSH1 0x20 ADD DUP3 DUP1 SLOAD PUSH2 0x59B SWAP1 PUSH2 0xECF JUMP JUMPDEST DUP1 ISZERO PUSH2 0x5E6 JUMPI DUP1 PUSH1 0x1F LT PUSH2 0x5BD JUMPI PUSH2 0x100 DUP1 DUP4 SLOAD DIV MUL DUP4 MSTORE SWAP2 PUSH1 0x20 ADD SWAP2 PUSH2 0x5E6 JUMP JUMPDEST DUP3 ADD SWAP2 SWAP1 PUSH0 MSTORE PUSH1 0x20 PUSH0 KECCAK256 SWAP1 JUMPDEST DUP2 SLOAD DUP2 MSTORE SWAP1 PUSH1 0x1 ADD SWAP1 PUSH1 0x20 ADD DUP1 DUP4 GT PUSH2 0x5C9 JUMPI DUP3 SWAP1 SUB PUSH1 0x1F AND DUP3 ADD SWAP2 JUMPDEST POP POP POP POP POP DUP2 MSTORE PUSH1 0x20 ADD PUSH1 0x1 DUP3 ADD SLOAD DUP2 MSTORE PUSH1 0x20 ADD PUSH1 0x2 DUP3 ADD SLOAD DUP2 MSTORE POP POP SWAP1 POP DUP1 SWAP2 POP POP SWAP2 SWAP1 POP JUMP JUMPDEST PUSH1 0x2 PUSH0 SWAP1 SLOAD SWAP1 PUSH2 0x100 EXP SWAP1 DIV PUSH20 0xFFFFFFFFFFFFFFFFFFFFFFFFFFFFFFFFFFFFFFFF AND DUP2 JUMP JUMPDEST PUSH1 0x60 PUSH0 DUP1 PUSH0 DUP5 GT DUP1 ISZERO PUSH2 0x648 JUMPI POP PUSH1 0x1 SLOAD DUP5 GT ISZERO JUMPDEST PUSH2 0x687 JUMPI PUSH1 0x40 MLOAD PUSH32 0x8C379A000000000000000000000000000000000000000000000000000000000 DUP2 MSTORE PUSH1 0x4 ADD PUSH2 0x67E SWAP1 PUSH2 0x11E3 JUMP JUMPDEST PUSH1 0x40 MLOAD DUP1 SWAP2 SUB SWAP1 REVERT JUMPDEST PUSH0 DUP1 PUSH0 DUP7 DUP2 MSTORE PUSH1 0x20 ADD SWAP1 DUP2 MSTORE PUSH1 0x20 ADD PUSH0 KECCAK256 PUSH1 0x40 MLOAD DUP1 PUSH1 0x60 ADD PUSH1 0x40 MSTORE SWAP1 DUP2 PUSH0 DUP3 ADD DUP1 SLOAD PUSH2 0x6B2 SWAP1 PUSH2 0xECF JUMP JUMPDEST DUP1 PUSH1 0x1F ADD PUSH1 0x20 DUP1 SWAP2 DIV MUL PUSH1 0x20 ADD PUSH1 0x40 MLOAD SWAP1 DUP2 ADD PUSH1 0x40 MSTORE DUP1 SWAP3 SWAP2 SWAP1 DUP2 DUP2 MSTORE PUSH1 0x20 ADD DUP3 DUP1 SLOAD PUSH2 0x6DE SWAP1 PUSH2 0xECF JUMP JUMPDEST DUP1 ISZERO PUSH2 0x729 JUMPI DUP1 PUSH1 0x1F LT PUSH2 0x700 JUMPI PUSH2 0x100 DUP1 DUP4 SLOAD DIV MUL DUP4 MSTORE SWAP2 PUSH1 0x20 ADD SWAP2 PUSH2 0x729 JUMP JUMPDEST DUP3 ADD SWAP2 SWAP1 PUSH0 MSTORE PUSH1 0x20 PUSH0 KECCAK256 SWAP1 JUMPDEST DUP2 SLOAD DUP2 MSTORE SWAP1 PUSH1 0x1 ADD SWAP1 PUSH1 0x20 ADD DUP1 DUP4 GT PUSH2 0x70C JUMPI DUP3 SWAP1 SUB PUSH1 0x1F AND DUP3 ADD SWAP2 JUMPDEST POP POP POP POP POP DUP2 MSTORE PUSH1 0x20 ADD PUSH1 0x1 DUP3 ADD SLOAD DUP2 MSTORE PUSH1 0x20 ADD PUSH1 0x2 DUP3 ADD SLOAD DUP2 MSTORE POP POP SWAP1 POP DUP1 PUSH0 ADD MLOAD DUP2 PUSH1 0x20 ADD MLOAD DUP3 PUSH1 0x40 ADD MLOAD SWAP4 POP SWAP4 POP SWAP4 POP POP SWAP2 SWAP4 SWAP1 SWAP3 POP JUMP JUMPDEST PUSH1 0x1 SLOAD DUP2 JUMP JUMPDEST PUSH1 0x2 PUSH0 SWAP1 SLOAD SWAP1 PUSH2 0x100 EXP SWAP1 DIV PUSH20 0xFFFFFFFFFFFFFFFFFFFFFFFFFFFFFFFFFFFFFFFF AND PUSH20 0xFFFFFFFFFFFFFFFFFFFFFFFFFFFFFFFFFFFFFFFF AND CALLER PUSH20 0xFFFFFFFFFFFFFFFFFFFFFFFFFFFFFFFFFFFFFFFF AND EQ PUSH2 0x7F9 JUMPI PUSH1 0x40 MLOAD PUSH32 0x8C379A000000000000000000000000000000000000000000000000000000000 DUP2 MSTORE PUSH1 0x4 ADD PUSH2 0x7F0 SWAP1 PUSH2 0xE10 JUMP JUMPDEST PUSH1 0x40 MLOAD DUP1 SWAP2 SUB SWAP1 REVERT JUMPDEST PUSH0 DUP2 GT DUP1 ISZERO PUSH2 0x80A JUMPI POP PUSH1 0x1 SLOAD DUP2 GT ISZERO JUMPDEST PUSH2 0x849 JUMPI PUSH1 0x40 MLOAD PUSH32 0x8C379A000000000000000000000000000000000000000000000000000000000 DUP2 MSTORE PUSH1 0x4 ADD PUSH2 0x840 SWAP1 PUSH2 0x11E3 JUMP JUMPDEST PUSH1 0x40 MLOAD DUP1 SWAP2 SUB SWAP1 REVERT JUMPDEST PUSH0 DUP1 DUP3 DUP2 MSTORE PUSH1 0x20 ADD SWAP1 DUP2 MSTORE PUSH1 0x20 ADD PUSH0 KECCAK256 PUSH0 DUP1 DUP3 ADD PUSH0 PUSH2 0x868 SWAP2 SWAP1 PUSH2 0x8D1 JUMP JUMPDEST PUSH1 0x1 DUP3 ADD PUSH0 SWAP1 SSTORE PUSH1 0x2 DUP3 ADD PUSH0 SWAP1 SSTORE POP POP PUSH32 0xC341CF326465FE622F86C468249E8C0CB03ED23BA376A6A34863A1374AC7D769 DUP2 PUSH1 0x40 MLOAD PUSH2 0x8A7 SWAP2 SWAP1 PUSH2 0xD87 JUMP JUMPDEST PUSH1 0x40 MLOAD DUP1 SWAP2 SUB SWAP1 LOG1 POP JUMP JUMPDEST PUSH1 0x40 MLOAD DUP1 PUSH1 0x60 ADD PUSH1 0x40 MSTORE DUP1 PUSH1 0x60 DUP2 MSTORE PUSH1 0x20 ADD PUSH0 DUP2 MSTORE PUSH1 0x20 ADD PUSH0 DUP2 MSTORE POP SWAP1 JUMP JUMPDEST POP DUP1 SLOAD PUSH2 0x8DD SWAP1 PUSH2 0xECF JUMP JUMPDEST PUSH0 DUP3 SSTORE DUP1 PUSH1 0x1F LT PUSH2 0x8EE JUMPI POP PUSH2 0x90B JUMP JUMPDEST PUSH1 0x1F ADD PUSH1 0x20 SWAP1 DIV SWAP1 PUSH0 MSTORE PUSH1 0x20 PUSH0 KECCAK256 SWAP1 DUP2 ADD SWAP1 PUSH2 0x90A SWAP2 SWAP1 PUSH2 0x90E JUMP JUMPDEST JUMPDEST POP JUMP JUMPDEST JUMPDEST DUP1 DUP3 GT ISZERO PUSH2 0x925 JUMPI PUSH0 DUP2 PUSH0 SWAP1 SSTORE POP PUSH1 0x1 ADD PUSH2 0x90F JUMP JUMPDEST POP SWAP1 JUMP JUMPDEST PUSH0 PUSH1 0x40 MLOAD SWAP1 POP SWAP1 JUMP JUMPDEST PUSH0 DUP1 REVERT JUMPDEST PUSH0 DUP1 REVERT JUMPDEST PUSH0 DUP1 REVERT JUMPDEST PUSH0 DUP1 REVERT JUMPDEST PUSH0 PUSH1 0x1F NOT PUSH1 0x1F DUP4 ADD AND SWAP1 POP SWAP2 SWAP1 POP JUMP JUMPDEST PUSH32 0x4E487B7100000000000000000000000000000000000000000000000000000000 PUSH0 MSTORE PUSH1 0x41 PUSH1 0x4 MSTORE PUSH1 0x24 PUSH0 REVERT JUMPDEST PUSH2 0x988 DUP3 PUSH2 0x942 JUMP JUMPDEST DUP2 ADD DUP2 DUP2 LT PUSH8 0xFFFFFFFFFFFFFFFF DUP3 GT OR ISZERO PUSH2 0x9A7 JUMPI PUSH2 0x9A6 PUSH2 0x952 JUMP JUMPDEST JUMPDEST DUP1 PUSH1 0x40 MSTORE POP POP POP JUMP JUMPDEST PUSH0 PUSH2 0x9B9 PUSH2 0x929 JUMP JUMPDEST SWAP1 POP PUSH2 0x9C5 DUP3 DUP3 PUSH2 0x97F JUMP JUMPDEST SWAP2 SWAP1 POP JUMP JUMPDEST PUSH0 PUSH8 0xFFFFFFFFFFFFFFFF DUP3 GT ISZERO PUSH2 0x9E4 JUMPI PUSH2 0x9E3 PUSH2 0x952 JUMP JUMPDEST JUMPDEST PUSH2 0x9ED DUP3 PUSH2 0x942 JUMP JUMPDEST SWAP1 POP PUSH1 0x20 DUP2 ADD SWAP1 POP SWAP2 SWAP1 POP JUMP JUMPDEST DUP3 DUP2 DUP4 CALLDATACOPY PUSH0 DUP4 DUP4 ADD MSTORE POP POP POP JUMP JUMPDEST PUSH0 PUSH2 0xA1A PUSH2 0xA15 DUP5 PUSH2 0x9CA JUMP JUMPDEST PUSH2 0x9B0 JUMP JUMPDEST SWAP1 POP DUP3 DUP2 MSTORE PUSH1 0x20 DUP2 ADD DUP5 DUP5 DUP5 ADD GT ISZERO PUSH2 0xA36 JUMPI PUSH2 0xA35 PUSH2 0x93E JUMP JUMPDEST JUMPDEST PUSH2 0xA41 DUP5 DUP3 DUP6 PUSH2 0x9FA JUMP JUMPDEST POP SWAP4 SWAP3 POP POP POP JUMP JUMPDEST PUSH0 DUP3 PUSH1 0x1F DUP4 ADD SLT PUSH2 0xA5D JUMPI PUSH2 0xA5C PUSH2 0x93A JUMP JUMPDEST JUMPDEST DUP2 CALLDATALOAD PUSH2 0xA6D DUP5 DUP3 PUSH1 0x20 DUP7 ADD PUSH2 0xA08 JUMP JUMPDEST SWAP2 POP POP SWAP3 SWAP2 POP POP JUMP JUMPDEST PUSH0 DUP2 SWAP1 POP SWAP2 SWAP1 POP JUMP JUMPDEST PUSH2 0xA88 DUP2 PUSH2 0xA76 JUMP JUMPDEST DUP2 EQ PUSH2 0xA92 JUMPI PUSH0 DUP1 REVERT JUMPDEST POP JUMP JUMPDEST PUSH0 DUP2 CALLDATALOAD SWAP1 POP PUSH2 0xAA3 DUP2 PUSH2 0xA7F JUMP JUMPDEST SWAP3 SWAP2 POP POP JUMP JUMPDEST PUSH0 DUP1 PUSH0 PUSH1 0x60 DUP5 DUP7 SUB SLT ISZERO PUSH2 0xAC0 JUMPI PUSH2 0xABF PUSH2 0x932 JUMP JUMPDEST JUMPDEST PUSH0 DUP5 ADD CALLDATALOAD PUSH8 0xFFFFFFFFFFFFFFFF DUP2 GT ISZERO PUSH2 0xADD JUMPI PUSH2 0xADC PUSH2 0x936 JUMP JUMPDEST JUMPDEST PUSH2 0xAE9 DUP7 DUP3 DUP8 ADD PUSH2 0xA49 JUMP JUMPDEST SWAP4 POP POP PUSH1 0x20 PUSH2 0xAFA DUP7 DUP3 DUP8 ADD PUSH2 0xA95 JUMP JUMPDEST SWAP3 POP POP PUSH1 0x40 PUSH2 0xB0B DUP7 DUP3 DUP8 ADD PUSH2 0xA95 JUMP JUMPDEST SWAP2 POP POP SWAP3 POP SWAP3 POP SWAP3 JUMP JUMPDEST PUSH0 DUP1 PUSH0 DUP1 PUSH1 0x80 DUP6 DUP8 SUB SLT ISZERO PUSH2 0xB2D JUMPI PUSH2 0xB2C PUSH2 0x932 JUMP JUMPDEST JUMPDEST PUSH0 PUSH2 0xB3A DUP8 DUP3 DUP9 ADD PUSH2 0xA95 JUMP JUMPDEST SWAP5 POP POP PUSH1 0x20 DUP6 ADD CALLDATALOAD PUSH8 0xFFFFFFFFFFFFFFFF DUP2 GT ISZERO PUSH2 0xB5B JUMPI PUSH2 0xB5A PUSH2 0x936 JUMP JUMPDEST JUMPDEST PUSH2 0xB67 DUP8 DUP3 DUP9 ADD PUSH2 0xA49 JUMP JUMPDEST SWAP4 POP POP PUSH1 0x40 PUSH2 0xB78 DUP8 DUP3 DUP9 ADD PUSH2 0xA95 JUMP JUMPDEST SWAP3 POP POP PUSH1 0x60 PUSH2 0xB89 DUP8 DUP3 DUP9 ADD PUSH2 0xA95 JUMP JUMPDEST SWAP2 POP POP SWAP3 SWAP6 SWAP2 SWAP5 POP SWAP3 POP JUMP JUMPDEST PUSH0 PUSH1 0x20 DUP3 DUP5 SUB SLT ISZERO PUSH2 0xBAA JUMPI PUSH2 0xBA9 PUSH2 0x932 JUMP JUMPDEST JUMPDEST PUSH0 PUSH2 0xBB7 DUP5 DUP3 DUP6 ADD PUSH2 0xA95 JUMP JUMPDEST SWAP2 POP POP SWAP3 SWAP2 POP POP JUMP JUMPDEST PUSH0 DUP2 MLOAD SWAP1 POP SWAP2 SWAP1 POP JUMP JUMPDEST PUSH0 DUP3 DUP3 MSTORE PUSH1 0x20 DUP3 ADD SWAP1 POP SWAP3 SWAP2 POP POP JUMP JUMPDEST DUP3 DUP2 DUP4 MCOPY PUSH0 DUP4 DUP4 ADD MSTORE POP POP POP JUMP JUMPDEST PUSH0 PUSH2 0xBF2 DUP3 PUSH2 0xBC0 JUMP JUMPDEST PUSH2 0xBFC DUP2 DUP6 PUSH2 0xBCA JUMP JUMPDEST SWAP4 POP PUSH2 0xC0C DUP2 DUP6 PUSH1 0x20 DUP7 ADD PUSH2 0xBDA JUMP JUMPDEST PUSH2 0xC15 DUP2 PUSH2 0x942 JUMP JUMPDEST DUP5 ADD SWAP2 POP POP SWAP3 SWAP2 POP POP JUMP JUMPDEST PUSH2 0xC29 DUP2 PUSH2 0xA76 JUMP JUMPDEST DUP3 MSTORE POP POP JUMP JUMPDEST PUSH0 PUSH1 0x60 DUP3 ADD SWAP1 POP DUP2 DUP2 SUB PUSH0 DUP4 ADD MSTORE PUSH2 0xC47 DUP2 DUP7 PUSH2 0xBE8 JUMP JUMPDEST SWAP1 POP PUSH2 0xC56 PUSH1 0x20 DUP4 ADD DUP6 PUSH2 0xC20 JUMP JUMPDEST PUSH2 0xC63 PUSH1 0x40 DUP4 ADD DUP5 PUSH2 0xC20 JUMP JUMPDEST SWAP5 SWAP4 POP POP POP POP JUMP JUMPDEST PUSH0 DUP3 DUP3 MSTORE PUSH1 0x20 DUP3 ADD SWAP1 POP SWAP3 SWAP2 POP POP JUMP JUMPDEST PUSH0 PUSH2 0xC85 DUP3 PUSH2 0xBC0 JUMP JUMPDEST PUSH2 0xC8F DUP2 DUP6 PUSH2 0xC6B JUMP JUMPDEST SWAP4 POP PUSH2 0xC9F DUP2 DUP6 PUSH1 0x20 DUP7 ADD PUSH2 0xBDA JUMP JUMPDEST PUSH2 0xCA8 DUP2 PUSH2 0x942 JUMP JUMPDEST DUP5 ADD SWAP2 POP POP SWAP3 SWAP2 POP POP JUMP JUMPDEST PUSH2 0xCBC DUP2 PUSH2 0xA76 JUMP JUMPDEST DUP3 MSTORE POP POP JUMP JUMPDEST PUSH0 PUSH1 0x60 DUP4 ADD PUSH0 DUP4 ADD MLOAD DUP5 DUP3 SUB PUSH0 DUP7 ADD MSTORE PUSH2 0xCDC DUP3 DUP3 PUSH2 0xC7B JUMP JUMPDEST SWAP2 POP POP PUSH1 0x20 DUP4 ADD MLOAD PUSH2 0xCF1 PUSH1 0x20 DUP7 ADD DUP3 PUSH2 0xCB3 JUMP JUMPDEST POP PUSH1 0x40 DUP4 ADD MLOAD PUSH2 0xD04 PUSH1 0x40 DUP7 ADD DUP3 PUSH2 0xCB3 JUMP JUMPDEST POP DUP1 SWAP2 POP POP SWAP3 SWAP2 POP POP JUMP JUMPDEST PUSH0 PUSH1 0x20 DUP3 ADD SWAP1 POP DUP2 DUP2 SUB PUSH0 DUP4 ADD MSTORE PUSH2 0xD27 DUP2 DUP5 PUSH2 0xCC2 JUMP JUMPDEST SWAP1 POP SWAP3 SWAP2 POP POP JUMP JUMPDEST PUSH0 PUSH20 0xFFFFFFFFFFFFFFFFFFFFFFFFFFFFFFFFFFFFFFFF DUP3 AND SWAP1 POP SWAP2 SWAP1 POP JUMP JUMPDEST PUSH0 PUSH2 0xD58 DUP3 PUSH2 0xD2F JUMP JUMPDEST SWAP1 POP SWAP2 SWAP1 POP JUMP JUMPDEST PUSH2 0xD68 DUP2 PUSH2 0xD4E JUMP JUMPDEST DUP3 MSTORE POP POP JUMP JUMPDEST PUSH0 PUSH1 0x20 DUP3 ADD SWAP1 POP PUSH2 0xD81 PUSH0 DUP4 ADD DUP5 PUSH2 0xD5F JUMP JUMPDEST SWAP3 SWAP2 POP POP JUMP JUMPDEST PUSH0 PUSH1 0x20 DUP3 ADD SWAP1 POP PUSH2 0xD9A PUSH0 DUP4 ADD DUP5 PUSH2 0xC20 JUMP JUMPDEST SWAP3 SWAP2 POP POP JUMP JUMPDEST PUSH32 0x4163636573207265667573653A207365756C656D656E74206C652070726F7072 PUSH0 DUP3 ADD MSTORE PUSH32 0x6965746169726500000000000000000000000000000000000000000000000000 PUSH1 0x20 DUP3 ADD MSTORE POP JUMP JUMPDEST PUSH0 PUSH2 0xDFA PUSH1 0x27 DUP4 PUSH2 0xBCA JUMP JUMPDEST SWAP2 POP PUSH2 0xE05 DUP3 PUSH2 0xDA0 JUMP JUMPDEST PUSH1 0x40 DUP3 ADD SWAP1 POP SWAP2 SWAP1 POP JUMP JUMPDEST PUSH0 PUSH1 0x20 DUP3 ADD SWAP1 POP DUP2 DUP2 SUB PUSH0 DUP4 ADD MSTORE PUSH2 0xE27 DUP2 PUSH2 0xDEE JUMP JUMPDEST SWAP1 POP SWAP2 SWAP1 POP JUMP JUMPDEST PUSH32 0x4E487B7100000000000000000000000000000000000000000000000000000000 PUSH0 MSTORE PUSH1 0x11 PUSH1 0x4 MSTORE PUSH1 0x24 PUSH0 REVERT JUMPDEST PUSH0 PUSH2 0xE65 DUP3 PUSH2 0xA76 JUMP JUMPDEST SWAP2 POP PUSH32 0xFFFFFFFFFFFFFFFFFFFFFFFFFFFFFFFFFFFFFFFFFFFFFFFFFFFFFFFFFFFFFFFF DUP3 SUB PUSH2 0xE97 JUMPI PUSH2 0xE96 PUSH2 0xE2E JUMP JUMPDEST JUMPDEST PUSH1 0x1 DUP3 ADD SWAP1 POP SWAP2 SWAP1 POP JUMP JUMPDEST PUSH32 0x4E487B7100000000000000000000000000000000000000000000000000000000 PUSH0 MSTORE PUSH1 0x22 PUSH1 0x4 MSTORE PUSH1 0x24 PUSH0 REVERT JUMPDEST PUSH0 PUSH1 0x2 DUP3 DIV SWAP1 POP PUSH1 0x1 DUP3 AND DUP1 PUSH2 0xEE6 JUMPI PUSH1 0x7F DUP3 AND SWAP2 POP JUMPDEST PUSH1 0x20 DUP3 LT DUP2 SUB PUSH2 0xEF9 JUMPI PUSH2 0xEF8 PUSH2 0xEA2 JUMP JUMPDEST JUMPDEST POP SWAP2 SWAP1 POP JUMP JUMPDEST PUSH0 DUP2 SWAP1 POP DUP2 PUSH0 MSTORE PUSH1 0x20 PUSH0 KECCAK256 SWAP1 POP SWAP2 SWAP1 POP JUMP JUMPDEST PUSH0 PUSH1 0x20 PUSH1 0x1F DUP4 ADD DIV SWAP1 POP SWAP2 SWAP1 POP JUMP JUMPDEST PUSH0 DUP3 DUP3 SHL SWAP1 POP SWAP3 SWAP2 POP POP JUMP JUMPDEST PUSH0 PUSH1 0x8 DUP4 MUL PUSH2 0xF5B PUSH32 0xFFFFFFFFFFFFFFFFFFFFFFFFFFFFFFFFFFFFFFFFFFFFFFFFFFFFFFFFFFFFFFFF DUP3 PUSH2 0xF20 JUMP JUMPDEST PUSH2 0xF65 DUP7 DUP4 PUSH2 0xF20 JUMP JUMPDEST SWAP6 POP DUP1 NOT DUP5 AND SWAP4 POP DUP1 DUP7 AND DUP5 OR SWAP3 POP POP POP SWAP4 SWAP3 POP POP POP JUMP JUMPDEST PUSH0 DUP2 SWAP1 POP SWAP2 SWAP1 POP JUMP JUMPDEST PUSH0 PUSH2 0xFA0 PUSH2 0xF9B PUSH2 0xF96 DUP5 PUSH2 0xA76 JUMP JUMPDEST PUSH2 0xF7D JUMP JUMPDEST PUSH2 0xA76 JUMP JUMPDEST SWAP1 POP SWAP2 SWAP1 POP JUMP JUMPDEST PUSH0 DUP2 SWAP1 POP SWAP2 SWAP1 POP JUMP JUMPDEST PUSH2 0xFB9 DUP4 PUSH2 0xF86 JUMP JUMPDEST PUSH2 0xFCD PUSH2 0xFC5 DUP3 PUSH2 0xFA7 JUMP JUMPDEST DUP5 DUP5 SLOAD PUSH2 0xF2C JUMP JUMPDEST DUP3 SSTORE POP POP POP POP JUMP JUMPDEST PUSH0 SWAP1 JUMP JUMPDEST PUSH2 0xFE1 PUSH2 0xFD5 JUMP JUMPDEST PUSH2 0xFEC DUP2 DUP5 DUP5 PUSH2 0xFB0 JUMP JUMPDEST POP POP POP JUMP JUMPDEST JUMPDEST DUP2 DUP2 LT ISZERO PUSH2 0x100F JUMPI PUSH2 0x1004 PUSH0 DUP3 PUSH2 0xFD9 JUMP JUMPDEST PUSH1 0x1 DUP2 ADD SWAP1 POP PUSH2 0xFF2 JUMP JUMPDEST POP POP JUMP JUMPDEST PUSH1 0x1F DUP3 GT ISZERO PUSH2 0x1054 JUMPI PUSH2 0x1025 DUP2 PUSH2 0xEFF JUMP JUMPDEST PUSH2 0x102E DUP5 PUSH2 0xF11 JUMP JUMPDEST DUP2 ADD PUSH1 0x20 DUP6 LT ISZERO PUSH2 0x103D JUMPI DUP2 SWAP1 POP JUMPDEST PUSH2 0x1051 PUSH2 0x1049 DUP6 PUSH2 0xF11 JUMP JUMPDEST DUP4 ADD DUP3 PUSH2 0xFF1 JUMP JUMPDEST POP POP JUMPDEST POP POP POP JUMP JUMPDEST PUSH0 DUP3 DUP3 SHR SWAP1 POP SWAP3 SWAP2 POP POP JUMP JUMPDEST PUSH0 PUSH2 0x1074 PUSH0 NOT DUP5 PUSH1 0x8 MUL PUSH2 0x1059 JUMP JUMPDEST NOT DUP1 DUP4 AND SWAP2 POP POP SWAP3 SWAP2 POP POP JUMP JUMPDEST PUSH0 PUSH2 0x108C DUP4 DUP4 PUSH2 0x1065 JUMP JUMPDEST SWAP2 POP DUP3 PUSH1 0x2 MUL DUP3 OR SWAP1 POP SWAP3 SWAP2 POP POP JUMP JUMPDEST PUSH2 0x10A5 DUP3 PUSH2 0xBC0 JUMP JUMPDEST PUSH8 0xFFFFFFFFFFFFFFFF DUP2 GT ISZERO PUSH2 0x10BE JUMPI PUSH2 0x10BD PUSH2 0x952 JUMP JUMPDEST JUMPDEST PUSH2 0x10C8 DUP3 SLOAD PUSH2 0xECF JUMP JUMPDEST PUSH2 0x10D3 DUP3 DUP3 DUP6 PUSH2 0x1013 JUMP JUMPDEST PUSH0 PUSH1 0x20 SWAP1 POP PUSH1 0x1F DUP4 GT PUSH1 0x1 DUP2 EQ PUSH2 0x1104 JUMPI PUSH0 DUP5 ISZERO PUSH2 0x10F2 JUMPI DUP3 DUP8 ADD MLOAD SWAP1 POP JUMPDEST PUSH2 0x10FC DUP6 DUP3 PUSH2 0x1081 JUMP JUMPDEST DUP7 SSTORE POP PUSH2 0x1163 JUMP JUMPDEST PUSH1 0x1F NOT DUP5 AND PUSH2 0x1112 DUP7 PUSH2 0xEFF JUMP JUMPDEST PUSH0 JUMPDEST DUP3 DUP2 LT ISZERO PUSH2 0x1139 JUMPI DUP5 DUP10 ADD MLOAD DUP3 SSTORE PUSH1 0x1 DUP3 ADD SWAP2 POP PUSH1 0x20 DUP6 ADD SWAP5 POP PUSH1 0x20 DUP2 ADD SWAP1 POP PUSH2 0x1114 JUMP JUMPDEST DUP7 DUP4 LT ISZERO PUSH2 0x1156 JUMPI DUP5 DUP10 ADD MLOAD PUSH2 0x1152 PUSH1 0x1F DUP10 AND DUP3 PUSH2 0x1065 JUMP JUMPDEST DUP4 SSTORE POP JUMPDEST PUSH1 0x1 PUSH1 0x2 DUP9 MUL ADD DUP9 SSTORE POP POP POP JUMPDEST POP POP POP POP POP POP JUMP JUMPDEST PUSH0 PUSH1 0x40 DUP3 ADD SWAP1 POP PUSH2 0x117E PUSH0 DUP4 ADD DUP6 PUSH2 0xC20 JUMP JUMPDEST DUP2 DUP2 SUB PUSH1 0x20 DUP4 ADD MSTORE PUSH2 0x1190 DUP2 DUP5 PUSH2 0xBE8 JUMP JUMPDEST SWAP1 POP SWAP4 SWAP3 POP POP POP JUMP JUMPDEST PUSH32 0x50726F6475697420696E76616C69646500000000000000000000000000000000 PUSH0 DUP3 ADD MSTORE POP JUMP JUMPDEST PUSH0 PUSH2 0x11CD PUSH1 0x10 DUP4 PUSH2 0xBCA JUMP JUMPDEST SWAP2 POP PUSH2 0x11D8 DUP3 PUSH2 0x1199 JUMP JUMPDEST PUSH1 0x20 DUP3 ADD SWAP1 POP SWAP2 SWAP1 POP JUMP JUMPDEST PUSH0 PUSH1 0x20 DUP3 ADD SWAP1 POP DUP2 DUP2 SUB PUSH0 DUP4 ADD MSTORE PUSH2 0x11FA DUP2 PUSH2 0x11C1 JUMP JUMPDEST SWAP1 POP SWAP2 SWAP1 POP JUMP INVALID LOG2 PUSH5 0x6970667358 0x22 SLT KECCAK256 PUSH11 0x93CC5AA04384BA2BD3FF44 DUP13 LOG0 0xEE 0xBC 0xDD DUP1 0xB6 0xAB 0xE8 0xAA SWAP4 SWAP9 LOG1 0x2C EXTCODESIZE 0xD8 0xD8 0xDD 0x1F DUP14 PUSH5 0x736F6C6343 STOP ADDMOD BYTE STOP CALLER "
				},
				"gasEstimates": {
					"creation": {
						"codeDepositCost": "932600",
						"executionCost": "25231",
						"totalCost": "957831"
					},
					"external": {
						"addProduct(string,uint256,uint256)": "infinite",
						"copyProduct(uint256)": "infinite",
						"deleteProduct(uint256)": "infinite",
						"getProduct(uint256)": "infinite",
						"owner()": "2508",
						"productCount()": "2469",
						"products(uint256)": "infinite",
						"updateProduct(uint256,string,uint256,uint256)": "infinite"
					}
				},
				"methodIdentifiers": {
					"addProduct(string,uint256,uint256)": "125b0b34",
					"copyProduct(uint256)": "8a7adee0",
					"deleteProduct(uint256)": "ed90c7b7",
					"getProduct(uint256)": "b9db15b4",
					"owner()": "8da5cb5b",
					"productCount()": "e0f6ef87",
					"products(uint256)": "7acc0b20",
					"updateProduct(uint256,string,uint256,uint256)": "2d561787"
				}
			},
			"storageLayout": {
				"storage": [
					{
						"astId": 13,
						"contract": "contracts/6_Product.sol:ProductMarket",
						"label": "products",
						"offset": 0,
						"slot": "0",
						"type": "t_mapping(t_uint256,t_struct(Product)8_storage)"
					},
					{
						"astId": 15,
						"contract": "contracts/6_Product.sol:ProductMarket",
						"label": "productCount",
						"offset": 0,
						"slot": "1",
						"type": "t_uint256"
					},
					{
						"astId": 17,
						"contract": "contracts/6_Product.sol:ProductMarket",
						"label": "owner",
						"offset": 0,
						"slot": "2",
						"type": "t_address"
					}
				],
				"types": {
					"t_address": {
						"encoding": "inplace",
						"label": "address",
						"numberOfBytes": "20"
					},
					"t_mapping(t_uint256,t_struct(Product)8_storage)": {
						"encoding": "mapping",
						"key": "t_uint256",
						"label": "mapping(uint256 => struct ProductMarket.Product)",
						"numberOfBytes": "32",
						"value": "t_struct(Product)8_storage"
					},
					"t_string_storage": {
						"encoding": "bytes",
						"label": "string",
						"numberOfBytes": "32"
					},
					"t_struct(Product)8_storage": {
						"encoding": "inplace",
						"label": "struct ProductMarket.Product",
						"members": [
							{
								"astId": 3,
								"contract": "contracts/6_Product.sol:ProductMarket",
								"label": "name",
								"offset": 0,
								"slot": "0",
								"type": "t_string_storage"
							},
							{
								"astId": 5,
								"contract": "contracts/6_Product.sol:ProductMarket",
								"label": "price",
								"offset": 0,
								"slot": "1",
								"type": "t_uint256"
							},
							{
								"astId": 7,
								"contract": "contracts/6_Product.sol:ProductMarket",
								"label": "stock",
								"offset": 0,
								"slot": "2",
								"type": "t_uint256"
							}
						],
						"numberOfBytes": "96"
					},
					"t_uint256": {
						"encoding": "inplace",
						"label": "uint256",
						"numberOfBytes": "32"
					}
				}
			},
			"userdoc": {
				"kind": "user",
				"methods": {},
				"version": 1
			}
		}
	}
}